{
  "address": "0xC695d8A53fefC4d09BBa615A015EAC6C03f792a4",
  "abi": [
    {
      "inputs": [
        {
          "internalType": "address",
          "name": "_feeToSetter",
          "type": "address"
        }
      ],
      "stateMutability": "nonpayable",
      "type": "constructor"
    },
    {
      "anonymous": false,
      "inputs": [
        {
          "indexed": true,
          "internalType": "address",
          "name": "token0",
          "type": "address"
        },
        {
          "indexed": true,
          "internalType": "address",
          "name": "token1",
          "type": "address"
        },
        {
          "indexed": false,
          "internalType": "address",
          "name": "pair",
          "type": "address"
        },
        {
          "indexed": false,
          "internalType": "uint256",
          "name": "",
          "type": "uint256"
        }
      ],
      "name": "PairCreated",
      "type": "event"
    },
    {
      "inputs": [],
      "name": "INIT_CODE_PAIR_HASH",
      "outputs": [
        {
          "internalType": "bytes32",
          "name": "",
          "type": "bytes32"
        }
      ],
      "stateMutability": "view",
      "type": "function"
    },
    {
      "inputs": [
        {
          "internalType": "uint256",
          "name": "",
          "type": "uint256"
        }
      ],
      "name": "allPairs",
      "outputs": [
        {
          "internalType": "address",
          "name": "",
          "type": "address"
        }
      ],
      "stateMutability": "view",
      "type": "function"
    },
    {
      "inputs": [],
      "name": "allPairsLength",
      "outputs": [
        {
          "internalType": "uint256",
          "name": "",
          "type": "uint256"
        }
      ],
      "stateMutability": "view",
      "type": "function"
    },
    {
      "inputs": [
        {
          "internalType": "address",
          "name": "tokenA",
          "type": "address"
        },
        {
          "internalType": "address",
          "name": "tokenB",
          "type": "address"
        }
      ],
      "name": "createPair",
      "outputs": [
        {
          "internalType": "address",
          "name": "pair",
          "type": "address"
        }
      ],
      "stateMutability": "nonpayable",
      "type": "function"
    },
    {
      "inputs": [
        {
          "internalType": "address",
          "name": "token0",
          "type": "address"
        },
        {
          "internalType": "address",
          "name": "token1",
          "type": "address"
        }
      ],
      "name": "expectPairFor",
      "outputs": [
        {
          "internalType": "address",
          "name": "",
          "type": "address"
        }
      ],
      "stateMutability": "view",
      "type": "function"
    },
    {
      "inputs": [],
      "name": "feeTo",
      "outputs": [
        {
          "internalType": "address",
          "name": "",
          "type": "address"
        }
      ],
      "stateMutability": "view",
      "type": "function"
    },
    {
      "inputs": [],
      "name": "feeToSetter",
      "outputs": [
        {
          "internalType": "address",
          "name": "",
          "type": "address"
        }
      ],
      "stateMutability": "view",
      "type": "function"
    },
    {
      "inputs": [
        {
          "internalType": "address",
          "name": "",
          "type": "address"
        },
        {
          "internalType": "address",
          "name": "",
          "type": "address"
        }
      ],
      "name": "getPair",
      "outputs": [
        {
          "internalType": "address",
          "name": "",
          "type": "address"
        }
      ],
      "stateMutability": "view",
      "type": "function"
    },
    {
      "inputs": [
        {
          "internalType": "address",
          "name": "_feeTo",
          "type": "address"
        }
      ],
      "name": "setFeeTo",
      "outputs": [],
      "stateMutability": "nonpayable",
      "type": "function"
    },
    {
      "inputs": [
        {
          "internalType": "address",
          "name": "_feeToSetter",
          "type": "address"
        }
      ],
      "name": "setFeeToSetter",
      "outputs": [],
      "stateMutability": "nonpayable",
      "type": "function"
    }
  ],
  "transactionHash": "0x96d280f17a4375334a43000e88e6c4776535de352e48cd404ceb97dc4cfac268",
  "args": [
    "0xC0a56aeE755Bd397235367008f7c2c4599768395"
  ],
  "solcInputHash": "94bbdfa4a3f544fad571fc64675e8bc3",
  "bytecode": "0x608060405234801561001057600080fd5b50604051612cca380380612cca8339818101604052602081101561003357600080fd5b5051600180546001600160a01b0319166001600160a01b03909216919091179055612c67806100636000396000f3fe608060405234801561001057600080fd5b506004361061009e5760003560e01c806368942ce41161006657806368942ce41461010e578063a2e74af61461013c578063c9c6539614610164578063e6a4390514610192578063f46901ed146101c05761009e565b8063017e7e58146100a3578063094b7415146100c75780631e3dd18b146100cf578063574f2ba3146100ec5780635855a25a14610106575b600080fd5b6100ab6101e6565b604080516001600160a01b039092168252519081900360200190f35b6100ab6101f5565b6100ab600480360360208110156100e557600080fd5b5035610204565b6100f461022e565b60408051918252519081900360200190f35b6100f4610234565b6100ab6004803603604081101561012457600080fd5b506001600160a01b03813581169160200135166102c7565b6101626004803603602081101561015257600080fd5b50356001600160a01b03166102db565b005b6100ab6004803603604081101561017a57600080fd5b506001600160a01b038135811691602001351661034e565b6100ab600480360360408110156101a857600080fd5b506001600160a01b0381358116916020013516610669565b610162600480360360208110156101d657600080fd5b50356001600160a01b031661068f565b6000546001600160a01b031681565b6001546001600160a01b031681565b6003818154811061021457600080fd5b6000918252602090912001546001600160a01b0316905081565b60035490565b604051610243602082016108a0565b6020820181038252601f19601f820116604052506040516020018082805190602001908083835b602083106102895780518252601f19909201916020918201910161026a565b6001836020036101000a0380198251168184511680821785525050505050509050019150506040516020818303038152906040528051906020012081565b60006102d4308484610702565b9392505050565b6001546001600160a01b0316331461032c576040805162461bcd60e51b815260206004820152600f60248201526e2130b13c9d102327a92124a22222a760891b604482015290519081900360640190fd5b600180546001600160a01b0319166001600160a01b0392909216919091179055565b6000816001600160a01b0316836001600160a01b031614156103b7576040805162461bcd60e51b815260206004820152601960248201527f426162793a204944454e544943414c5f41444452455353455300000000000000604482015290519081900360640190fd5b600080836001600160a01b0316856001600160a01b0316106103da5783856103dd565b84845b90925090506001600160a01b038216610432576040805162461bcd60e51b8152602060048201526012602482015271426162793a205a45524f5f4144445245535360701b604482015290519081900360640190fd5b6001600160a01b038281166000908152600260209081526040808320858516845290915290205416156104a0576040805162461bcd60e51b8152602060048201526011602482015270426162793a20504149525f45584953545360781b604482015290519081900360640190fd5b6060604051806020016104b2906108a0565b6020820181038252601f19601f8201166040525090506000838360405160200180836001600160a01b031660601b8152601401826001600160a01b031660601b815260140192505050604051602081830303815290604052805190602001209050808251602084016000f59450846001600160a01b031663485cc95585856040518363ffffffff1660e01b815260040180836001600160a01b03168152602001826001600160a01b0316815260200192505050600060405180830381600087803b15801561057f57600080fd5b505af1158015610593573d6000803e3d6000fd5b505050506001600160a01b0384811660008181526002602081815260408084208987168086529083528185208054978d166001600160a01b031998891681179091559383528185208686528352818520805488168517905560038054600181018255958190527fc2575a0e9e593c00f959f8c92f12db2869c3395a3b0502d05e2516446f71f85b90950180549097168417909655925483519283529082015281517f0d3648bd0f6ba80134a33ba9275ac585d9d315f0ad8355cddefde31afa28d0e9929181900390910190a35050505092915050565b60026020908152600092835260408084209091529082529020546001600160a01b031681565b6001546001600160a01b031633146106e0576040805162461bcd60e51b815260206004820152600f60248201526e2130b13c9d102327a92124a22222a760891b604482015290519081900360640190fd5b600080546001600160a01b0319166001600160a01b0392909216919091179055565b600080600061071185856107c2565b604080516bffffffffffffffffffffffff19606094851b811660208084019190915293851b81166034830152825160288184030181526048830184528051908501206001600160f81b031960688401529a90941b9093166069840152607d8301989098527fec653b9460cd4213aaca0045af2f3739206d79ad65987cb23546d7d9c23c6a64609d808401919091528851808403909101815260bd909201909752805196019590952095945050505050565b600080826001600160a01b0316846001600160a01b031614156108165760405162461bcd60e51b8152600401808060200182810382526023815260200180612c0f6023913960400191505060405180910390fd5b826001600160a01b0316846001600160a01b031610610836578284610839565b83835b90925090506001600160a01b038216610899576040805162461bcd60e51b815260206004820152601c60248201527f50616e63616b654c6962726172793a205a45524f5f4144445245535300000000604482015290519081900360640190fd5b9250929050565b612361806108ae8339019056fe60806040526001600c5534801561001557600080fd5b50604080518082018252600881526742616279204c507360c01b6020918201528151808301835260018152603160f81b9082015281517f8b73c3c69bb8fe3d512ecc4cf759cc79239f7b179b0ffacaa9a75d522b39400f818301527ff2af0fab7d1e24a43eb09fbcee8483ea7a053194f6a00a9b241b717441ba0019818401527fc89efdaa54c0f20c7adf612882df0950f5a951637e0307cdcb4c672f298b8bc660608201524660808201523060a0808301919091528351808303909101815260c09091019092528151910120600355600580546001600160a01b0319163317905561225b806101066000396000f3fe608060405234801561001057600080fd5b50600436106101a95760003560e01c80636a627842116100f9578063ba9a7a5611610097578063d21220a711610071578063d21220a714610534578063d505accf1461053c578063dd62ed3e1461058d578063fff6cae9146105bb576101a9565b8063ba9a7a56146104fe578063bc25cf7714610506578063c45a01551461052c576101a9565b80637ecebe00116100d35780637ecebe001461046557806389afcb441461048b57806395d89b41146104ca578063a9059cbb146104d2576101a9565b80636a6278421461041157806370a08231146104375780637464fc3d1461045d576101a9565b806323b872dd116101665780633644e515116101405780633644e515146103cb578063485cc955146103d35780635909c0d5146104015780635a3d549314610409576101a9565b806323b872dd1461036f57806330adf81f146103a5578063313ce567146103ad576101a9565b8063022c0d9f146101ae57806306fdde031461023c5780630902f1ac146102b9578063095ea7b3146102f15780630dfe16811461033157806318160ddd14610355575b600080fd5b61023a600480360360808110156101c457600080fd5b8135916020810135916001600160a01b0360408301351691908101906080810160608201356401000000008111156101fb57600080fd5b82018360208201111561020d57600080fd5b8035906020019184600183028401116401000000008311171561022f57600080fd5b5090925090506105c3565b005b610244610afe565b6040805160208082528351818301528351919283929083019185019080838360005b8381101561027e578181015183820152602001610266565b50505050905090810190601f1680156102ab5780820380516001836020036101000a031916815260200191505b509250505060405180910390f35b6102c1610b22565b604080516001600160701b03948516815292909316602083015263ffffffff168183015290519081900360600190f35b61031d6004803603604081101561030757600080fd5b506001600160a01b038135169060200135610b4c565b604080519115158252519081900360200190f35b610339610b63565b604080516001600160a01b039092168252519081900360200190f35b61035d610b72565b60408051918252519081900360200190f35b61031d6004803603606081101561038557600080fd5b506001600160a01b03813581169160208101359091169060400135610b78565b61035d610c0c565b6103b5610c30565b6040805160ff9092168252519081900360200190f35b61035d610c35565b61023a600480360360408110156103e957600080fd5b506001600160a01b0381358116916020013516610c3b565b61035d610cba565b61035d610cc0565b61035d6004803603602081101561042757600080fd5b50356001600160a01b0316610cc6565b61035d6004803603602081101561044d57600080fd5b50356001600160a01b0316610f9d565b61035d610faf565b61035d6004803603602081101561047b57600080fd5b50356001600160a01b0316610fb5565b6104b1600480360360208110156104a157600080fd5b50356001600160a01b0316610fc7565b6040805192835260208301919091528051918290030190f35b61024461139c565b61031d600480360360408110156104e857600080fd5b506001600160a01b0381351690602001356113bf565b61035d6113cc565b61023a6004803603602081101561051c57600080fd5b50356001600160a01b03166113d2565b61033961153f565b61033961154e565b61023a600480360360e081101561055257600080fd5b506001600160a01b03813581169160208101359091169060408101359060608101359060ff6080820135169060a08101359060c0013561155d565b61035d600480360360408110156105a357600080fd5b506001600160a01b038135811691602001351661175a565b61023a611777565b600c54600114610609576040805162461bcd60e51b815260206004820152600c60248201526b1098589e4e881313d0d2d15160a21b604482015290519081900360640190fd5b6000600c558415158061061c5750600084115b61066d576040805162461bcd60e51b815260206004820181905260248201527f426162793a20494e53554646494349454e545f4f55545055545f414d4f554e54604482015290519081900360640190fd5b600080610678610b22565b5091509150816001600160701b03168710801561069d5750806001600160701b031686105b6106ee576040805162461bcd60e51b815260206004820152601c60248201527f426162793a20494e53554646494349454e545f4c495155494449545900000000604482015290519081900360640190fd5b60065460075460009182916001600160a01b0391821691908116908916821480159061072c5750806001600160a01b0316896001600160a01b031614155b610770576040805162461bcd60e51b815260206004820152601060248201526f426162793a20494e56414c49445f544f60801b604482015290519081900360640190fd5b8a1561078157610781828a8d6118d4565b891561079257610792818a8c6118d4565b861561084457886001600160a01b031663110c03de338d8d8c8c6040518663ffffffff1660e01b815260040180866001600160a01b03168152602001858152602001848152602001806020018281038252848482818152602001925080828437600081840152601f19601f8201169050808301925050509650505050505050600060405180830381600087803b15801561082b57600080fd5b505af115801561083f573d6000803e3d6000fd5b505050505b604080516370a0823160e01b815230600482015290516001600160a01b038416916370a08231916024808301926020929190829003018186803b15801561088a57600080fd5b505afa15801561089e573d6000803e3d6000fd5b505050506040513d60208110156108b457600080fd5b5051604080516370a0823160e01b815230600482015290519195506001600160a01b038316916370a0823191602480820192602092909190829003018186803b15801561090057600080fd5b505afa158015610914573d6000803e3d6000fd5b505050506040513d602081101561092a57600080fd5b5051925060009150506001600160701b0385168a9003831161094d57600061095c565b89856001600160701b03160383035b9050600089856001600160701b0316038311610979576000610988565b89856001600160701b03160383035b905060008211806109995750600081115b6109ea576040805162461bcd60e51b815260206004820152601f60248201527f426162793a20494e53554646494349454e545f494e5055545f414d4f554e5400604482015290519081900360640190fd5b6000610a0c6109fa846002611a66565b610a06876103e8611a66565b90611ac6565b90506000610a1e6109fa846002611a66565b9050610a43620f4240610a3d6001600160701b038b8116908b16611a66565b90611a66565b610a4d8383611a66565b1015610a8a576040805162461bcd60e51b8152602060048201526007602482015266426162793a204b60c81b604482015290519081900360640190fd5b5050610a9884848888611b08565b60408051838152602081018390528082018d9052606081018c905290516001600160a01b038b169133917fd78ad95fa46c994b6551d0da85fc275fe613ce37657fb8d5e3d130840159d8229181900360800190a350506001600c55505050505050505050565b6040518060400160405280600881526020016742616279204c507360c01b81525081565b6008546001600160701b0380821692600160701b830490911691600160e01b900463ffffffff1690565b6000610b59338484611cc2565b5060015b92915050565b6006546001600160a01b031681565b60005481565b6001600160a01b038316600090815260026020908152604080832033845290915281205460001914610bf7576001600160a01b0384166000908152600260209081526040808320338452909152902054610bd29083611ac6565b6001600160a01b03851660009081526002602090815260408083203384529091529020555b610c02848484611d24565b5060019392505050565b7f6e71edae12b1b97f4d1f60370fef10105fa2faae0126114a169c64845d6126c981565b601281565b60035481565b6005546001600160a01b03163314610c8c576040805162461bcd60e51b815260206004820152600f60248201526e2130b13c9d102327a92124a22222a760891b604482015290519081900360640190fd5b600680546001600160a01b039384166001600160a01b03199182161790915560078054929093169116179055565b60095481565b600a5481565b6000600c54600114610d0e576040805162461bcd60e51b815260206004820152600c60248201526b1098589e4e881313d0d2d15160a21b604482015290519081900360640190fd5b6000600c81905580610d1e610b22565b50600654604080516370a0823160e01b815230600482015290519395509193506000926001600160a01b03909116916370a08231916024808301926020929190829003018186803b158015610d7257600080fd5b505afa158015610d86573d6000803e3d6000fd5b505050506040513d6020811015610d9c57600080fd5b5051600754604080516370a0823160e01b815230600482015290519293506000926001600160a01b03909216916370a0823191602480820192602092909190829003018186803b158015610def57600080fd5b505afa158015610e03573d6000803e3d6000fd5b505050506040513d6020811015610e1957600080fd5b505190506000610e32836001600160701b038716611ac6565b90506000610e49836001600160701b038716611ac6565b90506000610e578787611dd2565b60005490915080610e8e57610e7a6103e8610a06610e758787611a66565b611f12565b9850610e8960006103e8611f64565b610ed1565b610ece6001600160701b038916610ea58684611a66565b81610eac57fe5b046001600160701b038916610ec18685611a66565b81610ec857fe5b04611fee565b98505b60008911610f105760405162461bcd60e51b81526004018080602001828103825260238152602001806122036023913960400191505060405180910390fd5b610f1a8a8a611f64565b610f2686868a8a611b08565b8115610f5057600854610f4c906001600160701b0380821691600160701b900416611a66565b600b555b6040805185815260208101859052815133927f4c209b5fc8ad50758f13e2e1088ba56a560dff690a1c6fef26394f4c03821c4f928290030190a250506001600c5550949695505050505050565b60016020526000908152604090205481565b600b5481565b60046020526000908152604090205481565b600080600c54600114611010576040805162461bcd60e51b815260206004820152600c60248201526b1098589e4e881313d0d2d15160a21b604482015290519081900360640190fd5b6000600c81905580611020610b22565b50600654600754604080516370a0823160e01b815230600482015290519496509294506001600160a01b039182169391169160009184916370a08231916024808301926020929190829003018186803b15801561107c57600080fd5b505afa158015611090573d6000803e3d6000fd5b505050506040513d60208110156110a657600080fd5b5051604080516370a0823160e01b815230600482015290519192506000916001600160a01b038516916370a08231916024808301926020929190829003018186803b1580156110f457600080fd5b505afa158015611108573d6000803e3d6000fd5b505050506040513d602081101561111e57600080fd5b50513060009081526001602052604081205491925061113d8888611dd2565b60005490915080611189576040805162461bcd60e51b8152602060048201526011602482015270696e666c75656e63652062616c616e636560781b604482015290519081900360640190fd5b806111948487611a66565b8161119b57fe5b049a50806111a98486611a66565b816111b057fe5b04995060008b1180156111c3575060008a115b6111fe5760405162461bcd60e51b81526004018080602001828103825260238152602001806121bf6023913960400191505060405180910390fd5b6112083084612004565b611213878d8d6118d4565b61121e868d8c6118d4565b604080516370a0823160e01b815230600482015290516001600160a01b038916916370a08231916024808301926020929190829003018186803b15801561126457600080fd5b505afa158015611278573d6000803e3d6000fd5b505050506040513d602081101561128e57600080fd5b5051604080516370a0823160e01b815230600482015290519196506001600160a01b038816916370a0823191602480820192602092909190829003018186803b1580156112da57600080fd5b505afa1580156112ee573d6000803e3d6000fd5b505050506040513d602081101561130457600080fd5b5051935061131485858b8b611b08565b811561133e5760085461133a906001600160701b0380821691600160701b900416611a66565b600b555b604080518c8152602081018c905281516001600160a01b038f169233927fdccd412f0b1252819cb1fd330b93224ca42612892bb3f4f789976e6d81936496929081900390910190a35050505050505050506001600c81905550915091565b604051806040016040528060078152602001660426162792d4c560cc1b81525081565b6000610b59338484611d24565b6103e881565b600c54600114611418576040805162461bcd60e51b815260206004820152600c60248201526b1098589e4e881313d0d2d15160a21b604482015290519081900360640190fd5b6000600c55600654600754600854604080516370a0823160e01b815230600482015290516001600160a01b0394851694909316926114c192859287926114bc926001600160701b03169185916370a0823191602480820192602092909190829003018186803b15801561148a57600080fd5b505afa15801561149e573d6000803e3d6000fd5b505050506040513d60208110156114b457600080fd5b505190611ac6565b6118d4565b61153581846114bc6008600e9054906101000a90046001600160701b03166001600160701b0316856001600160a01b03166370a08231306040518263ffffffff1660e01b815260040180826001600160a01b0316815260200191505060206040518083038186803b15801561148a57600080fd5b50506001600c5550565b6005546001600160a01b031681565b6007546001600160a01b031681565b428410156115a2576040805162461bcd60e51b815260206004820152600d60248201526c1098589e4e8811561412549151609a1b604482015290519081900360640190fd5b6003546001600160a01b0380891660008181526004602090815260408083208054600180820190925582517f6e71edae12b1b97f4d1f60370fef10105fa2faae0126114a169c64845d6126c98186015280840196909652958d166060860152608085018c905260a085019590955260c08085018b90528151808603909101815260e08501825280519083012061190160f01b6101008601526101028501969096526101228085019690965280518085039096018652610142840180825286519683019690962095839052610162840180825286905260ff89166101828501526101a284018890526101c28401879052519193926101e280820193601f1981019281900390910190855afa1580156116bd573d6000803e3d6000fd5b5050604051601f1901519150506001600160a01b038116158015906116f35750886001600160a01b0316816001600160a01b0316145b611744576040805162461bcd60e51b815260206004820152601760248201527f426162793a20494e56414c49445f5349474e4154555245000000000000000000604482015290519081900360640190fd5b61174f898989611cc2565b505050505050505050565b600260209081526000928352604080842090915290825290205481565b600c546001146117bd576040805162461bcd60e51b815260206004820152600c60248201526b1098589e4e881313d0d2d15160a21b604482015290519081900360640190fd5b6000600c55600654604080516370a0823160e01b815230600482015290516118cd926001600160a01b0316916370a08231916024808301926020929190829003018186803b15801561180e57600080fd5b505afa158015611822573d6000803e3d6000fd5b505050506040513d602081101561183857600080fd5b5051600754604080516370a0823160e01b815230600482015290516001600160a01b03909216916370a0823191602480820192602092909190829003018186803b15801561188557600080fd5b505afa158015611899573d6000803e3d6000fd5b505050506040513d60208110156118af57600080fd5b50516008546001600160701b0380821691600160701b900416611b08565b6001600c55565b604080518082018252601981527f7472616e7366657228616464726573732c75696e74323536290000000000000060209182015281516001600160a01b0385811660248301526044808301869052845180840390910181526064909201845291810180516001600160e01b031663a9059cbb60e01b1781529251815160009460609489169392918291908083835b602083106119815780518252601f199092019160209182019101611962565b6001836020036101000a0380198251168184511680821785525050505050509050019150506000604051808303816000865af19150503d80600081146119e3576040519150601f19603f3d011682016040523d82523d6000602084013e6119e8565b606091505b5091509150818015611a16575080511580611a165750808060200190516020811015611a1357600080fd5b50515b611a5f576040805162461bcd60e51b81526020600482015260156024820152741098589e4e881514905394d1915497d19052531151605a1b604482015290519081900360640190fd5b5050505050565b600082611a7557506000610b5d565b82820282848281611a8257fe5b0414611abf5760405162461bcd60e51b81526004018080602001828103825260218152602001806121e26021913960400191505060405180910390fd5b9392505050565b6000611abf83836040518060400160405280601e81526020017f536166654d6174683a207375627472616374696f6e206f766572666c6f770000815250612096565b6001600160701b038411801590611b2657506001600160701b038311155b611b68576040805162461bcd60e51b815260206004820152600e60248201526d426162793a204f564552464c4f5760901b604482015290519081900360640190fd5b60085463ffffffff42811691600160e01b90048116820390811615801590611b9857506001600160701b03841615155b8015611bac57506001600160701b03831615155b15611c17578063ffffffff16611bd485611bc58661212d565b6001600160e01b03169061213f565b600980546001600160e01b03929092169290920201905563ffffffff8116611bff84611bc58761212d565b600a80546001600160e01b0392909216929092020190555b600880546dffffffffffffffffffffffffffff19166001600160701b03888116919091176dffffffffffffffffffffffffffff60701b1916600160701b8883168102919091176001600160e01b0316600160e01b63ffffffff871602179283905560408051848416815291909304909116602082015281517f1c411e9a96e071241c2f21f7726b17ae89e3cab4c78be50e062b03a9fffbbad1929181900390910190a1505050505050565b6001600160a01b03808416600081815260026020908152604080832094871680845294825291829020859055815185815291517f8c5be1e5ebec7d5bd14f71427d1e84f3dd0314c0f7b2291e5b200ac8c7c3b9259281900390910190a3505050565b6001600160a01b038316600090815260016020526040902054611d479082611ac6565b6001600160a01b038085166000908152600160205260408082209390935590841681522054611d769082612164565b6001600160a01b0380841660008181526001602090815260409182902094909455805185815290519193928716927fddf252ad1be2c89b69c2b068fc378daa952ba7f163c4a11628f55a4df523b3ef92918290030190a3505050565b600080600560009054906101000a90046001600160a01b03166001600160a01b031663017e7e586040518163ffffffff1660e01b815260040160206040518083038186803b158015611e2357600080fd5b505afa158015611e37573d6000803e3d6000fd5b505050506040513d6020811015611e4d57600080fd5b5051600b546001600160a01b038216158015945091925090611efe578015611ef9576000611e8a610e756001600160701b03888116908816611a66565b90506000611e9783611f12565b905080821115611ef6576000611eb9611eb08484611ac6565b60005490611a66565b90506000611ed283611ecc866003611a66565b90612164565b90506000818381611edf57fe5b0490508015611ef257611ef28782611f64565b5050505b50505b611f0a565b8015611f0a576000600b555b505092915050565b60006003821115611f55575080600160028204015b81811015611f4f57809150600281828581611f3e57fe5b040181611f4757fe5b049050611f27565b50611f5f565b8115611f5f575060015b919050565b600054611f719082612164565b60009081556001600160a01b038316815260016020526040902054611f969082612164565b6001600160a01b03831660008181526001602090815260408083209490945583518581529351929391927fddf252ad1be2c89b69c2b068fc378daa952ba7f163c4a11628f55a4df523b3ef9281900390910190a35050565b6000818310611ffd5781611abf565b5090919050565b6001600160a01b0382166000908152600160205260409020546120279082611ac6565b6001600160a01b0383166000908152600160205260408120919091555461204e9082611ac6565b60009081556040805183815290516001600160a01b038516917fddf252ad1be2c89b69c2b068fc378daa952ba7f163c4a11628f55a4df523b3ef919081900360200190a35050565b600081848411156121255760405162461bcd60e51b81526004018080602001828103825283818151815260200191508051906020019080838360005b838110156120ea5781810151838201526020016120d2565b50505050905090810190601f1680156121175780820380516001836020036101000a031916815260200191505b509250505060405180910390fd5b505050900390565b6001600160701b0316600160701b0290565b60006001600160701b0382166001600160e01b0384168161215c57fe5b049392505050565b600082820183811015611abf576040805162461bcd60e51b815260206004820152601b60248201527f536166654d6174683a206164646974696f6e206f766572666c6f770000000000604482015290519081900360640190fdfe426162793a20494e53554646494349454e545f4c49515549444954595f4255524e4544536166654d6174683a206d756c7469706c69636174696f6e206f766572666c6f77426162793a20494e53554646494349454e545f4c49515549444954595f4d494e544544a2646970667358221220d62a16710db5d5c1c2b9e5d18733ac66aae6371399c94c4aafaa2d10e4a60cac64736f6c6343000704003350616e63616b654c6962726172793a204944454e544943414c5f414444524553534553a264697066735822122020c6827306c7f8541f5cdfbec171612ffa87cde9e1b053e49d099dfadd84496964736f6c63430007040033",
  "devdoc": {
    "kind": "dev",
    "methods": {},
    "version": 1
  },
  "userdoc": {
    "kind": "user",
    "methods": {},
    "version": 1
  },
  "storageLayout": {
    "storage": [
      {
        "astId": 14543,
        "contract": "contracts/swap/BabyFactory.sol:BabyFactory",
        "label": "feeTo",
        "offset": 0,
        "slot": "0",
        "type": "t_address"
      },
      {
        "astId": 14545,
        "contract": "contracts/swap/BabyFactory.sol:BabyFactory",
        "label": "feeToSetter",
        "offset": 0,
        "slot": "1",
        "type": "t_address"
      },
      {
        "astId": 14551,
        "contract": "contracts/swap/BabyFactory.sol:BabyFactory",
        "label": "getPair",
        "offset": 0,
        "slot": "2",
        "type": "t_mapping(t_address,t_mapping(t_address,t_address))"
      },
      {
        "astId": 14554,
        "contract": "contracts/swap/BabyFactory.sol:BabyFactory",
        "label": "allPairs",
        "offset": 0,
        "slot": "3",
        "type": "t_array(t_address)dyn_storage"
      }
    ],
    "types": {
      "t_address": {
        "encoding": "inplace",
        "label": "address",
        "numberOfBytes": "20"
      },
      "t_array(t_address)dyn_storage": {
        "base": "t_address",
        "encoding": "dynamic_array",
        "label": "address[]",
        "numberOfBytes": "32"
      },
      "t_mapping(t_address,t_address)": {
        "encoding": "mapping",
        "key": "t_address",
        "label": "mapping(address => address)",
        "numberOfBytes": "32",
        "value": "t_address"
      },
      "t_mapping(t_address,t_mapping(t_address,t_address))": {
        "encoding": "mapping",
        "key": "t_address",
        "label": "mapping(address => mapping(address => address))",
        "numberOfBytes": "32",
        "value": "t_mapping(t_address,t_address)"
      }
    }
  }
}