{
  "address": "0x66724C30729E43D4aDA291fF4e83AE251888e88a",
  "abi": [
    {
      "inputs": [
        {
          "internalType": "contract BabyToken",
          "name": "_cake",
          "type": "address"
        },
        {
          "internalType": "uint256",
          "name": "_startBlock",
          "type": "uint256"
        },
        {
          "internalType": "uint256",
          "name": "_endBlock",
          "type": "uint256"
        }
      ],
      "stateMutability": "nonpayable",
      "type": "constructor"
    },
    {
      "anonymous": false,
      "inputs": [
        {
          "indexed": true,
          "internalType": "address",
          "name": "user",
          "type": "address"
        },
        {
          "indexed": true,
          "internalType": "uint256",
          "name": "pid",
          "type": "uint256"
        },
        {
          "indexed": false,
          "internalType": "uint256",
          "name": "amount",
          "type": "uint256"
        }
      ],
      "name": "Claim",
      "type": "event"
    },
    {
      "anonymous": false,
      "inputs": [
        {
          "indexed": true,
          "internalType": "address",
          "name": "user",
          "type": "address"
        },
        {
          "indexed": true,
          "internalType": "uint256",
          "name": "pid",
          "type": "uint256"
        },
        {
          "indexed": false,
          "internalType": "uint256",
          "name": "amount",
          "type": "uint256"
        }
      ],
      "name": "Deposit",
      "type": "event"
    },
    {
      "anonymous": false,
      "inputs": [
        {
          "indexed": true,
          "internalType": "address",
          "name": "previousOwner",
          "type": "address"
        },
        {
          "indexed": true,
          "internalType": "address",
          "name": "newOwner",
          "type": "address"
        }
      ],
      "name": "OwnershipTransferred",
      "type": "event"
    },
    {
      "anonymous": false,
      "inputs": [
        {
          "indexed": true,
          "internalType": "address",
          "name": "user",
          "type": "address"
        },
        {
          "indexed": true,
          "internalType": "uint256",
          "name": "pid",
          "type": "uint256"
        },
        {
          "indexed": false,
          "internalType": "uint256",
          "name": "amount",
          "type": "uint256"
        }
      ],
      "name": "Withdraw",
      "type": "event"
    },
    {
      "inputs": [
        {
          "internalType": "uint256",
          "name": "_allocPoint",
          "type": "uint256"
        },
        {
          "internalType": "contract IBEP20",
          "name": "_lpToken",
          "type": "address"
        }
      ],
      "name": "add",
      "outputs": [],
      "stateMutability": "nonpayable",
      "type": "function"
    },
    {
      "inputs": [],
      "name": "cake",
      "outputs": [
        {
          "internalType": "contract BabyToken",
          "name": "",
          "type": "address"
        }
      ],
      "stateMutability": "view",
      "type": "function"
    },
    {
      "inputs": [
        {
          "internalType": "uint256",
          "name": "_pid",
          "type": "uint256"
        },
        {
          "internalType": "uint256",
          "name": "_amount",
          "type": "uint256"
        }
      ],
      "name": "deposit",
      "outputs": [],
      "stateMutability": "nonpayable",
      "type": "function"
    },
    {
      "inputs": [],
      "name": "endBlock",
      "outputs": [
        {
          "internalType": "uint256",
          "name": "",
          "type": "uint256"
        }
      ],
      "stateMutability": "view",
      "type": "function"
    },
    {
      "inputs": [],
      "name": "owner",
      "outputs": [
        {
          "internalType": "address",
          "name": "",
          "type": "address"
        }
      ],
      "stateMutability": "view",
      "type": "function"
    },
    {
      "inputs": [
        {
          "internalType": "address",
          "name": "_to",
          "type": "address"
        },
        {
          "internalType": "uint256",
          "name": "_amount",
          "type": "uint256"
        }
      ],
      "name": "ownerWithdraw",
      "outputs": [],
      "stateMutability": "nonpayable",
      "type": "function"
    },
    {
      "inputs": [
        {
          "internalType": "uint256",
          "name": "_pid",
          "type": "uint256"
        },
        {
          "internalType": "address",
          "name": "_user",
          "type": "address"
        }
      ],
      "name": "pendingBaby",
      "outputs": [
        {
          "internalType": "uint256",
          "name": "",
          "type": "uint256"
        }
      ],
      "stateMutability": "view",
      "type": "function"
    },
    {
      "inputs": [
        {
          "internalType": "uint256",
          "name": "",
          "type": "uint256"
        }
      ],
      "name": "poolInfo",
      "outputs": [
        {
          "internalType": "contract IBEP20",
          "name": "lpToken",
          "type": "address"
        },
        {
          "internalType": "uint256",
          "name": "allocPoint",
          "type": "uint256"
        },
        {
          "internalType": "uint256",
          "name": "totalAmount",
          "type": "uint256"
        }
      ],
      "stateMutability": "view",
      "type": "function"
    },
    {
      "inputs": [],
      "name": "poolLength",
      "outputs": [
        {
          "internalType": "uint256",
          "name": "",
          "type": "uint256"
        }
      ],
      "stateMutability": "view",
      "type": "function"
    },
    {
      "inputs": [],
      "name": "renounceOwnership",
      "outputs": [],
      "stateMutability": "nonpayable",
      "type": "function"
    },
    {
      "inputs": [
        {
          "internalType": "uint256",
          "name": "blockNumber",
          "type": "uint256"
        }
      ],
      "name": "setEndBlock",
      "outputs": [],
      "stateMutability": "nonpayable",
      "type": "function"
    },
    {
      "inputs": [
        {
          "internalType": "uint256",
          "name": "blockNumber",
          "type": "uint256"
        }
      ],
      "name": "setStartBlock",
      "outputs": [],
      "stateMutability": "nonpayable",
      "type": "function"
    },
    {
      "inputs": [],
      "name": "startBlock",
      "outputs": [
        {
          "internalType": "uint256",
          "name": "",
          "type": "uint256"
        }
      ],
      "stateMutability": "view",
      "type": "function"
    },
    {
      "inputs": [],
      "name": "totalAllocPoint",
      "outputs": [
        {
          "internalType": "uint256",
          "name": "",
          "type": "uint256"
        }
      ],
      "stateMutability": "view",
      "type": "function"
    },
    {
      "inputs": [
        {
          "internalType": "address",
          "name": "newOwner",
          "type": "address"
        }
      ],
      "name": "transferOwnership",
      "outputs": [],
      "stateMutability": "nonpayable",
      "type": "function"
    },
    {
      "inputs": [
        {
          "internalType": "uint256",
          "name": "",
          "type": "uint256"
        },
        {
          "internalType": "address",
          "name": "",
          "type": "address"
        }
      ],
      "name": "userInfo",
      "outputs": [
        {
          "internalType": "uint256",
          "name": "amount",
          "type": "uint256"
        },
        {
          "internalType": "uint256",
          "name": "lastTime",
          "type": "uint256"
        }
      ],
      "stateMutability": "view",
      "type": "function"
    },
    {
      "inputs": [
        {
          "internalType": "uint256",
          "name": "_pid",
          "type": "uint256"
        }
      ],
      "name": "withdraw",
      "outputs": [],
      "stateMutability": "nonpayable",
      "type": "function"
    }
  ],
  "transactionHash": "0x054e6d99128ba12a018ae08f0129c88375420a9347bdae047ccf37d47a0c6a46",
  "args": [
    "0x75d20c86C316b8131289e177511cdbb8c86a2830",
    9249603,
    9307203
  ],
  "solcInputHash": "f7dc11ed8179ba37954a28b416eba6ca",
  "bytecode": "0x6080604052600060045534801561001557600080fd5b506040516113b83803806113b88339818101604052606081101561003857600080fd5b508051602082015160409092015190919060006100536100c9565b600080546001600160a01b0319166001600160a01b0383169081178255604051929350917f8be0079c531659141344cd1fd0a4f28419497f9722a3daafe3b4186f6b6457e0908290a350600180546001600160a01b0319166001600160a01b0394909416939093179092556005556006556100cd565b3390565b6112dc806100dc6000396000f3fe608060405234801561001057600080fd5b506004361061010b5760003560e01c80638da5cb5b116100a2578063d9c88e1411610071578063d9c88e141461028c578063dce17484146102b8578063e2bbb158146102c0578063f2fde38b146102e3578063f35e4a6e146103095761010b565b80638da5cb5b146101da57806393f1a40b146101fe578063b2601ca914610243578063c713aa941461026f5761010b565b80632b8bbbe8116100de5780632b8bbbe81461017f5780632e1a7d4d146101ad57806348cd4cb1146101ca578063715018a6146101d25761010b565b8063081e3eda14610110578063083c63231461012a5780631526fe271461013257806317caf6f114610177575b600080fd5b610118610326565b60408051918252519081900360200190f35b61011861032c565b61014f6004803603602081101561014857600080fd5b5035610332565b604080516001600160a01b039094168452602084019290925282820152519081900360600190f35b61011861036f565b6101ab6004803603604081101561019557600080fd5b50803590602001356001600160a01b0316610375565b005b6101ab600480360360208110156101c357600080fd5b50356104a6565b6101186105e6565b6101ab6105ec565b6101e2610698565b604080516001600160a01b039092168252519081900360200190f35b61022a6004803603604081101561021457600080fd5b50803590602001356001600160a01b03166106a7565b6040805192835260208301919091528051918290030190f35b6101186004803603604081101561025957600080fd5b50803590602001356001600160a01b03166106cb565b6101ab6004803603602081101561028557600080fd5b50356107ff565b6101ab600480360360408110156102a257600080fd5b506001600160a01b038135169060200135610866565b6101e26109b8565b6101ab600480360360408110156102d657600080fd5b50803590602001356109c7565b6101ab600480360360208110156102f957600080fd5b50356001600160a01b0316610b5c565b6101ab6004803603602081101561031f57600080fd5b5035610c5e565b60025490565b60065481565b6002818154811061034257600080fd5b60009182526020909120600390910201805460018201546002909201546001600160a01b03909116925083565b60045481565b61037d610cc5565b6001600160a01b031661038e610698565b6001600160a01b0316146103d7576040805162461bcd60e51b81526020600482018190526024820152600080516020611287833981519152604482015290519081900360640190fd5b6004546103e49083610cc9565b600455604080516060810182526001600160a01b03928316815260208101938452600091810182815260028054600181018255935290517f405787fa12a823e0f2b7631cc41b3ba8828b3321ca811111fa75cd3aa3bb5ace600390930292830180546001600160a01b031916919094161790925591517f405787fa12a823e0f2b7631cc41b3ba8828b3321ca811111fa75cd3aa3bb5acf830155517f405787fa12a823e0f2b7631cc41b3ba8828b3321ca811111fa75cd3aa3bb5ad090910155565b60065443116104f0576040805162461bcd60e51b815260206004820152601160248201527043616e206e6f7420636c61696d206e6f7760781b604482015290519081900360640190fd5b6000600282815481106104ff57fe5b6000918252602080832085845260038083526040808620338088529452852093020193509091906105319085906106cb565b9050801561057b576105433382610d2a565b604080518281529051859133917f34fcbac0073d7c3d388e51312faf357774904998eeb8fca628b9e6f65ee1cbf79181900360200190a35b8154156105e0578154835461059d916001600160a01b03909116903390610dc2565b81546040805191825251859133917ff279e6a1f5e320cca91135676d9cb6e44ca8a08c0b88342bcdb1144f6511b5689181900360200190a3600082554260018301555b50505050565b60055481565b6105f4610cc5565b6001600160a01b0316610605610698565b6001600160a01b03161461064e576040805162461bcd60e51b81526020600482018190526024820152600080516020611287833981519152604482015290519081900360640190fd5b600080546040516001600160a01b03909116907f8be0079c531659141344cd1fd0a4f28419497f9722a3daafe3b4186f6b6457e0908390a3600080546001600160a01b0319169055565b6000546001600160a01b031690565b60036020908152600092835260408084209091529082529020805460019091015482565b600080600284815481106106db57fe5b60009182526020808320878452600380835260408086206001600160a01b03808b16885290855281872060015483516370a0823160e01b81523060048201529351949097029094019750929594909216926370a082319260248082019391829003018186803b15801561074d57600080fd5b505afa158015610761573d6000803e3d6000fd5b505050506040513d602081101561077757600080fd5b505190508061078c57600093505050506107f9565b60006107b16004546107ab866001015485610e1490919063ffffffff16565b90610e6d565b9050806107c55760009450505050506107f9565b60028401546107db5760009450505050506107f9565b600284015483546107f291906107ab908490610e14565b9450505050505b92915050565b610807610cc5565b6001600160a01b0316610818610698565b6001600160a01b031614610861576040805162461bcd60e51b81526020600482018190526024820152600080516020611287833981519152604482015290519081900360640190fd5b600655565b61086e610cc5565b6001600160a01b031661087f610698565b6001600160a01b0316146108c8576040805162461bcd60e51b81526020600482018190526024820152600080516020611287833981519152604482015290519081900360640190fd5b6005544310806108df575060065462062700014310155b610924576040805162461bcd60e51b8152602060048201526011602482015270125313c8185b1c9958591e481cdd185c9d607a1b604482015290519081900360640190fd5b600154604080516370a0823160e01b815230600482015290516000926001600160a01b0316916370a08231916024808301926020929190829003018186803b15801561096f57600080fd5b505afa158015610983573d6000803e3d6000fd5b505050506040513d602081101561099957600080fd5b50519050808211156109a9578091505b6109b38383610d2a565b505050565b6001546001600160a01b031681565b6000600283815481106109d657fe5b600091825260208083208684526003808352604080862033875290935291909320600554929091029092019250431015610a47576040805162461bcd60e51b815260206004820152600d60248201526c24a627903737ba103132b3b4b760991b604482015290519081900360640190fd5b600654431115610a93576040805162461bcd60e51b8152602060048201526012602482015271092989e40c2d8e4cac2c8f240ccd2dcd2e6d60731b604482015290519081900360640190fd5b60008311610ad9576040805162461bcd60e51b815260206004820152600e60248201526d1a5b1b1959d85b08185b5bdd5b9d60921b604482015290519081900360640190fd5b8215610b1f578154610af6906001600160a01b0316333086610eaf565b8054610b029084610cc9565b81554260018201556002820154610b199084610cc9565b60028301555b604080518481529051859133917f90890809c654f11d6e72a28fa60149770a0d11ec6c92319d6ceb2bb0a4ea1a159181900360200190a350505050565b610b64610cc5565b6001600160a01b0316610b75610698565b6001600160a01b031614610bbe576040805162461bcd60e51b81526020600482018190526024820152600080516020611287833981519152604482015290519081900360640190fd5b6001600160a01b038116610c035760405162461bcd60e51b81526004018080602001828103825260268152602001806112406026913960400191505060405180910390fd5b600080546040516001600160a01b03808516939216917f8be0079c531659141344cd1fd0a4f28419497f9722a3daafe3b4186f6b6457e091a3600080546001600160a01b0319166001600160a01b0392909216919091179055565b610c66610cc5565b6001600160a01b0316610c77610698565b6001600160a01b031614610cc0576040805162461bcd60e51b81526020600482018190526024820152600080516020611287833981519152604482015290519081900360640190fd5b600555565b3390565b600082820183811015610d23576040805162461bcd60e51b815260206004820152601b60248201527f536166654d6174683a206164646974696f6e206f766572666c6f770000000000604482015290519081900360640190fd5b9392505050565b600154604080516370a0823160e01b815230600482015290516000926001600160a01b0316916370a08231916024808301926020929190829003018186803b158015610d7557600080fd5b505afa158015610d89573d6000803e3d6000fd5b505050506040513d6020811015610d9f57600080fd5b5051905080821115610daf578091505b6001546109b3906001600160a01b031684845b604080516001600160a01b038416602482015260448082018490528251808303909101815260649091019091526020810180516001600160e01b031663a9059cbb60e01b1790526109b3908490610f05565b600082610e23575060006107f9565b82820282848281610e3057fe5b0414610d235760405162461bcd60e51b81526004018080602001828103825260218152602001806112666021913960400191505060405180910390fd5b6000610d2383836040518060400160405280601a81526020017f536166654d6174683a206469766973696f6e206279207a65726f000000000000815250610fb6565b604080516001600160a01b0380861660248301528416604482015260648082018490528251808303909101815260849091019091526020810180516001600160e01b03166323b872dd60e01b1790526105e09085905b6060610f5a826040518060400160405280602081526020017f5361666542455032303a206c6f772d6c6576656c2063616c6c206661696c6564815250856001600160a01b03166110589092919063ffffffff16565b8051909150156109b357808060200190516020811015610f7957600080fd5b50516109b35760405162461bcd60e51b815260040180806020018281038252602a815260200180611216602a913960400191505060405180910390fd5b600081836110425760405162461bcd60e51b81526004018080602001828103825283818151815260200191508051906020019080838360005b83811015611007578181015183820152602001610fef565b50505050905090810190601f1680156110345780820380516001836020036101000a031916815260200191505b509250505060405180910390fd5b50600083858161104e57fe5b0495945050505050565b6060611067848460008561106f565b949350505050565b606061107a856111dc565b6110cb576040805162461bcd60e51b815260206004820152601d60248201527f416464726573733a2063616c6c20746f206e6f6e2d636f6e7472616374000000604482015290519081900360640190fd5b60006060866001600160a01b031685876040518082805190602001908083835b6020831061110a5780518252601f1990920191602091820191016110eb565b6001836020036101000a03801982511681845116808217855250505050505090500191505060006040518083038185875af1925050503d806000811461116c576040519150601f19603f3d011682016040523d82523d6000602084013e611171565b606091505b509150915081156111855791506110679050565b8051156111955780518082602001fd5b60405162461bcd60e51b8152602060048201818152865160248401528651879391928392604401919085019080838360008315611007578181015183820152602001610fef565b6000813f7fc5d2460186f7233c927e7db2dcc703c0e500b653ca82273b7bfad8045d85a47081811480159061106757505015159291505056fe5361666542455032303a204245503230206f7065726174696f6e20646964206e6f7420737563636565644f776e61626c653a206e6577206f776e657220697320746865207a65726f2061646472657373536166654d6174683a206d756c7469706c69636174696f6e206f766572666c6f774f776e61626c653a2063616c6c6572206973206e6f7420746865206f776e6572a2646970667358221220e5c5e364b28270c211d7814f7fff7af1b017d9e25a46d037bd72a4e97f54544564736f6c63430007040033",
  "devdoc": {
    "kind": "dev",
    "methods": {
      "owner()": {
        "details": "Returns the address of the current owner."
      },
      "renounceOwnership()": {
        "details": "Leaves the contract without owner. It will not be possible to call `onlyOwner` functions anymore. Can only be called by the current owner. NOTE: Renouncing ownership will leave the contract without an owner, thereby removing any functionality that is only available to the owner."
      },
      "transferOwnership(address)": {
        "details": "Transfers ownership of the contract to a new account (`newOwner`). Can only be called by the current owner."
      }
    },
    "version": 1
  },
  "userdoc": {
    "kind": "user",
    "methods": {},
    "version": 1
  },
  "storageLayout": {
    "storage": [
      {
        "astId": 7,
        "contract": "contracts/farm/ILO.sol:ILO",
        "label": "_owner",
        "offset": 0,
        "slot": "0",
        "type": "t_address"
      },
      {
        "astId": 2904,
        "contract": "contracts/farm/ILO.sol:ILO",
        "label": "cake",
        "offset": 0,
        "slot": "1",
        "type": "t_contract(BabyToken)17371"
      },
      {
        "astId": 2907,
        "contract": "contracts/farm/ILO.sol:ILO",
        "label": "poolInfo",
        "offset": 0,
        "slot": "2",
        "type": "t_array(t_struct(PoolInfo)2902_storage)dyn_storage"
      },
      {
        "astId": 2913,
        "contract": "contracts/farm/ILO.sol:ILO",
        "label": "userInfo",
        "offset": 0,
        "slot": "3",
        "type": "t_mapping(t_uint256,t_mapping(t_address,t_struct(UserInfo)2895_storage))"
      },
      {
        "astId": 2916,
        "contract": "contracts/farm/ILO.sol:ILO",
        "label": "totalAllocPoint",
        "offset": 0,
        "slot": "4",
        "type": "t_uint256"
      },
      {
        "astId": 2918,
        "contract": "contracts/farm/ILO.sol:ILO",
        "label": "startBlock",
        "offset": 0,
        "slot": "5",
        "type": "t_uint256"
      },
      {
        "astId": 2920,
        "contract": "contracts/farm/ILO.sol:ILO",
        "label": "endBlock",
        "offset": 0,
        "slot": "6",
        "type": "t_uint256"
      }
    ],
    "types": {
      "t_address": {
        "encoding": "inplace",
        "label": "address",
        "numberOfBytes": "20"
      },
      "t_array(t_struct(PoolInfo)2902_storage)dyn_storage": {
        "base": "t_struct(PoolInfo)2902_storage",
        "encoding": "dynamic_array",
        "label": "struct ILO.PoolInfo[]",
        "numberOfBytes": "32"
      },
      "t_contract(BabyToken)17371": {
        "encoding": "inplace",
        "label": "contract BabyToken",
        "numberOfBytes": "20"
      },
      "t_contract(IBEP20)7973": {
        "encoding": "inplace",
        "label": "contract IBEP20",
        "numberOfBytes": "20"
      },
      "t_mapping(t_address,t_struct(UserInfo)2895_storage)": {
        "encoding": "mapping",
        "key": "t_address",
        "label": "mapping(address => struct ILO.UserInfo)",
        "numberOfBytes": "32",
        "value": "t_struct(UserInfo)2895_storage"
      },
      "t_mapping(t_uint256,t_mapping(t_address,t_struct(UserInfo)2895_storage))": {
        "encoding": "mapping",
        "key": "t_uint256",
        "label": "mapping(uint256 => mapping(address => struct ILO.UserInfo))",
        "numberOfBytes": "32",
        "value": "t_mapping(t_address,t_struct(UserInfo)2895_storage)"
      },
      "t_struct(PoolInfo)2902_storage": {
        "encoding": "inplace",
        "label": "struct ILO.PoolInfo",
        "members": [
          {
            "astId": 2897,
            "contract": "contracts/farm/ILO.sol:ILO",
            "label": "lpToken",
            "offset": 0,
            "slot": "0",
            "type": "t_contract(IBEP20)7973"
          },
          {
            "astId": 2899,
            "contract": "contracts/farm/ILO.sol:ILO",
            "label": "allocPoint",
            "offset": 0,
            "slot": "1",
            "type": "t_uint256"
          },
          {
            "astId": 2901,
            "contract": "contracts/farm/ILO.sol:ILO",
            "label": "totalAmount",
            "offset": 0,
            "slot": "2",
            "type": "t_uint256"
          }
        ],
        "numberOfBytes": "96"
      },
      "t_struct(UserInfo)2895_storage": {
        "encoding": "inplace",
        "label": "struct ILO.UserInfo",
        "members": [
          {
            "astId": 2892,
            "contract": "contracts/farm/ILO.sol:ILO",
            "label": "amount",
            "offset": 0,
            "slot": "0",
            "type": "t_uint256"
          },
          {
            "astId": 2894,
            "contract": "contracts/farm/ILO.sol:ILO",
            "label": "lastTime",
            "offset": 0,
            "slot": "1",
            "type": "t_uint256"
          }
        ],
        "numberOfBytes": "64"
      },
      "t_uint256": {
        "encoding": "inplace",
        "label": "uint256",
        "numberOfBytes": "32"
      }
    }
  }
}