{
  "address": "0x1c233d1927da7676A7c8Ad3b28Ed9A1a9A930aCC",
  "abi": [
    {
      "inputs": [
        {
          "internalType": "address",
          "name": "_factory",
          "type": "address"
        },
        {
          "internalType": "address",
          "name": "_WETH",
          "type": "address"
        }
      ],
      "stateMutability": "nonpayable",
      "type": "constructor"
    },
    {
      "anonymous": false,
      "inputs": [
        {
          "indexed": true,
          "internalType": "address",
          "name": "previousOwner",
          "type": "address"
        },
        {
          "indexed": true,
          "internalType": "address",
          "name": "newOwner",
          "type": "address"
        }
      ],
      "name": "OwnershipTransferred",
      "type": "event"
    },
    {
      "inputs": [],
      "name": "WETH",
      "outputs": [
        {
          "internalType": "address",
          "name": "",
          "type": "address"
        }
      ],
      "stateMutability": "view",
      "type": "function"
    },
    {
      "inputs": [
        {
          "internalType": "address",
          "name": "tokenA",
          "type": "address"
        },
        {
          "internalType": "address",
          "name": "tokenB",
          "type": "address"
        },
        {
          "internalType": "uint256",
          "name": "amountADesired",
          "type": "uint256"
        },
        {
          "internalType": "uint256",
          "name": "amountBDesired",
          "type": "uint256"
        },
        {
          "internalType": "uint256",
          "name": "amountAMin",
          "type": "uint256"
        },
        {
          "internalType": "uint256",
          "name": "amountBMin",
          "type": "uint256"
        },
        {
          "internalType": "address",
          "name": "to",
          "type": "address"
        },
        {
          "internalType": "uint256",
          "name": "deadline",
          "type": "uint256"
        }
      ],
      "name": "addLiquidity",
      "outputs": [
        {
          "internalType": "uint256",
          "name": "amountA",
          "type": "uint256"
        },
        {
          "internalType": "uint256",
          "name": "amountB",
          "type": "uint256"
        },
        {
          "internalType": "uint256",
          "name": "liquidity",
          "type": "uint256"
        }
      ],
      "stateMutability": "nonpayable",
      "type": "function"
    },
    {
      "inputs": [
        {
          "internalType": "address",
          "name": "token",
          "type": "address"
        },
        {
          "internalType": "uint256",
          "name": "amountTokenDesired",
          "type": "uint256"
        },
        {
          "internalType": "uint256",
          "name": "amountTokenMin",
          "type": "uint256"
        },
        {
          "internalType": "uint256",
          "name": "amountETHMin",
          "type": "uint256"
        },
        {
          "internalType": "address",
          "name": "to",
          "type": "address"
        },
        {
          "internalType": "uint256",
          "name": "deadline",
          "type": "uint256"
        }
      ],
      "name": "addLiquidityETH",
      "outputs": [
        {
          "internalType": "uint256",
          "name": "amountToken",
          "type": "uint256"
        },
        {
          "internalType": "uint256",
          "name": "amountETH",
          "type": "uint256"
        },
        {
          "internalType": "uint256",
          "name": "liquidity",
          "type": "uint256"
        }
      ],
      "stateMutability": "payable",
      "type": "function"
    },
    {
      "inputs": [],
      "name": "factory",
      "outputs": [
        {
          "internalType": "address",
          "name": "",
          "type": "address"
        }
      ],
      "stateMutability": "view",
      "type": "function"
    },
    {
      "inputs": [
        {
          "internalType": "uint256",
          "name": "amountOut",
          "type": "uint256"
        },
        {
          "internalType": "uint256",
          "name": "reserveIn",
          "type": "uint256"
        },
        {
          "internalType": "uint256",
          "name": "reserveOut",
          "type": "uint256"
        }
      ],
      "name": "getAmountIn",
      "outputs": [
        {
          "internalType": "uint256",
          "name": "amountIn",
          "type": "uint256"
        }
      ],
      "stateMutability": "pure",
      "type": "function"
    },
    {
      "inputs": [
        {
          "internalType": "uint256",
          "name": "amountIn",
          "type": "uint256"
        },
        {
          "internalType": "uint256",
          "name": "reserveIn",
          "type": "uint256"
        },
        {
          "internalType": "uint256",
          "name": "reserveOut",
          "type": "uint256"
        }
      ],
      "name": "getAmountOut",
      "outputs": [
        {
          "internalType": "uint256",
          "name": "amountOut",
          "type": "uint256"
        }
      ],
      "stateMutability": "pure",
      "type": "function"
    },
    {
      "inputs": [
        {
          "internalType": "uint256",
          "name": "amountOut",
          "type": "uint256"
        },
        {
          "internalType": "address[]",
          "name": "path",
          "type": "address[]"
        }
      ],
      "name": "getAmountsIn",
      "outputs": [
        {
          "internalType": "uint256[]",
          "name": "amounts",
          "type": "uint256[]"
        }
      ],
      "stateMutability": "view",
      "type": "function"
    },
    {
      "inputs": [
        {
          "internalType": "uint256",
          "name": "amountIn",
          "type": "uint256"
        },
        {
          "internalType": "address[]",
          "name": "path",
          "type": "address[]"
        }
      ],
      "name": "getAmountsOut",
      "outputs": [
        {
          "internalType": "uint256[]",
          "name": "amounts",
          "type": "uint256[]"
        }
      ],
      "stateMutability": "view",
      "type": "function"
    },
    {
      "inputs": [],
      "name": "owner",
      "outputs": [
        {
          "internalType": "address",
          "name": "",
          "type": "address"
        }
      ],
      "stateMutability": "view",
      "type": "function"
    },
    {
      "inputs": [
        {
          "internalType": "uint256",
          "name": "amountA",
          "type": "uint256"
        },
        {
          "internalType": "uint256",
          "name": "reserveA",
          "type": "uint256"
        },
        {
          "internalType": "uint256",
          "name": "reserveB",
          "type": "uint256"
        }
      ],
      "name": "quote",
      "outputs": [
        {
          "internalType": "uint256",
          "name": "amountB",
          "type": "uint256"
        }
      ],
      "stateMutability": "pure",
      "type": "function"
    },
    {
      "inputs": [
        {
          "internalType": "address",
          "name": "tokenA",
          "type": "address"
        },
        {
          "internalType": "address",
          "name": "tokenB",
          "type": "address"
        },
        {
          "internalType": "uint256",
          "name": "liquidity",
          "type": "uint256"
        },
        {
          "internalType": "uint256",
          "name": "amountAMin",
          "type": "uint256"
        },
        {
          "internalType": "uint256",
          "name": "amountBMin",
          "type": "uint256"
        },
        {
          "internalType": "address",
          "name": "to",
          "type": "address"
        },
        {
          "internalType": "uint256",
          "name": "deadline",
          "type": "uint256"
        }
      ],
      "name": "removeLiquidity",
      "outputs": [
        {
          "internalType": "uint256",
          "name": "amountA",
          "type": "uint256"
        },
        {
          "internalType": "uint256",
          "name": "amountB",
          "type": "uint256"
        }
      ],
      "stateMutability": "nonpayable",
      "type": "function"
    },
    {
      "inputs": [
        {
          "internalType": "address",
          "name": "token",
          "type": "address"
        },
        {
          "internalType": "uint256",
          "name": "liquidity",
          "type": "uint256"
        },
        {
          "internalType": "uint256",
          "name": "amountTokenMin",
          "type": "uint256"
        },
        {
          "internalType": "uint256",
          "name": "amountETHMin",
          "type": "uint256"
        },
        {
          "internalType": "address",
          "name": "to",
          "type": "address"
        },
        {
          "internalType": "uint256",
          "name": "deadline",
          "type": "uint256"
        }
      ],
      "name": "removeLiquidityETH",
      "outputs": [
        {
          "internalType": "uint256",
          "name": "amountToken",
          "type": "uint256"
        },
        {
          "internalType": "uint256",
          "name": "amountETH",
          "type": "uint256"
        }
      ],
      "stateMutability": "nonpayable",
      "type": "function"
    },
    {
      "inputs": [
        {
          "internalType": "address",
          "name": "token",
          "type": "address"
        },
        {
          "internalType": "uint256",
          "name": "liquidity",
          "type": "uint256"
        },
        {
          "internalType": "uint256",
          "name": "amountTokenMin",
          "type": "uint256"
        },
        {
          "internalType": "uint256",
          "name": "amountETHMin",
          "type": "uint256"
        },
        {
          "internalType": "address",
          "name": "to",
          "type": "address"
        },
        {
          "internalType": "uint256",
          "name": "deadline",
          "type": "uint256"
        }
      ],
      "name": "removeLiquidityETHSupportingFeeOnTransferTokens",
      "outputs": [
        {
          "internalType": "uint256",
          "name": "amountETH",
          "type": "uint256"
        }
      ],
      "stateMutability": "nonpayable",
      "type": "function"
    },
    {
      "inputs": [
        {
          "internalType": "address",
          "name": "token",
          "type": "address"
        },
        {
          "internalType": "uint256",
          "name": "liquidity",
          "type": "uint256"
        },
        {
          "internalType": "uint256",
          "name": "amountTokenMin",
          "type": "uint256"
        },
        {
          "internalType": "uint256",
          "name": "amountETHMin",
          "type": "uint256"
        },
        {
          "internalType": "address",
          "name": "to",
          "type": "address"
        },
        {
          "internalType": "uint256",
          "name": "deadline",
          "type": "uint256"
        },
        {
          "internalType": "bool",
          "name": "approveMax",
          "type": "bool"
        },
        {
          "internalType": "uint8",
          "name": "v",
          "type": "uint8"
        },
        {
          "internalType": "bytes32",
          "name": "r",
          "type": "bytes32"
        },
        {
          "internalType": "bytes32",
          "name": "s",
          "type": "bytes32"
        }
      ],
      "name": "removeLiquidityETHWithPermit",
      "outputs": [
        {
          "internalType": "uint256",
          "name": "amountToken",
          "type": "uint256"
        },
        {
          "internalType": "uint256",
          "name": "amountETH",
          "type": "uint256"
        }
      ],
      "stateMutability": "nonpayable",
      "type": "function"
    },
    {
      "inputs": [
        {
          "internalType": "address",
          "name": "token",
          "type": "address"
        },
        {
          "internalType": "uint256",
          "name": "liquidity",
          "type": "uint256"
        },
        {
          "internalType": "uint256",
          "name": "amountTokenMin",
          "type": "uint256"
        },
        {
          "internalType": "uint256",
          "name": "amountETHMin",
          "type": "uint256"
        },
        {
          "internalType": "address",
          "name": "to",
          "type": "address"
        },
        {
          "internalType": "uint256",
          "name": "deadline",
          "type": "uint256"
        },
        {
          "internalType": "bool",
          "name": "approveMax",
          "type": "bool"
        },
        {
          "internalType": "uint8",
          "name": "v",
          "type": "uint8"
        },
        {
          "internalType": "bytes32",
          "name": "r",
          "type": "bytes32"
        },
        {
          "internalType": "bytes32",
          "name": "s",
          "type": "bytes32"
        }
      ],
      "name": "removeLiquidityETHWithPermitSupportingFeeOnTransferTokens",
      "outputs": [
        {
          "internalType": "uint256",
          "name": "amountETH",
          "type": "uint256"
        }
      ],
      "stateMutability": "nonpayable",
      "type": "function"
    },
    {
      "inputs": [
        {
          "internalType": "address",
          "name": "tokenA",
          "type": "address"
        },
        {
          "internalType": "address",
          "name": "tokenB",
          "type": "address"
        },
        {
          "internalType": "uint256",
          "name": "liquidity",
          "type": "uint256"
        },
        {
          "internalType": "uint256",
          "name": "amountAMin",
          "type": "uint256"
        },
        {
          "internalType": "uint256",
          "name": "amountBMin",
          "type": "uint256"
        },
        {
          "internalType": "address",
          "name": "to",
          "type": "address"
        },
        {
          "internalType": "uint256",
          "name": "deadline",
          "type": "uint256"
        },
        {
          "internalType": "bool",
          "name": "approveMax",
          "type": "bool"
        },
        {
          "internalType": "uint8",
          "name": "v",
          "type": "uint8"
        },
        {
          "internalType": "bytes32",
          "name": "r",
          "type": "bytes32"
        },
        {
          "internalType": "bytes32",
          "name": "s",
          "type": "bytes32"
        }
      ],
      "name": "removeLiquidityWithPermit",
      "outputs": [
        {
          "internalType": "uint256",
          "name": "amountA",
          "type": "uint256"
        },
        {
          "internalType": "uint256",
          "name": "amountB",
          "type": "uint256"
        }
      ],
      "stateMutability": "nonpayable",
      "type": "function"
    },
    {
      "inputs": [],
      "name": "renounceOwnership",
      "outputs": [],
      "stateMutability": "nonpayable",
      "type": "function"
    },
    {
      "inputs": [
        {
          "internalType": "address",
          "name": "_swapMininng",
          "type": "address"
        }
      ],
      "name": "setSwapMining",
      "outputs": [],
      "stateMutability": "nonpayable",
      "type": "function"
    },
    {
      "inputs": [
        {
          "internalType": "uint256",
          "name": "amountOut",
          "type": "uint256"
        },
        {
          "internalType": "address[]",
          "name": "path",
          "type": "address[]"
        },
        {
          "internalType": "address",
          "name": "to",
          "type": "address"
        },
        {
          "internalType": "uint256",
          "name": "deadline",
          "type": "uint256"
        }
      ],
      "name": "swapETHForExactTokens",
      "outputs": [
        {
          "internalType": "uint256[]",
          "name": "amounts",
          "type": "uint256[]"
        }
      ],
      "stateMutability": "payable",
      "type": "function"
    },
    {
      "inputs": [
        {
          "internalType": "uint256",
          "name": "amountOutMin",
          "type": "uint256"
        },
        {
          "internalType": "address[]",
          "name": "path",
          "type": "address[]"
        },
        {
          "internalType": "address",
          "name": "to",
          "type": "address"
        },
        {
          "internalType": "uint256",
          "name": "deadline",
          "type": "uint256"
        }
      ],
      "name": "swapExactETHForTokens",
      "outputs": [
        {
          "internalType": "uint256[]",
          "name": "amounts",
          "type": "uint256[]"
        }
      ],
      "stateMutability": "payable",
      "type": "function"
    },
    {
      "inputs": [
        {
          "internalType": "uint256",
          "name": "amountOutMin",
          "type": "uint256"
        },
        {
          "internalType": "address[]",
          "name": "path",
          "type": "address[]"
        },
        {
          "internalType": "address",
          "name": "to",
          "type": "address"
        },
        {
          "internalType": "uint256",
          "name": "deadline",
          "type": "uint256"
        }
      ],
      "name": "swapExactETHForTokensSupportingFeeOnTransferTokens",
      "outputs": [],
      "stateMutability": "payable",
      "type": "function"
    },
    {
      "inputs": [
        {
          "internalType": "uint256",
          "name": "amountIn",
          "type": "uint256"
        },
        {
          "internalType": "uint256",
          "name": "amountOutMin",
          "type": "uint256"
        },
        {
          "internalType": "address[]",
          "name": "path",
          "type": "address[]"
        },
        {
          "internalType": "address",
          "name": "to",
          "type": "address"
        },
        {
          "internalType": "uint256",
          "name": "deadline",
          "type": "uint256"
        }
      ],
      "name": "swapExactTokensForETH",
      "outputs": [
        {
          "internalType": "uint256[]",
          "name": "amounts",
          "type": "uint256[]"
        }
      ],
      "stateMutability": "nonpayable",
      "type": "function"
    },
    {
      "inputs": [
        {
          "internalType": "uint256",
          "name": "amountIn",
          "type": "uint256"
        },
        {
          "internalType": "uint256",
          "name": "amountOutMin",
          "type": "uint256"
        },
        {
          "internalType": "address[]",
          "name": "path",
          "type": "address[]"
        },
        {
          "internalType": "address",
          "name": "to",
          "type": "address"
        },
        {
          "internalType": "uint256",
          "name": "deadline",
          "type": "uint256"
        }
      ],
      "name": "swapExactTokensForETHSupportingFeeOnTransferTokens",
      "outputs": [],
      "stateMutability": "nonpayable",
      "type": "function"
    },
    {
      "inputs": [
        {
          "internalType": "uint256",
          "name": "amountIn",
          "type": "uint256"
        },
        {
          "internalType": "uint256",
          "name": "amountOutMin",
          "type": "uint256"
        },
        {
          "internalType": "address[]",
          "name": "path",
          "type": "address[]"
        },
        {
          "internalType": "address",
          "name": "to",
          "type": "address"
        },
        {
          "internalType": "uint256",
          "name": "deadline",
          "type": "uint256"
        }
      ],
      "name": "swapExactTokensForTokens",
      "outputs": [
        {
          "internalType": "uint256[]",
          "name": "amounts",
          "type": "uint256[]"
        }
      ],
      "stateMutability": "nonpayable",
      "type": "function"
    },
    {
      "inputs": [
        {
          "internalType": "uint256",
          "name": "amountIn",
          "type": "uint256"
        },
        {
          "internalType": "uint256",
          "name": "amountOutMin",
          "type": "uint256"
        },
        {
          "internalType": "address[]",
          "name": "path",
          "type": "address[]"
        },
        {
          "internalType": "address",
          "name": "to",
          "type": "address"
        },
        {
          "internalType": "uint256",
          "name": "deadline",
          "type": "uint256"
        }
      ],
      "name": "swapExactTokensForTokensSupportingFeeOnTransferTokens",
      "outputs": [],
      "stateMutability": "nonpayable",
      "type": "function"
    },
    {
      "inputs": [],
      "name": "swapMining",
      "outputs": [
        {
          "internalType": "address",
          "name": "",
          "type": "address"
        }
      ],
      "stateMutability": "view",
      "type": "function"
    },
    {
      "inputs": [
        {
          "internalType": "uint256",
          "name": "amountOut",
          "type": "uint256"
        },
        {
          "internalType": "uint256",
          "name": "amountInMax",
          "type": "uint256"
        },
        {
          "internalType": "address[]",
          "name": "path",
          "type": "address[]"
        },
        {
          "internalType": "address",
          "name": "to",
          "type": "address"
        },
        {
          "internalType": "uint256",
          "name": "deadline",
          "type": "uint256"
        }
      ],
      "name": "swapTokensForExactETH",
      "outputs": [
        {
          "internalType": "uint256[]",
          "name": "amounts",
          "type": "uint256[]"
        }
      ],
      "stateMutability": "nonpayable",
      "type": "function"
    },
    {
      "inputs": [
        {
          "internalType": "uint256",
          "name": "amountOut",
          "type": "uint256"
        },
        {
          "internalType": "uint256",
          "name": "amountInMax",
          "type": "uint256"
        },
        {
          "internalType": "address[]",
          "name": "path",
          "type": "address[]"
        },
        {
          "internalType": "address",
          "name": "to",
          "type": "address"
        },
        {
          "internalType": "uint256",
          "name": "deadline",
          "type": "uint256"
        }
      ],
      "name": "swapTokensForExactTokens",
      "outputs": [
        {
          "internalType": "uint256[]",
          "name": "amounts",
          "type": "uint256[]"
        }
      ],
      "stateMutability": "nonpayable",
      "type": "function"
    },
    {
      "inputs": [
        {
          "internalType": "address",
          "name": "newOwner",
          "type": "address"
        }
      ],
      "name": "transferOwnership",
      "outputs": [],
      "stateMutability": "nonpayable",
      "type": "function"
    },
    {
      "stateMutability": "payable",
      "type": "receive"
    }
  ],
  "transactionHash": "0xd520098dbb15274f4606b9a8a1e2745c49ece5abda81c7480326fd2c8822a1c5",
  "args": [
    "0x971Ca053E83Dc4ba794b2D8e3BaB5e7041c44004",
    "0xBD63eA93A81B8D5e4fa4E3443c7bED6b84FC00C2"
  ],
  "solcInputHash": "f88cb34825f4720e33b7e4839508bfd7",
  "bytecode": "0x60c06040523480156200001157600080fd5b5060405162004e1438038062004e14833981810160405260408110156200003757600080fd5b50805160209091015160006200004c620000b5565b600080546001600160a01b0319166001600160a01b0383169081178255604051929350917f8be0079c531659141344cd1fd0a4f28419497f9722a3daafe3b4186f6b6457e0908290a3506001600160601b0319606092831b8116608052911b1660a052620000b9565b3390565b60805160601c60a05160601c614c2d620001e7600039806101d65280610e005280610e3b5280610f32528061115052806114da52806116e55280611b525280611c2d5280611d075280611dd55280611f1b5280611fa352806121ee5280612269528061231d52806123e9528061247e52806124f25280612a265280612da45280612dfa5280612e2e5280612ea25280613030528061317352806131fb525080610fc052806110975280611216528061124f528061138a528061156852806116c352806118335280611e685280611fd5528061212f5280612524528061276252806129ab52806129d45280612a045280612b715280612dd852806130c3528061322d5280613b595280613b9c5280613e7a5280614095528061452152806145da528061468d5250614c2d6000f3fe6080604052600436106101c65760003560e01c806385f8c259116100f7578063baa2abde11610095578063e8e3370011610064578063e8e3370014610c36578063f2fde38b14610cb6578063f305d71914610ce9578063fb3bdb4114610d2f576101ff565b8063baa2abde14610a9c578063c45a015514610af9578063d06ca61f14610b0e578063ded9382a14610bc3576101ff565b8063ad5c4648116100d1578063ad5c46481461097a578063ad615dec1461098f578063af2979eb146109c5578063b6f9de9514610a18576101ff565b806385f8c259146108995780638803dbee146108cf5780638da5cb5b14610965576101ff565b80634e5eda11116101645780635c11d7951161013e5780635c11d795146106d4578063715018a61461076a578063791ac9471461077f5780637ff36ab514610815576101ff565b80634e5eda11146105fd5780634f8871831461062e5780635b0d598414610661576101ff565b80631f00ca74116101a05780631f00ca741461039e5780632195995c1461045357806338ed1739146104d15780634a25d94a14610567576101ff565b806302751cec14610204578063054d50d41461027057806318cbafe5146102b8576101ff565b366101ff57336001600160a01b037f000000000000000000000000000000000000000000000000000000000000000016146101fd57fe5b005b600080fd5b34801561021057600080fd5b50610257600480360360c081101561022757600080fd5b506001600160a01b0381358116916020810135916040820135916060810135916080820135169060a00135610db3565b6040805192835260208301919091528051918290030190f35b34801561027c57600080fd5b506102a66004803603606081101561029357600080fd5b5080359060208101359060400135610ecd565b60408051918252519081900360200190f35b3480156102c457600080fd5b5061034e600480360360a08110156102db57600080fd5b813591602081013591810190606081016040820135600160201b81111561030157600080fd5b82018360208201111561031357600080fd5b803590602001918460208302840111600160201b8311171561033457600080fd5b91935091506001600160a01b038135169060200135610ee2565b60408051602080825283518183015283519192839290830191858101910280838360005b8381101561038a578181015183820152602001610372565b505050509050019250505060405180910390f35b3480156103aa57600080fd5b5061034e600480360360408110156103c157600080fd5b81359190810190604081016020820135600160201b8111156103e257600080fd5b8201836020820111156103f457600080fd5b803590602001918460208302840111600160201b8311171561041557600080fd5b91908080602002602001604051908101604052809392919081815260200183836020028082843760009201919091525092955061120f945050505050565b34801561045f57600080fd5b50610257600480360361016081101561047757600080fd5b506001600160a01b038135811691602081013582169160408201359160608101359160808201359160a08101359091169060c08101359060e081013515159060ff6101008201351690610120810135906101400135611245565b3480156104dd57600080fd5b5061034e600480360360a08110156104f457600080fd5b813591602081013591810190606081016040820135600160201b81111561051a57600080fd5b82018360208201111561052c57600080fd5b803590602001918460208302840111600160201b8311171561054d57600080fd5b91935091506001600160a01b03813516906020013561133f565b34801561057357600080fd5b5061034e600480360360a081101561058a57600080fd5b813591602081013591810190606081016040820135600160201b8111156105b057600080fd5b8201836020820111156105c257600080fd5b803590602001918460208302840111600160201b831117156105e357600080fd5b91935091506001600160a01b03813516906020013561148a565b34801561060957600080fd5b50610612611616565b604080516001600160a01b039092168252519081900360200190f35b34801561063a57600080fd5b506101fd6004803603602081101561065157600080fd5b50356001600160a01b0316611625565b34801561066d57600080fd5b506102a6600480360361014081101561068557600080fd5b506001600160a01b0381358116916020810135916040820135916060810135916080820135169060a08101359060c081013515159060ff60e082013516906101008101359061012001356116bb565b3480156106e057600080fd5b506101fd600480360360a08110156106f757600080fd5b813591602081013591810190606081016040820135600160201b81111561071d57600080fd5b82018360208201111561072f57600080fd5b803590602001918460208302840111600160201b8311171561075057600080fd5b91935091506001600160a01b0381351690602001356117c9565b34801561077657600080fd5b506101fd611a46565b34801561078b57600080fd5b506101fd600480360360a08110156107a257600080fd5b813591602081013591810190606081016040820135600160201b8111156107c857600080fd5b8201836020820111156107da57600080fd5b803590602001918460208302840111600160201b831117156107fb57600080fd5b91935091506001600160a01b038135169060200135611b04565b61034e6004803603608081101561082b57600080fd5b81359190810190604081016020820135600160201b81111561084c57600080fd5b82018360208201111561085e57600080fd5b803590602001918460208302840111600160201b8311171561087f57600080fd5b91935091506001600160a01b038135169060200135611d8d565b3480156108a557600080fd5b506102a6600480360360608110156108bc57600080fd5b50803590602081013590604001356120d7565b3480156108db57600080fd5b5061034e600480360360a08110156108f257600080fd5b813591602081013591810190606081016040820135600160201b81111561091857600080fd5b82018360208201111561092a57600080fd5b803590602001918460208302840111600160201b8311171561094b57600080fd5b91935091506001600160a01b0381351690602001356120e4565b34801561097157600080fd5b506106126121dd565b34801561098657600080fd5b506106126121ec565b34801561099b57600080fd5b506102a6600480360360608110156109b257600080fd5b5080359060208101359060400135612210565b3480156109d157600080fd5b506102a6600480360360c08110156109e857600080fd5b506001600160a01b0381358116916020810135916040820135916060810135916080820135169060a0013561221d565b6101fd60048036036080811015610a2e57600080fd5b81359190810190604081016020820135600160201b811115610a4f57600080fd5b820183602082011115610a6157600080fd5b803590602001918460208302840111600160201b83111715610a8257600080fd5b91935091506001600160a01b0381351690602001356123a3565b348015610aa857600080fd5b50610257600480360360e0811015610abf57600080fd5b506001600160a01b038135811691602081013582169160408201359160608101359160808201359160a08101359091169060c00135612714565b348015610b0557600080fd5b506106126129a9565b348015610b1a57600080fd5b5061034e60048036036040811015610b3157600080fd5b81359190810190604081016020820135600160201b811115610b5257600080fd5b820183602082011115610b6457600080fd5b803590602001918460208302840111600160201b83111715610b8557600080fd5b9190808060200260200160405190810160405280939291908181526020018383602002808284376000920191909152509295506129cd945050505050565b348015610bcf57600080fd5b506102576004803603610140811015610be757600080fd5b506001600160a01b0381358116916020810135916040820135916060810135916080820135169060a08101359060c081013515159060ff60e082013516906101008101359061012001356129fa565b348015610c4257600080fd5b50610c986004803603610100811015610c5a57600080fd5b506001600160a01b038135811691602081013582169160408201359160608101359160808201359160a08101359160c0820135169060e00135612b0e565b60408051938452602084019290925282820152519081900360600190f35b348015610cc257600080fd5b506101fd60048036036020811015610cd957600080fd5b50356001600160a01b0316612c41565b610c98600480360360c0811015610cff57600080fd5b506001600160a01b0381358116916020810135916040820135916060810135916080820135169060a00135612d55565b61034e60048036036080811015610d4557600080fd5b81359190810190604081016020820135600160201b811115610d6657600080fd5b820183602082011115610d7857600080fd5b803590602001918460208302840111600160201b83111715610d9957600080fd5b91935091506001600160a01b038135169060200135612fe8565b6000808242811015610dfa576040805162461bcd60e51b81526020600482015260136024820152600080516020614aa1833981519152604482015290519081900360640190fd5b610e29897f00000000000000000000000000000000000000000000000000000000000000008a8a8a308a612714565b9093509150610e39898685613361565b7f00000000000000000000000000000000000000000000000000000000000000006001600160a01b0316632e1a7d4d836040518263ffffffff1660e01b815260040180828152602001915050600060405180830381600087803b158015610e9f57600080fd5b505af1158015610eb3573d6000803e3d6000fd5b50505050610ec185836134cb565b50965096945050505050565b6000610eda8484846135c3565b949350505050565b60608142811015610f28576040805162461bcd60e51b81526020600482015260136024820152600080516020614aa1833981519152604482015290519081900360640190fd5b6001600160a01b037f00000000000000000000000000000000000000000000000000000000000000001686866000198101818110610f6257fe5b905060200201356001600160a01b03166001600160a01b031614610fbb576040805162461bcd60e51b81526020600482015260186024820152600080516020614b6b833981519152604482015290519081900360640190fd5b6110197f00000000000000000000000000000000000000000000000000000000000000008988888080602002602001604051908101604052809392919081815260200183836020028082843760009201919091525061369b92505050565b9150868260018451038151811061102c57fe5b602002602001015110156110715760405162461bcd60e51b8152600401808060200182810382526026815260200180614a516026913960400191505060405180910390fd5b61110f8686600081811061108157fe5b905060200201356001600160a01b0316336110f57f00000000000000000000000000000000000000000000000000000000000000008a8a60008181106110c357fe5b905060200201356001600160a01b03168b8b60018181106110e057fe5b905060200201356001600160a01b03166137e7565b8560008151811061110257fe5b60200260200101516138a7565b61114e82878780806020026020016040519081016040528093929190818152602001838360200280828437600092019190915250309250613a04915050565b7f00000000000000000000000000000000000000000000000000000000000000006001600160a01b0316632e1a7d4d8360018551038151811061118d57fe5b60200260200101516040518263ffffffff1660e01b815260040180828152602001915050600060405180830381600087803b1580156111cb57600080fd5b505af11580156111df573d6000803e3d6000fd5b5050505061120484836001855103815181106111f757fe5b60200260200101516134cb565b509695505050505050565b606061123c7f00000000000000000000000000000000000000000000000000000000000000008484613ce7565b90505b92915050565b60008060006112757f00000000000000000000000000000000000000000000000000000000000000008f8f6137e7565b9050600087611284578c611288565b6000195b6040805163d505accf60e01b815233600482015230602482015260448101839052606481018c905260ff8a16608482015260a4810189905260c4810188905290519192506001600160a01b0384169163d505accf9160e48082019260009290919082900301818387803b1580156112fe57600080fd5b505af1158015611312573d6000803e3d6000fd5b505050506113258f8f8f8f8f8f8f612714565b809450819550505050509b509b9950505050505050505050565b60608142811015611385576040805162461bcd60e51b81526020600482015260136024820152600080516020614aa1833981519152604482015290519081900360640190fd5b6113e37f00000000000000000000000000000000000000000000000000000000000000008988888080602002602001604051908101604052809392919081815260200183836020028082843760009201919091525061369b92505050565b915086826001845103815181106113f657fe5b6020026020010151101561143b5760405162461bcd60e51b8152600401808060200182810382526026815260200180614a516026913960400191505060405180910390fd5b61144b8686600081811061108157fe5b61120482878780806020026020016040519081016040528093929190818152602001838360200280828437600092019190915250899250613a04915050565b606081428110156114d0576040805162461bcd60e51b81526020600482015260136024820152600080516020614aa1833981519152604482015290519081900360640190fd5b6001600160a01b037f0000000000000000000000000000000000000000000000000000000000000000168686600019810181811061150a57fe5b905060200201356001600160a01b03166001600160a01b031614611563576040805162461bcd60e51b81526020600482015260186024820152600080516020614b6b833981519152604482015290519081900360640190fd5b6115c17f000000000000000000000000000000000000000000000000000000000000000089888880806020026020016040519081016040528093929190818152602001838360200280828437600092019190915250613ce792505050565b915086826000815181106115d157fe5b602002602001015111156110715760405162461bcd60e51b8152600401808060200182810382526022815260200180614ac16022913960400191505060405180910390fd5b6001546001600160a01b031681565b61162d613e1f565b6001600160a01b031661163e6121dd565b6001600160a01b031614611699576040805162461bcd60e51b815260206004820181905260248201527f4f776e61626c653a2063616c6c6572206973206e6f7420746865206f776e6572604482015290519081900360640190fd5b600180546001600160a01b0319166001600160a01b0392909216919091179055565b6000806117097f00000000000000000000000000000000000000000000000000000000000000008d7f00000000000000000000000000000000000000000000000000000000000000006137e7565b9050600086611718578b61171c565b6000195b6040805163d505accf60e01b815233600482015230602482015260448101839052606481018b905260ff8916608482015260a4810188905260c4810187905290519192506001600160a01b0384169163d505accf9160e48082019260009290919082900301818387803b15801561179257600080fd5b505af11580156117a6573d6000803e3d6000fd5b505050506117b88d8d8d8d8d8d61221d565b9d9c50505050505050505050505050565b804281101561180d576040805162461bcd60e51b81526020600482015260136024820152600080516020614aa1833981519152604482015290519081900360640190fd5b6118828585600081811061181d57fe5b905060200201356001600160a01b03163361187c7f00000000000000000000000000000000000000000000000000000000000000008989600081811061185f57fe5b905060200201356001600160a01b03168a8a60018181106110e057fe5b8a6138a7565b60008585600019810181811061189457fe5b905060200201356001600160a01b03166001600160a01b03166370a08231856040518263ffffffff1660e01b815260040180826001600160a01b0316815260200191505060206040518083038186803b1580156118f057600080fd5b505afa158015611904573d6000803e3d6000fd5b505050506040513d602081101561191a57600080fd5b5051604080516020888102828101820190935288825292935061195c929091899189918291850190849080828437600092019190915250889250613e23915050565b866119ff828888600019810181811061197157fe5b905060200201356001600160a01b03166001600160a01b03166370a08231886040518263ffffffff1660e01b815260040180826001600160a01b0316815260200191505060206040518083038186803b1580156119cd57600080fd5b505afa1580156119e1573d6000803e3d6000fd5b505050506040513d60208110156119f757600080fd5b5051906141ca565b1015611a3c5760405162461bcd60e51b8152600401808060200182810382526026815260200180614a516026913960400191505060405180910390fd5b5050505050505050565b611a4e613e1f565b6001600160a01b0316611a5f6121dd565b6001600160a01b031614611aba576040805162461bcd60e51b815260206004820181905260248201527f4f776e61626c653a2063616c6c6572206973206e6f7420746865206f776e6572604482015290519081900360640190fd5b600080546040516001600160a01b03909116907f8be0079c531659141344cd1fd0a4f28419497f9722a3daafe3b4186f6b6457e0908390a3600080546001600160a01b0319169055565b8042811015611b48576040805162461bcd60e51b81526020600482015260136024820152600080516020614aa1833981519152604482015290519081900360640190fd5b6001600160a01b037f00000000000000000000000000000000000000000000000000000000000000001685856000198101818110611b8257fe5b905060200201356001600160a01b03166001600160a01b031614611bdb576040805162461bcd60e51b81526020600482015260186024820152600080516020614b6b833981519152604482015290519081900360640190fd5b611beb8585600081811061181d57fe5b611c29858580806020026020016040519081016040528093929190818152602001838360200280828437600092019190915250309250613e23915050565b60007f00000000000000000000000000000000000000000000000000000000000000006001600160a01b03166370a08231306040518263ffffffff1660e01b815260040180826001600160a01b0316815260200191505060206040518083038186803b158015611c9857600080fd5b505afa158015611cac573d6000803e3d6000fd5b505050506040513d6020811015611cc257600080fd5b5051905086811015611d055760405162461bcd60e51b8152600401808060200182810382526026815260200180614a516026913960400191505060405180910390fd5b7f00000000000000000000000000000000000000000000000000000000000000006001600160a01b0316632e1a7d4d826040518263ffffffff1660e01b815260040180828152602001915050600060405180830381600087803b158015611d6b57600080fd5b505af1158015611d7f573d6000803e3d6000fd5b50505050611a3c84826134cb565b60608142811015611dd3576040805162461bcd60e51b81526020600482015260136024820152600080516020614aa1833981519152604482015290519081900360640190fd5b7f00000000000000000000000000000000000000000000000000000000000000006001600160a01b031686866000818110611e0a57fe5b905060200201356001600160a01b03166001600160a01b031614611e63576040805162461bcd60e51b81526020600482015260186024820152600080516020614b6b833981519152604482015290519081900360640190fd5b611ec17f00000000000000000000000000000000000000000000000000000000000000003488888080602002602001604051908101604052809392919081815260200183836020028082843760009201919091525061369b92505050565b91508682600184510381518110611ed457fe5b60200260200101511015611f195760405162461bcd60e51b8152600401808060200182810382526026815260200180614a516026913960400191505060405180910390fd5b7f00000000000000000000000000000000000000000000000000000000000000006001600160a01b031663d0e30db083600081518110611f5557fe5b60200260200101516040518263ffffffff1660e01b81526004016000604051808303818588803b158015611f8857600080fd5b505af1158015611f9c573d6000803e3d6000fd5b50505050507f00000000000000000000000000000000000000000000000000000000000000006001600160a01b031663a9059cbb6120017f00000000000000000000000000000000000000000000000000000000000000008989600081811061185f57fe5b8460008151811061200e57fe5b60200260200101516040518363ffffffff1660e01b815260040180836001600160a01b0316815260200182815260200192505050602060405180830381600087803b15801561205c57600080fd5b505af1158015612070573d6000803e3d6000fd5b505050506040513d602081101561208657600080fd5b505161208e57fe5b6120cd82878780806020026020016040519081016040528093929190818152602001838360200280828437600092019190915250899250613a04915050565b5095945050505050565b6000610eda84848461420c565b6060814281101561212a576040805162461bcd60e51b81526020600482015260136024820152600080516020614aa1833981519152604482015290519081900360640190fd5b6121887f000000000000000000000000000000000000000000000000000000000000000089888880806020026020016040519081016040528093929190818152602001838360200280828437600092019190915250613ce792505050565b9150868260008151811061219857fe5b6020026020010151111561143b5760405162461bcd60e51b8152600401808060200182810382526022815260200180614ac16022913960400191505060405180910390fd5b6000546001600160a01b031690565b7f000000000000000000000000000000000000000000000000000000000000000081565b6000610eda8484846142e4565b60008142811015612263576040805162461bcd60e51b81526020600482015260136024820152600080516020614aa1833981519152604482015290519081900360640190fd5b612292887f00000000000000000000000000000000000000000000000000000000000000008989893089612714565b90508092505061231b88858a6001600160a01b03166370a08231306040518263ffffffff1660e01b815260040180826001600160a01b0316815260200191505060206040518083038186803b1580156122ea57600080fd5b505afa1580156122fe573d6000803e3d6000fd5b505050506040513d602081101561231457600080fd5b5051613361565b7f00000000000000000000000000000000000000000000000000000000000000006001600160a01b0316632e1a7d4d836040518263ffffffff1660e01b815260040180828152602001915050600060405180830381600087803b15801561238157600080fd5b505af1158015612395573d6000803e3d6000fd5b5050505061120484836134cb565b80428110156123e7576040805162461bcd60e51b81526020600482015260136024820152600080516020614aa1833981519152604482015290519081900360640190fd5b7f00000000000000000000000000000000000000000000000000000000000000006001600160a01b03168585600081811061241e57fe5b905060200201356001600160a01b03166001600160a01b031614612477576040805162461bcd60e51b81526020600482015260186024820152600080516020614b6b833981519152604482015290519081900360640190fd5b60003490507f00000000000000000000000000000000000000000000000000000000000000006001600160a01b031663d0e30db0826040518263ffffffff1660e01b81526004016000604051808303818588803b1580156124d757600080fd5b505af11580156124eb573d6000803e3d6000fd5b50505050507f00000000000000000000000000000000000000000000000000000000000000006001600160a01b031663a9059cbb6125507f00000000000000000000000000000000000000000000000000000000000000008989600081811061185f57fe5b836040518363ffffffff1660e01b815260040180836001600160a01b0316815260200182815260200192505050602060405180830381600087803b15801561259757600080fd5b505af11580156125ab573d6000803e3d6000fd5b505050506040513d60208110156125c157600080fd5b50516125c957fe5b6000868660001981018181106125db57fe5b905060200201356001600160a01b03166001600160a01b03166370a08231866040518263ffffffff1660e01b815260040180826001600160a01b0316815260200191505060206040518083038186803b15801561263757600080fd5b505afa15801561264b573d6000803e3d6000fd5b505050506040513d602081101561266157600080fd5b505160408051602089810282810182019093528982529293506126a39290918a918a918291850190849080828437600092019190915250899250613e23915050565b876119ff82898960001981018181106126b857fe5b905060200201356001600160a01b03166001600160a01b03166370a08231896040518263ffffffff1660e01b815260040180826001600160a01b0316815260200191505060206040518083038186803b1580156119cd57600080fd5b600080824281101561275b576040805162461bcd60e51b81526020600482015260136024820152600080516020614aa1833981519152604482015290519081900360640190fd5b60006127887f00000000000000000000000000000000000000000000000000000000000000008c8c6137e7565b90506127b16040518060400160405280600681526020016574657431323360d01b81525061438a565b604080516323b872dd60e01b81523360048201526001600160a01b03831660248201819052604482018c905291516323b872dd916064808201926020929091908290030181600087803b15801561280757600080fd5b505af115801561281b573d6000803e3d6000fd5b505050506040513d602081101561283157600080fd5b50506040805180820190915260078152661d195d0c4c8ccd60ca1b602082015261285a9061438a565b600080826001600160a01b03166389afcb44896040518263ffffffff1660e01b815260040180826001600160a01b031681526020019150506040805180830381600087803b1580156128ab57600080fd5b505af11580156128bf573d6000803e3d6000fd5b505050506040513d60408110156128d557600080fd5b508051602090910151909250905060006128ef8e8e614433565b509050806001600160a01b03168e6001600160a01b031614612912578183612915565b82825b90975095508a8710156129595760405162461bcd60e51b8152600401808060200182810382526021815260200180614b276021913960400191505060405180910390fd5b898610156129985760405162461bcd60e51b81526004018080602001828103825260218152602001806149e16021913960400191505060405180910390fd5b505050505097509795505050505050565b7f000000000000000000000000000000000000000000000000000000000000000081565b606061123c7f0000000000000000000000000000000000000000000000000000000000000000848461369b565b6000806000612a4a7f00000000000000000000000000000000000000000000000000000000000000008e7f00000000000000000000000000000000000000000000000000000000000000006137e7565b9050600087612a59578c612a5d565b6000195b6040805163d505accf60e01b815233600482015230602482015260448101839052606481018c905260ff8a16608482015260a4810189905260c4810188905290519192506001600160a01b0384169163d505accf9160e48082019260009290919082900301818387803b158015612ad357600080fd5b505af1158015612ae7573d6000803e3d6000fd5b50505050612af98e8e8e8e8e8e610db3565b909f909e509c50505050505050505050505050565b60008060008342811015612b57576040805162461bcd60e51b81526020600482015260136024820152600080516020614aa1833981519152604482015290519081900360640190fd5b612b658c8c8c8c8c8c614511565b90945092506000612b977f00000000000000000000000000000000000000000000000000000000000000008e8e6137e7565b9050612ba58d3383886138a7565b612bb18c3383876138a7565b806001600160a01b0316636a627842886040518263ffffffff1660e01b815260040180826001600160a01b03168152602001915050602060405180830381600087803b158015612c0057600080fd5b505af1158015612c14573d6000803e3d6000fd5b505050506040513d6020811015612c2a57600080fd5b5051949d939c50939a509198505050505050505050565b612c49613e1f565b6001600160a01b0316612c5a6121dd565b6001600160a01b031614612cb5576040805162461bcd60e51b815260206004820181905260248201527f4f776e61626c653a2063616c6c6572206973206e6f7420746865206f776e6572604482015290519081900360640190fd5b6001600160a01b038116612cfa5760405162461bcd60e51b8152600401808060200182810382526026815260200180614a2b6026913960400191505060405180910390fd5b600080546040516001600160a01b03808516939216917f8be0079c531659141344cd1fd0a4f28419497f9722a3daafe3b4186f6b6457e091a3600080546001600160a01b0319166001600160a01b0392909216919091179055565b60008060008342811015612d9e576040805162461bcd60e51b81526020600482015260136024820152600080516020614aa1833981519152604482015290519081900360640190fd5b612dcc8a7f00000000000000000000000000000000000000000000000000000000000000008b348c8c614511565b90945092506000612e1e7f00000000000000000000000000000000000000000000000000000000000000008c7f00000000000000000000000000000000000000000000000000000000000000006137e7565b9050612e2c8b3383886138a7565b7f00000000000000000000000000000000000000000000000000000000000000006001600160a01b031663d0e30db0856040518263ffffffff1660e01b81526004016000604051808303818588803b158015612e8757600080fd5b505af1158015612e9b573d6000803e3d6000fd5b50505050507f00000000000000000000000000000000000000000000000000000000000000006001600160a01b031663a9059cbb82866040518363ffffffff1660e01b815260040180836001600160a01b0316815260200182815260200192505050602060405180830381600087803b158015612f1757600080fd5b505af1158015612f2b573d6000803e3d6000fd5b505050506040513d6020811015612f4157600080fd5b5051612f4957fe5b806001600160a01b0316636a627842886040518263ffffffff1660e01b815260040180826001600160a01b03168152602001915050602060405180830381600087803b158015612f9857600080fd5b505af1158015612fac573d6000803e3d6000fd5b505050506040513d6020811015612fc257600080fd5b5051925034841015612fda57612fda338534036134cb565b505096509650969350505050565b6060814281101561302e576040805162461bcd60e51b81526020600482015260136024820152600080516020614aa1833981519152604482015290519081900360640190fd5b7f00000000000000000000000000000000000000000000000000000000000000006001600160a01b03168686600081811061306557fe5b905060200201356001600160a01b03166001600160a01b0316146130be576040805162461bcd60e51b81526020600482015260186024820152600080516020614b6b833981519152604482015290519081900360640190fd5b61311c7f000000000000000000000000000000000000000000000000000000000000000088888880806020026020016040519081016040528093929190818152602001838360200280828437600092019190915250613ce792505050565b9150348260008151811061312c57fe5b602002602001015111156131715760405162461bcd60e51b8152600401808060200182810382526022815260200180614ac16022913960400191505060405180910390fd5b7f00000000000000000000000000000000000000000000000000000000000000006001600160a01b031663d0e30db0836000815181106131ad57fe5b60200260200101516040518263ffffffff1660e01b81526004016000604051808303818588803b1580156131e057600080fd5b505af11580156131f4573d6000803e3d6000fd5b50505050507f00000000000000000000000000000000000000000000000000000000000000006001600160a01b031663a9059cbb6132597f00000000000000000000000000000000000000000000000000000000000000008989600081811061185f57fe5b8460008151811061326657fe5b60200260200101516040518363ffffffff1660e01b815260040180836001600160a01b0316815260200182815260200192505050602060405180830381600087803b1580156132b457600080fd5b505af11580156132c8573d6000803e3d6000fd5b505050506040513d60208110156132de57600080fd5b50516132e657fe5b61332582878780806020026020016040519081016040528093929190818152602001838360200280828437600092019190915250899250613a04915050565b8160008151811061333257fe5b60200260200101513411156120cd576120cd338360008151811061335257fe5b602002602001015134036134cb565b604080516001600160a01b038481166024830152604480830185905283518084039091018152606490920183526020820180516001600160e01b031663a9059cbb60e01b178152925182516000946060949389169392918291908083835b602083106133de5780518252601f1990920191602091820191016133bf565b6001836020036101000a0380198251168184511680821785525050505050509050019150506000604051808303816000865af19150503d8060008114613440576040519150601f19603f3d011682016040523d82523d6000602084013e613445565b606091505b5091509150818015613473575080511580613473575080806020019051602081101561347057600080fd5b50515b6134c4576040805162461bcd60e51b815260206004820152601f60248201527f5472616e7366657248656c7065723a205452414e534645525f4641494c454400604482015290519081900360640190fd5b5050505050565b604080516000808252602082019092526001600160a01b0384169083906040518082805190602001908083835b602083106135175780518252601f1990920191602091820191016134f8565b6001836020036101000a03801982511681845116808217855250505050505090500191505060006040518083038185875af1925050503d8060008114613579576040519150601f19603f3d011682016040523d82523d6000602084013e61357e565b606091505b50509050806135be5760405162461bcd60e51b8152600401808060200182810382526023815260200180614b8b6023913960400191505060405180910390fd5b505050565b60008084116136035760405162461bcd60e51b8152600401808060200182810382526029815260200180614a026029913960400191505060405180910390fd5b6000831180156136135750600082115b61364e5760405162461bcd60e51b8152600401808060200182810382526026815260200180614bae6026913960400191505060405180910390fd5b600061365c856103e56147a2565b9050600061366a82856147a2565b905060006136848361367e886103e86147a2565b906147fb565b905080828161368f57fe5b04979650505050505050565b60606002825110156136f4576040805162461bcd60e51b815260206004820152601c60248201527f50616e63616b654c6962726172793a20494e56414c49445f5041544800000000604482015290519081900360640190fd5b815167ffffffffffffffff8111801561370c57600080fd5b50604051908082528060200260200182016040528015613736578160200160208202803683370190505b509050828160008151811061374757fe5b60200260200101818152505060005b60018351038110156137df576000806137998786858151811061377557fe5b602002602001015187866001018151811061378c57fe5b6020026020010151614855565b915091506137bb8484815181106137ac57fe5b602002602001015183836135c3565b8484600101815181106137ca57fe5b60209081029190910101525050600101613756565b509392505050565b60008060006137f68585614433565b604080516bffffffffffffffffffffffff19606094851b811660208084019190915293851b81166034830152825160288184030181526048830184528051908501206001600160f81b031960688401529a90941b9093166069840152607d8301989098527fec653b9460cd4213aaca0045af2f3739206d79ad65987cb23546d7d9c23c6a64609d808401919091528851808403909101815260bd909201909752805196019590952095945050505050565b604080516001600160a01b0385811660248301528481166044830152606480830185905283518084039091018152608490920183526020820180516001600160e01b03166323b872dd60e01b17815292518251600094606094938a169392918291908083835b6020831061392c5780518252601f19909201916020918201910161390d565b6001836020036101000a0380198251168184511680821785525050505050509050019150506000604051808303816000865af19150503d806000811461398e576040519150601f19603f3d011682016040523d82523d6000602084013e613993565b606091505b50915091508180156139c15750805115806139c157508080602001905160208110156139be57600080fd5b50515b6139fc5760405162461bcd60e51b8152600401808060200182810382526024815260200180614bd46024913960400191505060405180910390fd5b505050505050565b60005b6001835103811015613ce157600080848381518110613a2257fe5b6020026020010151858460010181518110613a3957fe5b6020026020010151915091506000613a518383614433565b5090506000878560010181518110613a6557fe5b60209081029190910101516001549091506001600160a01b031615613b15576001546040805163152cf14360e31b81523360048201526001600160a01b0387811660248301528681166044830152606482018590529151919092169163a9678a189160848083019260209291908290030181600087803b158015613ae857600080fd5b505af1158015613afc573d6000803e3d6000fd5b505050506040513d6020811015613b1257600080fd5b50505b600080836001600160a01b0316866001600160a01b031614613b3957826000613b3d565b6000835b91509150600060028a51038810613b545788613b95565b613b957f0000000000000000000000000000000000000000000000000000000000000000878c8b60020181518110613b8857fe5b60200260200101516137e7565b9050613bc27f000000000000000000000000000000000000000000000000000000000000000088886137e7565b6001600160a01b031663022c0d9f84848460006040519080825280601f01601f191660200182016040528015613bff576020820181803683370190505b506040518563ffffffff1660e01b815260040180858152602001848152602001836001600160a01b0316815260200180602001828103825283818151815260200191508051906020019080838360005b83811015613c67578181015183820152602001613c4f565b50505050905090810190601f168015613c945780820380516001836020036101000a031916815260200191505b5095505050505050600060405180830381600087803b158015613cb657600080fd5b505af1158015613cca573d6000803e3d6000fd5b505060019099019850613a07975050505050505050565b50505050565b6060600282511015613d40576040805162461bcd60e51b815260206004820152601c60248201527f50616e63616b654c6962726172793a20494e56414c49445f5041544800000000604482015290519081900360640190fd5b815167ffffffffffffffff81118015613d5857600080fd5b50604051908082528060200260200182016040528015613d82578160200160208202803683370190505b5090508281600183510381518110613d9657fe5b60209081029190910101528151600019015b80156137df57600080613dd887866001860381518110613dc457fe5b602002602001015187868151811061378c57fe5b91509150613dfa848481518110613deb57fe5b6020026020010151838361420c565b846001850381518110613e0957fe5b6020908102919091010152505060001901613da8565b3390565b60005b60018351038110156135be57600080848381518110613e4157fe5b6020026020010151858460010181518110613e5857fe5b6020026020010151915091506000613e708383614433565b5090506000613ea07f000000000000000000000000000000000000000000000000000000000000000085856137e7565b9050600080600080846001600160a01b0316630902f1ac6040518163ffffffff1660e01b815260040160606040518083038186803b158015613ee157600080fd5b505afa158015613ef5573d6000803e3d6000fd5b505050506040513d6060811015613f0b57600080fd5b5080516020909101516001600160701b0391821693501690506000806001600160a01b038a811690891614613f41578284613f44565b83835b91509150613f99828b6001600160a01b03166370a082318a6040518263ffffffff1660e01b815260040180826001600160a01b0316815260200191505060206040518083038186803b1580156119cd57600080fd5b9550613fa68683836135c3565b6001549095506001600160a01b031615935061405192505050576001546040805163152cf14360e31b81523360048201526001600160a01b0389811660248301528881166044830152606482018590529151919092169163a9678a189160848083019260209291908290030181600087803b15801561402457600080fd5b505af1158015614038573d6000803e3d6000fd5b505050506040513d602081101561404e57600080fd5b50505b600080856001600160a01b0316886001600160a01b03161461407557826000614079565b6000835b91509150600060028c51038a10614090578a6140c4565b6140c47f0000000000000000000000000000000000000000000000000000000000000000898e8d60020181518110613b8857fe5b604080516000808252602082019283905263022c0d9f60e01b835260248201878152604483018790526001600160a01b038086166064850152608060848501908152845160a48601819052969750908c169563022c0d9f958a958a958a9591949193919260c486019290918190849084905b8381101561414e578181015183820152602001614136565b50505050905090810190601f16801561417b5780820380516001836020036101000a031916815260200191505b5095505050505050600060405180830381600087803b15801561419d57600080fd5b505af11580156141b1573d6000803e3d6000fd5b50506001909b019a50613e269950505050505050505050565b600061123c83836040518060400160405280601e81526020017f536166654d6174683a207375627472616374696f6e206f766572666c6f770000815250614928565b600080841161424c5760405162461bcd60e51b815260040180806020018281038252602a815260200180614a77602a913960400191505060405180910390fd5b60008311801561425c5750600082115b6142975760405162461bcd60e51b8152600401808060200182810382526026815260200180614bae6026913960400191505060405180910390fd5b60006142af6103e86142a986886147a2565b906147a2565b905060006142c36103e56142a986896141ca565b90506142da60018284816142d357fe5b04906147fb565b9695505050505050565b60008084116143245760405162461bcd60e51b8152600401808060200182810382526023815260200180614b486023913960400191505060405180910390fd5b6000831180156143345750600082115b61436f5760405162461bcd60e51b8152600401808060200182810382526026815260200180614bae6026913960400191505060405180910390fd5b8261437a85846147a2565b8161438157fe5b04949350505050565b614430816040516024018080602001828103825283818151815260200191508051906020019080838360005b838110156143ce5781810151838201526020016143b6565b50505050905090810190601f1680156143fb5780820380516001836020036101000a031916815260200191505b5060408051601f198184030181529190526020810180516001600160e01b031663104c13eb60e21b17905292506149bf915050565b50565b600080826001600160a01b0316846001600160a01b031614156144875760405162461bcd60e51b8152600401808060200182810382526023815260200180614ae36023913960400191505060405180910390fd5b826001600160a01b0316846001600160a01b0316106144a75782846144aa565b83835b90925090506001600160a01b03821661450a576040805162461bcd60e51b815260206004820152601c60248201527f50616e63616b654c6962726172793a205a45524f5f4144445245535300000000604482015290519081900360640190fd5b9250929050565b60008060006001600160a01b03167f00000000000000000000000000000000000000000000000000000000000000006001600160a01b031663e6a439058a8a6040518363ffffffff1660e01b815260040180836001600160a01b03168152602001826001600160a01b031681526020019250505060206040518083038186803b15801561459d57600080fd5b505afa1580156145b1573d6000803e3d6000fd5b505050506040513d60208110156145c757600080fd5b50516001600160a01b03161415614685577f00000000000000000000000000000000000000000000000000000000000000006001600160a01b031663c9c6539689896040518363ffffffff1660e01b815260040180836001600160a01b03168152602001826001600160a01b0316815260200192505050602060405180830381600087803b15801561465857600080fd5b505af115801561466c573d6000803e3d6000fd5b505050506040513d602081101561468257600080fd5b50505b6000806146b37f00000000000000000000000000000000000000000000000000000000000000008b8b614855565b915091508160001480156146c5575080155b156146d557879350869250614795565b60006146e28984846142e4565b9050878111614735578581101561472a5760405162461bcd60e51b81526004018080602001828103825260218152602001806149e16021913960400191505060405180910390fd5b889450925082614793565b60006147428984866142e4565b90508981111561474e57fe5b8781101561478d5760405162461bcd60e51b8152600401808060200182810382526021815260200180614b276021913960400191505060405180910390fd5b94508793505b505b5050965096945050505050565b6000826147b15750600061123f565b828202828482816147be57fe5b041461123c5760405162461bcd60e51b8152600401808060200182810382526021815260200180614b066021913960400191505060405180910390fd5b60008282018381101561123c576040805162461bcd60e51b815260206004820152601b60248201527f536166654d6174683a206164646974696f6e206f766572666c6f770000000000604482015290519081900360640190fd5b60008060006148648585614433565b5090506148728686866137e7565b506000806148818888886137e7565b6001600160a01b0316630902f1ac6040518163ffffffff1660e01b815260040160606040518083038186803b1580156148b957600080fd5b505afa1580156148cd573d6000803e3d6000fd5b505050506040513d60608110156148e357600080fd5b5080516020909101516001600160701b0391821693501690506001600160a01b0387811690841614614916578082614919565b81815b90999098509650505050505050565b600081848411156149b75760405162461bcd60e51b81526004018080602001828103825283818151815260200191508051906020019080838360005b8381101561497c578181015183820152602001614964565b50505050905090810190601f1680156149a95780820380516001836020036101000a031916815260200191505b509250505060405180910390fd5b505050900390565b80516a636f6e736f6c652e6c6f67602083016000808483855afa505050505056fe42616279526f757465723a20494e53554646494349454e545f425f414d4f554e5450616e63616b654c6962726172793a20494e53554646494349454e545f494e5055545f414d4f554e544f776e61626c653a206e6577206f776e657220697320746865207a65726f206164647265737342616279526f757465723a20494e53554646494349454e545f4f55545055545f414d4f554e5450616e63616b654c6962726172793a20494e53554646494349454e545f4f55545055545f414d4f554e5442616279526f757465723a20455850495245440000000000000000000000000042616279526f757465723a204558434553534956455f494e5055545f414d4f554e5450616e63616b654c6962726172793a204944454e544943414c5f414444524553534553536166654d6174683a206d756c7469706c69636174696f6e206f766572666c6f7742616279526f757465723a20494e53554646494349454e545f415f414d4f554e5450616e63616b654c6962726172793a20494e53554646494349454e545f414d4f554e5442616279526f757465723a20494e56414c49445f5041544800000000000000005472616e7366657248656c7065723a204554485f5452414e534645525f4641494c454450616e63616b654c6962726172793a20494e53554646494349454e545f4c49515549444954595472616e7366657248656c7065723a205452414e534645525f46524f4d5f4641494c4544a264697066735822122060578e1faea7ef2674eae721470c178544ceacc6a250b60fa82535f4f9089c7e64736f6c63430007040033",
  "devdoc": {
    "kind": "dev",
    "methods": {
      "owner()": {
        "details": "Returns the address of the current owner."
      },
      "renounceOwnership()": {
        "details": "Leaves the contract without owner. It will not be possible to call `onlyOwner` functions anymore. Can only be called by the current owner. NOTE: Renouncing ownership will leave the contract without an owner, thereby removing any functionality that is only available to the owner."
      },
      "transferOwnership(address)": {
        "details": "Transfers ownership of the contract to a new account (`newOwner`). Can only be called by the current owner."
      }
    },
    "version": 1
  },
  "userdoc": {
    "kind": "user",
    "methods": {},
    "version": 1
  },
  "storageLayout": {
    "storage": [
      {
        "astId": 7,
        "contract": "contracts/router/BabyRouter.sol:BabyRouter",
        "label": "_owner",
        "offset": 0,
        "slot": "0",
        "type": "t_address"
      },
      {
        "astId": 10988,
        "contract": "contracts/router/BabyRouter.sol:BabyRouter",
        "label": "swapMining",
        "offset": 0,
        "slot": "1",
        "type": "t_address"
      }
    ],
    "types": {
      "t_address": {
        "encoding": "inplace",
        "label": "address",
        "numberOfBytes": "20"
      }
    }
  }
}