{
  "address": "0xfc4d8a7bc244FCA2f91D3b59d464bFFA49C22D5f",
  "abi": [
    {
      "inputs": [
        {
          "internalType": "contract BabyToken",
          "name": "_babyToken",
          "type": "address"
        },
        {
          "internalType": "contract IBabyFactory",
          "name": "_factory",
          "type": "address"
        },
        {
          "internalType": "contract IOracle",
          "name": "_oracle",
          "type": "address"
        },
        {
          "internalType": "address",
          "name": "_router",
          "type": "address"
        },
        {
          "internalType": "address",
          "name": "_targetToken",
          "type": "address"
        },
        {
          "internalType": "uint256",
          "name": "_babyPerBlock",
          "type": "uint256"
        },
        {
          "internalType": "uint256",
          "name": "_startBlock",
          "type": "uint256"
        }
      ],
      "stateMutability": "nonpayable",
      "type": "constructor"
    },
    {
      "anonymous": false,
      "inputs": [
        {
          "indexed": true,
          "internalType": "address",
          "name": "previousOwner",
          "type": "address"
        },
        {
          "indexed": true,
          "internalType": "address",
          "name": "newOwner",
          "type": "address"
        }
      ],
      "name": "OwnershipTransferred",
      "type": "event"
    },
    {
      "inputs": [
        {
          "internalType": "uint256",
          "name": "_allocPoint",
          "type": "uint256"
        },
        {
          "internalType": "address",
          "name": "_pair",
          "type": "address"
        },
        {
          "internalType": "bool",
          "name": "_withUpdate",
          "type": "bool"
        }
      ],
      "name": "addPair",
      "outputs": [],
      "stateMutability": "nonpayable",
      "type": "function"
    },
    {
      "inputs": [
        {
          "internalType": "address",
          "name": "_addToken",
          "type": "address"
        }
      ],
      "name": "addWhitelist",
      "outputs": [
        {
          "internalType": "bool",
          "name": "",
          "type": "bool"
        }
      ],
      "stateMutability": "nonpayable",
      "type": "function"
    },
    {
      "inputs": [],
      "name": "babyPerBlock",
      "outputs": [
        {
          "internalType": "uint256",
          "name": "",
          "type": "uint256"
        }
      ],
      "stateMutability": "view",
      "type": "function"
    },
    {
      "inputs": [],
      "name": "babyToken",
      "outputs": [
        {
          "internalType": "contract BabyToken",
          "name": "",
          "type": "address"
        }
      ],
      "stateMutability": "view",
      "type": "function"
    },
    {
      "inputs": [
        {
          "internalType": "address",
          "name": "_delToken",
          "type": "address"
        }
      ],
      "name": "delWhitelist",
      "outputs": [
        {
          "internalType": "bool",
          "name": "",
          "type": "bool"
        }
      ],
      "stateMutability": "nonpayable",
      "type": "function"
    },
    {
      "inputs": [],
      "name": "factory",
      "outputs": [
        {
          "internalType": "contract IBabyFactory",
          "name": "",
          "type": "address"
        }
      ],
      "stateMutability": "view",
      "type": "function"
    },
    {
      "inputs": [
        {
          "internalType": "uint256",
          "name": "_lastRewardBlock",
          "type": "uint256"
        }
      ],
      "name": "getBabyReward",
      "outputs": [
        {
          "internalType": "uint256",
          "name": "",
          "type": "uint256"
        }
      ],
      "stateMutability": "view",
      "type": "function"
    },
    {
      "inputs": [
        {
          "internalType": "uint256",
          "name": "_pid",
          "type": "uint256"
        }
      ],
      "name": "getPoolInfo",
      "outputs": [
        {
          "internalType": "address",
          "name": "",
          "type": "address"
        },
        {
          "internalType": "address",
          "name": "",
          "type": "address"
        },
        {
          "internalType": "uint256",
          "name": "",
          "type": "uint256"
        },
        {
          "internalType": "uint256",
          "name": "",
          "type": "uint256"
        },
        {
          "internalType": "uint256",
          "name": "",
          "type": "uint256"
        },
        {
          "internalType": "uint256",
          "name": "",
          "type": "uint256"
        }
      ],
      "stateMutability": "view",
      "type": "function"
    },
    {
      "inputs": [
        {
          "internalType": "address",
          "name": "outputToken",
          "type": "address"
        },
        {
          "internalType": "uint256",
          "name": "outputAmount",
          "type": "uint256"
        },
        {
          "internalType": "address",
          "name": "anchorToken",
          "type": "address"
        }
      ],
      "name": "getQuantity",
      "outputs": [
        {
          "internalType": "uint256",
          "name": "",
          "type": "uint256"
        }
      ],
      "stateMutability": "view",
      "type": "function"
    },
    {
      "inputs": [
        {
          "internalType": "uint256",
          "name": "_pid",
          "type": "uint256"
        },
        {
          "internalType": "address",
          "name": "_user",
          "type": "address"
        }
      ],
      "name": "getUserReward",
      "outputs": [
        {
          "internalType": "uint256",
          "name": "",
          "type": "uint256"
        },
        {
          "internalType": "uint256",
          "name": "",
          "type": "uint256"
        }
      ],
      "stateMutability": "view",
      "type": "function"
    },
    {
      "inputs": [
        {
          "internalType": "uint256",
          "name": "_index",
          "type": "uint256"
        }
      ],
      "name": "getWhitelist",
      "outputs": [
        {
          "internalType": "address",
          "name": "",
          "type": "address"
        }
      ],
      "stateMutability": "view",
      "type": "function"
    },
    {
      "inputs": [],
      "name": "getWhitelistLength",
      "outputs": [
        {
          "internalType": "uint256",
          "name": "",
          "type": "uint256"
        }
      ],
      "stateMutability": "view",
      "type": "function"
    },
    {
      "inputs": [],
      "name": "halvingPeriod",
      "outputs": [
        {
          "internalType": "uint256",
          "name": "",
          "type": "uint256"
        }
      ],
      "stateMutability": "view",
      "type": "function"
    },
    {
      "inputs": [
        {
          "internalType": "address",
          "name": "_token",
          "type": "address"
        }
      ],
      "name": "isWhitelist",
      "outputs": [
        {
          "internalType": "bool",
          "name": "",
          "type": "bool"
        }
      ],
      "stateMutability": "view",
      "type": "function"
    },
    {
      "inputs": [],
      "name": "massMintPools",
      "outputs": [],
      "stateMutability": "nonpayable",
      "type": "function"
    },
    {
      "inputs": [
        {
          "internalType": "uint256",
          "name": "_pid",
          "type": "uint256"
        }
      ],
      "name": "mint",
      "outputs": [
        {
          "internalType": "bool",
          "name": "",
          "type": "bool"
        }
      ],
      "stateMutability": "nonpayable",
      "type": "function"
    },
    {
      "inputs": [],
      "name": "oracle",
      "outputs": [
        {
          "internalType": "contract IOracle",
          "name": "",
          "type": "address"
        }
      ],
      "stateMutability": "view",
      "type": "function"
    },
    {
      "inputs": [],
      "name": "owner",
      "outputs": [
        {
          "internalType": "address",
          "name": "",
          "type": "address"
        }
      ],
      "stateMutability": "view",
      "type": "function"
    },
    {
      "inputs": [
        {
          "internalType": "address",
          "name": "",
          "type": "address"
        }
      ],
      "name": "pairOfPid",
      "outputs": [
        {
          "internalType": "uint256",
          "name": "",
          "type": "uint256"
        }
      ],
      "stateMutability": "view",
      "type": "function"
    },
    {
      "inputs": [
        {
          "internalType": "uint256",
          "name": "blockNumber",
          "type": "uint256"
        }
      ],
      "name": "phase",
      "outputs": [
        {
          "internalType": "uint256",
          "name": "",
          "type": "uint256"
        }
      ],
      "stateMutability": "view",
      "type": "function"
    },
    {
      "inputs": [],
      "name": "phase",
      "outputs": [
        {
          "internalType": "uint256",
          "name": "",
          "type": "uint256"
        }
      ],
      "stateMutability": "view",
      "type": "function"
    },
    {
      "inputs": [
        {
          "internalType": "uint256",
          "name": "",
          "type": "uint256"
        }
      ],
      "name": "poolInfo",
      "outputs": [
        {
          "internalType": "address",
          "name": "pair",
          "type": "address"
        },
        {
          "internalType": "uint256",
          "name": "quantity",
          "type": "uint256"
        },
        {
          "internalType": "uint256",
          "name": "totalQuantity",
          "type": "uint256"
        },
        {
          "internalType": "uint256",
          "name": "allocPoint",
          "type": "uint256"
        },
        {
          "internalType": "uint256",
          "name": "allocMdxAmount",
          "type": "uint256"
        },
        {
          "internalType": "uint256",
          "name": "lastRewardBlock",
          "type": "uint256"
        }
      ],
      "stateMutability": "view",
      "type": "function"
    },
    {
      "inputs": [],
      "name": "poolLength",
      "outputs": [
        {
          "internalType": "uint256",
          "name": "",
          "type": "uint256"
        }
      ],
      "stateMutability": "view",
      "type": "function"
    },
    {
      "inputs": [],
      "name": "renounceOwnership",
      "outputs": [],
      "stateMutability": "nonpayable",
      "type": "function"
    },
    {
      "inputs": [],
      "name": "reward",
      "outputs": [
        {
          "internalType": "uint256",
          "name": "",
          "type": "uint256"
        }
      ],
      "stateMutability": "view",
      "type": "function"
    },
    {
      "inputs": [
        {
          "internalType": "uint256",
          "name": "blockNumber",
          "type": "uint256"
        }
      ],
      "name": "reward",
      "outputs": [
        {
          "internalType": "uint256",
          "name": "",
          "type": "uint256"
        }
      ],
      "stateMutability": "view",
      "type": "function"
    },
    {
      "inputs": [],
      "name": "router",
      "outputs": [
        {
          "internalType": "address",
          "name": "",
          "type": "address"
        }
      ],
      "stateMutability": "view",
      "type": "function"
    },
    {
      "inputs": [
        {
          "internalType": "uint256",
          "name": "_newPerBlock",
          "type": "uint256"
        }
      ],
      "name": "setBabyPerBlock",
      "outputs": [],
      "stateMutability": "nonpayable",
      "type": "function"
    },
    {
      "inputs": [
        {
          "internalType": "uint256",
          "name": "_block",
          "type": "uint256"
        }
      ],
      "name": "setHalvingPeriod",
      "outputs": [],
      "stateMutability": "nonpayable",
      "type": "function"
    },
    {
      "inputs": [
        {
          "internalType": "contract IOracle",
          "name": "_oracle",
          "type": "address"
        }
      ],
      "name": "setOracle",
      "outputs": [],
      "stateMutability": "nonpayable",
      "type": "function"
    },
    {
      "inputs": [
        {
          "internalType": "uint256",
          "name": "_pid",
          "type": "uint256"
        },
        {
          "internalType": "uint256",
          "name": "_allocPoint",
          "type": "uint256"
        },
        {
          "internalType": "bool",
          "name": "_withUpdate",
          "type": "bool"
        }
      ],
      "name": "setPair",
      "outputs": [],
      "stateMutability": "nonpayable",
      "type": "function"
    },
    {
      "inputs": [
        {
          "internalType": "address",
          "name": "newRouter",
          "type": "address"
        }
      ],
      "name": "setRouter",
      "outputs": [],
      "stateMutability": "nonpayable",
      "type": "function"
    },
    {
      "inputs": [],
      "name": "startBlock",
      "outputs": [
        {
          "internalType": "uint256",
          "name": "",
          "type": "uint256"
        }
      ],
      "stateMutability": "view",
      "type": "function"
    },
    {
      "inputs": [
        {
          "internalType": "address",
          "name": "account",
          "type": "address"
        },
        {
          "internalType": "address",
          "name": "input",
          "type": "address"
        },
        {
          "internalType": "address",
          "name": "output",
          "type": "address"
        },
        {
          "internalType": "uint256",
          "name": "amount",
          "type": "uint256"
        }
      ],
      "name": "swap",
      "outputs": [
        {
          "internalType": "bool",
          "name": "",
          "type": "bool"
        }
      ],
      "stateMutability": "nonpayable",
      "type": "function"
    },
    {
      "inputs": [],
      "name": "takerWithdraw",
      "outputs": [],
      "stateMutability": "nonpayable",
      "type": "function"
    },
    {
      "inputs": [],
      "name": "targetToken",
      "outputs": [
        {
          "internalType": "address",
          "name": "",
          "type": "address"
        }
      ],
      "stateMutability": "view",
      "type": "function"
    },
    {
      "inputs": [],
      "name": "totalAllocPoint",
      "outputs": [
        {
          "internalType": "uint256",
          "name": "",
          "type": "uint256"
        }
      ],
      "stateMutability": "view",
      "type": "function"
    },
    {
      "inputs": [
        {
          "internalType": "address",
          "name": "newOwner",
          "type": "address"
        }
      ],
      "name": "transferOwnership",
      "outputs": [],
      "stateMutability": "nonpayable",
      "type": "function"
    },
    {
      "inputs": [
        {
          "internalType": "uint256",
          "name": "",
          "type": "uint256"
        },
        {
          "internalType": "address",
          "name": "",
          "type": "address"
        }
      ],
      "name": "userInfo",
      "outputs": [
        {
          "internalType": "uint256",
          "name": "quantity",
          "type": "uint256"
        },
        {
          "internalType": "uint256",
          "name": "blockNumber",
          "type": "uint256"
        }
      ],
      "stateMutability": "view",
      "type": "function"
    }
  ],
  "transactionHash": "0x1c6db6d6f36206f307cd478b60dd9b494bca0f97d734b871ecadeccce95bdcd3",
  "args": [
    "0xF610Dd85444DCC945558CdA5f96f3BCd08D4B865",
    "0x971Ca053E83Dc4ba794b2D8e3BaB5e7041c44004",
    "0x3E0ead73c5EAaa62D9EE4C073c6aEc66C0BaA281",
    "0x1c233d1927da7676A7c8Ad3b28Ed9A1a9A930aCC",
    "0x1bC64Fa1104C96e03F9F06483B64ab6251a8E9E2",
    "20000000000000000000",
    9262948
  ],
  "solcInputHash": "f88cb34825f4720e33b7e4839508bfd7",
  "bytecode": "0x60806040526250334060055560006006553480156200001d57600080fd5b5060405162002a4f38038062002a4f833981810160405260e08110156200004357600080fd5b508051602082015160408301516060840151608085015160a086015160c090960151949593949293919290919060006200007c62000289565b600080546001600160a01b0319166001600160a01b0383169081178255604051929350917f8be0079c531659141344cd1fd0a4f28419497f9722a3daafe3b4186f6b6457e0908290a3506001600160a01b03871662000114576040805162461bcd60e51b815260206004820152600f60248201526e696c6c6567616c206164647265737360881b604482015290519081900360640190fd5b600a80546001600160a01b0319166001600160a01b038981169190911790915586166200017a576040805162461bcd60e51b815260206004820152600f60248201526e696c6c6567616c206164647265737360881b604482015290519081900360640190fd5b600980546001600160a01b0319166001600160a01b03888116919091179091558516620001e0576040805162461bcd60e51b815260206004820152600f60248201526e696c6c6567616c206164647265737360881b604482015290519081900360640190fd5b600780546001600160a01b0319166001600160a01b0387811691909117909155841662000246576040805162461bcd60e51b815260206004820152600f60248201526e696c6c6567616c206164647265737360881b604482015290519081900360640190fd5b600880546001600160a01b039586166001600160a01b031991821617909155600b805494909516931692909217909255600391909155600455506200028d915050565b3390565b6127b2806200029d6000396000f3fe608060405234801561001057600080fd5b506004361061023d5760003560e01c806393f1a40b1161013b578063b5ec5c99116100b8578063f2fde38b1161007c578063f2fde38b14610636578063f80f5dd51461065c578063f887ea4014610682578063f8a0baaa1461068a578063f9d181f9146106a75761023d565b8063b5ec5c99146105bd578063b872dd0e146105da578063c0d78655146105e2578063c45a015514610608578063c683630d146106105761023d565b8063a13202e9116100ff578063a13202e91461051e578063a7ef67f614610526578063a9678a181461055c578063a9fb763c14610598578063b1c9fe6e146105b55761023d565b806393f1a40b1461047657806396db752a146104a257806397ecfaab146104bf5780639f4ece2e146104f9578063a0712d68146105015761023d565b8063327107f7116101c9578063715018a61161018d578063715018a6146104305780637adbf973146104385780637dc0d1d01461045e5780638113a6d8146104665780638da5cb5b1461046e5761023d565b8063327107f7146103d757806348cd4cb1146103fb5780634f66a32c146104035780635a3e251f1461040b5780635ba79ba1146104135761023d565b806317caf6f11161021057806317caf6f1146102f9578063190cf6c9146103015780632099920e1461032e578063228cb733146103735780632f380b351461037b5761023d565b80630495de5014610242578063081e3eda1461027a578063135f8aa7146102825780631526fe271461029f575b600080fd5b6102686004803603602081101561025857600080fd5b50356001600160a01b03166106db565b60408051918252519081900360200190f35b6102686106ed565b6102686004803603602081101561029857600080fd5b50356106f3565b6102bc600480360360208110156102b557600080fd5b503561074e565b604080516001600160a01b0390971687526020870195909552858501939093526060850191909152608084015260a0830152519081900360c00190f35b61026861079e565b61032c6004803603606081101561031757600080fd5b508035906020810135906040013515156107a4565b005b61035a6004803603604081101561034457600080fd5b50803590602001356001600160a01b031661087f565b6040805192835260208301919091528051918290030190f35b610268610a1f565b6103986004803603602081101561039157600080fd5b5035610a2f565b604080516001600160a01b039788168152959096166020860152848601939093526060840191909152608083015260a082015290519081900360c00190f35b6103df610c4b565b604080516001600160a01b039092168252519081900360200190f35b610268610c5a565b610268610c60565b610268610c66565b61032c6004803603602081101561042957600080fd5b5035610c6c565b61032c610cdb565b61032c6004803603602081101561044e57600080fd5b50356001600160a01b0316610d87565b6103df610e50565b6103df610e5f565b6103df610e6e565b61035a6004803603604081101561048c57600080fd5b50803590602001356001600160a01b0316610e7d565b6103df600480360360208110156104b857600080fd5b5035610ea1565b6104e5600480360360208110156104d557600080fd5b50356001600160a01b0316610f13565b604080519115158252519081900360200190f35b61032c610fc7565b6104e56004803603602081101561051757600080fd5b5035610feb565b61026861108b565b6102686004803603606081101561053c57600080fd5b506001600160a01b03813581169160208101359160409091013516611097565b6104e56004803603608081101561057257600080fd5b506001600160a01b0381358116916020810135821691604082013516906060013561145a565b610268600480360360208110156105ae57600080fd5b5035611706565b610268611733565b61032c600480360360208110156105d357600080fd5b503561173e565b61032c6117a5565b61032c600480360360208110156105f857600080fd5b50356001600160a01b031661190f565b6103df6119d8565b6104e56004803603602081101561062657600080fd5b50356001600160a01b03166119e7565b61032c6004803603602081101561064c57600080fd5b50356001600160a01b03166119f4565b6104e56004803603602081101561067257600080fd5b50356001600160a01b0316611af6565b6103df611baa565b610268600480360360208110156106a057600080fd5b5035611bb9565b61032c600480360360608110156106bd57600080fd5b508035906001600160a01b0360208201351690604001351515611c91565b600c6020526000908152604090205481565b600d5490565b60006005546000141561070857506000610749565b6004548211156107455761073e600554610738600161073260045487611ef990919063ffffffff16565b90611ef9565b90611f3b565b9050610749565b5060005b919050565b600d818154811061075e57600080fd5b60009182526020909120600690910201805460018201546002830154600384015460048501546005909501546001600160a01b0390941695509193909286565b60065481565b6107ac611f7d565b6001600160a01b03166107bd610e6e565b6001600160a01b031614610806576040805162461bcd60e51b815260206004820181905260248201526000805160206126fb833981519152604482015290519081900360640190fd5b801561081457610814610fc7565b6108518261084b600d868154811061082857fe5b906000526020600020906006020160030154600654611ef990919063ffffffff16565b90611f81565b60068190555081600d848154811061086557fe5b906000526020600020906006020160030181905550505050565b600d546000908190600019018411156108df576040805162461bcd60e51b815260206004820152601e60248201527f537761704d696e696e673a204e6f742066696e64207468697320706f6f6c0000604482015290519081900360640190fd5b60006108e9612512565b600d86815481106108f657fe5b60009182526020918290206040805160c081018252600690930290910180546001600160a01b03168352600181015493830193909352600283015490820152600382015460608201526004820154608082015260059091015460a0820152905061095e612551565b506000868152600e602090815260408083206001600160a01b0389168452825291829020825180840190935280548084526001909101549183019190915215610a0f5760006109b08360a00151611bb9565b905060006109d1600654610738866060015185611fdb90919063ffffffff16565b9050610a0a610a03856020015161073886600001516109fd868a60800151611f8190919063ffffffff16565b90611fdb565b8690611f81565b945050505b51919350909150505b9250929050565b6000610a2a43611706565b905090565b6000806000806000806001600d8054905003871115610a95576040805162461bcd60e51b815260206004820152601e60248201527f537761704d696e696e673a204e6f742066696e64207468697320706f6f6c0000604482015290519081900360640190fd5b610a9d612512565b600d8881548110610aaa57fe5b600091825260208083206040805160c081018252600690940290910180546001600160a01b031680855260018201548585015260028201548584015260038201546060860152600480830154608087015260059092015460a08601528251630dfe168160e01b8152925194965093630dfe16819383830193909290829003018186803b158015610b3957600080fd5b505afa158015610b4d573d6000803e3d6000fd5b505050506040513d6020811015610b6357600080fd5b505182516040805163d21220a760e01b815290519293506000926001600160a01b039092169163d21220a791600480820192602092909190829003018186803b158015610baf57600080fd5b505afa158015610bc3573d6000803e3d6000fd5b505050506040513d6020811015610bd957600080fd5b5051608084015160a085015191925090600090610bf590611bb9565b90506000610c16600654610738886060015185611fdb90919063ffffffff16565b9050610c228382611f81565b60408701516020880151606090980151969f959e50909c509a5094985092965090945050505050565b600b546001600160a01b031681565b60045481565b60035481565b60055481565b610c74611f7d565b6001600160a01b0316610c85610e6e565b6001600160a01b031614610cce576040805162461bcd60e51b815260206004820181905260248201526000805160206126fb833981519152604482015290519081900360640190fd5b610cd6610fc7565b600355565b610ce3611f7d565b6001600160a01b0316610cf4610e6e565b6001600160a01b031614610d3d576040805162461bcd60e51b815260206004820181905260248201526000805160206126fb833981519152604482015290519081900360640190fd5b600080546040516001600160a01b03909116907f8be0079c531659141344cd1fd0a4f28419497f9722a3daafe3b4186f6b6457e0908390a3600080546001600160a01b0319169055565b610d8f611f7d565b6001600160a01b0316610da0610e6e565b6001600160a01b031614610de9576040805162461bcd60e51b815260206004820181905260248201526000805160206126fb833981519152604482015290519081900360640190fd5b6001600160a01b038116610e2e5760405162461bcd60e51b815260040180806020018281038252602a815260200180612669602a913960400191505060405180910390fd5b600780546001600160a01b0319166001600160a01b0392909216919091179055565b6007546001600160a01b031681565b600a546001600160a01b031681565b6000546001600160a01b031690565b600e6020908152600092835260408084209091529082529020805460019091015482565b60006001610ead61108b565b03821115610f02576040805162461bcd60e51b815260206004820152601f60248201527f537761704d696e696e673a20696e646578206f7574206f6620626f756e647300604482015290519081900360640190fd5b610f0d600183612034565b92915050565b6000610f1d611f7d565b6001600160a01b0316610f2e610e6e565b6001600160a01b031614610f77576040805162461bcd60e51b815260206004820181905260248201526000805160206126fb833981519152604482015290519081900360640190fd5b6001600160a01b038216610fbc5760405162461bcd60e51b81526004018080602001828103825260258152602001806126136025913960400191505060405180910390fd5b610f0d600183612040565b600d5460005b81811015610fe757610fde81610feb565b50600101610fcd565b5050565b600080600d8381548110610ffb57fe5b9060005260206000209060060201905080600501544311611020576000915050610749565b600061102f8260050154611bb9565b90506000811161104457600092505050610749565b6000611063600654610738856003015485611fdb90919063ffffffff16565b60048401549091506110759082611f81565b6004840155505043600590910155506001919050565b6000610a2a6001612055565b6000806001600160a01b0385811690841614156110b5575082611452565b6009546040805163e6a4390560e01b81526001600160a01b038881166004830152868116602483015291516000939092169163e6a4390591604480820192602092909190829003018186803b15801561110d57600080fd5b505afa158015611121573d6000803e3d6000fd5b505050506040513d602081101561113757600080fd5b50516001600160a01b0316146111d65760075460408051632321bc7960e21b81526001600160a01b03888116600483015260248201889052868116604483015291519190921691638c86f1e4916064808301926020929190829003018186803b1580156111a357600080fd5b505afa1580156111b7573d6000803e3d6000fd5b505050506040513d60208110156111cd57600080fd5b50519050611452565b60006111e061108b565b905060005b8181101561144f5760006111f882610ea1565b6009546040805163e6a4390560e01b81526001600160a01b038c8116600483015284811660248301529151939450600093919092169163e6a43905916044808301926020929190829003018186803b15801561125357600080fd5b505afa158015611267573d6000803e3d6000fd5b505050506040513d602081101561127d57600080fd5b50516001600160a01b03161480159061132157506009546040805163e6a4390560e01b81526001600160a01b038481166004830152898116602483015291516000939092169163e6a4390591604480820192602092909190829003018186803b1580156112e957600080fd5b505afa1580156112fd573d6000803e3d6000fd5b505050506040513d602081101561131357600080fd5b50516001600160a01b031614155b156114465760075460408051632321bc7960e21b81526001600160a01b038b81166004830152602482018b9052848116604483015291516000939290921691638c86f1e491606480820192602092909190829003018186803b15801561138657600080fd5b505afa15801561139a573d6000803e3d6000fd5b505050506040513d60208110156113b057600080fd5b505160075460408051632321bc7960e21b81526001600160a01b038681166004830152602482018590528b811660448301529151939450911691638c86f1e491606480820192602092909190829003018186803b15801561141057600080fd5b505afa158015611424573d6000803e3d6000fd5b505050506040513d602081101561143a57600080fd5b5051945061144f915050565b506001016111e5565b50505b949350505050565b6008546000906001600160a01b031633146114a65760405162461bcd60e51b81526004018080602001828103825260248152602001806126936024913960400191505060405180910390fd5b6001600160a01b0385166114eb5760405162461bcd60e51b815260040180806020018281038252603281526020018061271b6032913960400191505060405180910390fd5b6001600160a01b0384166115305760405162461bcd60e51b815260040180806020018281038252603081526020018061274d6030913960400191505060405180910390fd5b6001600160a01b0383166115755760405162461bcd60e51b81526004018080602001828103825260318152602001806126386031913960400191505060405180910390fd5b600061157f6106ed565b1161158c57506000611452565b611595846119e7565b15806115a757506115a5836119e7565b155b156115b457506000611452565b6009546000906115ce906001600160a01b03168686612060565b6001600160a01b0381166000908152600c6020526040812054600d8054939450919281106115f857fe5b6000918252602090912060069091020180549091506001600160a01b03838116911614158061162957506003810154155b1561163957600092505050611452565b600b5460009061165590879087906001600160a01b0316611097565b90506000811161166b5760009350505050611452565b6001600160a01b0383166000908152600c602052604090205461168d90610feb565b50600182015461169d9082611f81565b600183015560028201546116b19082611f81565b60028301556001600160a01b038084166000908152600c60209081526040808320548352600e8252808320938c1683529290522080546116f19083611f81565b81554360019182015598975050505050505050565b600080611712836106f3565b905061172c8160020a600354611f3b90919063ffffffff16565b9392505050565b6000610a2a436106f3565b611746611f7d565b6001600160a01b0316611757610e6e565b6001600160a01b0316146117a0576040805162461bcd60e51b815260206004820181905260248201526000805160206126fb833981519152604482015290519081900360640190fd5b600555565b600d54600090815b81811015611871576000600d82815481106117c457fe5b60009182526020808320858452600e82526040808520338652909252922080546006909202909201925015611867576117fc83610feb565b506000611822836001015461073884600001548660040154611fdb90919063ffffffff16565b825460018501549192506118369190611ef9565b6001840155600483015461184a9082611ef9565b6004840155600082554360018301556118638682611f81565b9550505b50506001016117ad565b506000821161188157505061190d565b61188a82612120565b600a546040805163a9059cbb60e01b81523360048201526024810185905290516001600160a01b039092169163a9059cbb916044808201926020929091908290030181600087803b1580156118de57600080fd5b505af11580156118f2573d6000803e3d6000fd5b505050506040513d602081101561190857600080fd5b505050505b565b611917611f7d565b6001600160a01b0316611928610e6e565b6001600160a01b031614611971576040805162461bcd60e51b815260206004820181905260248201526000805160206126fb833981519152604482015290519081900360640190fd5b6001600160a01b0381166119b65760405162461bcd60e51b815260040180806020018281038252602a81526020018061258e602a913960400191505060405180910390fd5b600880546001600160a01b0319166001600160a01b0392909216919091179055565b6009546001600160a01b031681565b6000610f0d600183612164565b6119fc611f7d565b6001600160a01b0316611a0d610e6e565b6001600160a01b031614611a56576040805162461bcd60e51b815260206004820181905260248201526000805160206126fb833981519152604482015290519081900360640190fd5b6001600160a01b038116611a9b5760405162461bcd60e51b81526004018080602001828103825260268152602001806125b86026913960400191505060405180910390fd5b600080546040516001600160a01b03808516939216917f8be0079c531659141344cd1fd0a4f28419497f9722a3daafe3b4186f6b6457e091a3600080546001600160a01b0319166001600160a01b0392909216919091179055565b6000611b00611f7d565b6001600160a01b0316611b11610e6e565b6001600160a01b031614611b5a576040805162461bcd60e51b815260206004820181905260248201526000805160206126fb833981519152604482015290519081900360640190fd5b6001600160a01b038216611b9f5760405162461bcd60e51b81526004018080602001828103825260258152602001806126136025913960400191505060405180910390fd5b610f0d600183612179565b6008546001600160a01b031681565b600043821115611bfa5760405162461bcd60e51b81526004018080602001828103825260358152602001806125de6035913960400191505060405180910390fd5b600080611c06846106f3565b90506000611c13436106f3565b90505b80821015611c6857600454600554600190930192600091611c3c9161084b908690611fdb565b9050611c5e611c57611c4d83611706565b6109fd848a611ef9565b8590611f81565b9095509250611c16565b611c88611c81611c7743611706565b6109fd4389611ef9565b8490611f81565b95945050505050565b611c99611f7d565b6001600160a01b0316611caa610e6e565b6001600160a01b031614611cf3576040805162461bcd60e51b815260206004820181905260248201526000805160206126fb833981519152604482015290519081900360640190fd5b6001600160a01b038216611d4e576040805162461bcd60e51b815260206004820152601960248201527f5f7061697220697320746865207a65726f206164647265737300000000000000604482015290519081900360640190fd5b8015611d5c57611d5c610fc7565b60006004544311611d6f57600454611d71565b435b600654909150611d819085611f81565b60069081556040805160c0810182526001600160a01b038681168252600060208301818152938301818152606084018a81526080850183815260a08601898152600d8054600180820183559190965296517fd7b6990105719101dabeb77144f2a3385c8033acd3af97e9423a695e81ad1eb59590990294850180546001600160a01b031916999096169890981790945594517fd7b6990105719101dabeb77144f2a3385c8033acd3af97e9423a695e81ad1eb6830155517fd7b6990105719101dabeb77144f2a3385c8033acd3af97e9423a695e81ad1eb782015592517fd7b6990105719101dabeb77144f2a3385c8033acd3af97e9423a695e81ad1eb8840155517fd7b6990105719101dabeb77144f2a3385c8033acd3af97e9423a695e81ad1eb983015591517fd7b6990105719101dabeb77144f2a3385c8033acd3af97e9423a695e81ad1eba90910155611ed66106ed565b6001600160a01b039094166000908152600c602052604090209303909255505050565b600061172c83836040518060400160405280601e81526020017f536166654d6174683a207375627472616374696f6e206f766572666c6f77000081525061218e565b600061172c83836040518060400160405280601a81526020017f536166654d6174683a206469766973696f6e206279207a65726f000000000000815250612225565b3390565b60008282018381101561172c576040805162461bcd60e51b815260206004820152601b60248201527f536166654d6174683a206164646974696f6e206f766572666c6f770000000000604482015290519081900360640190fd5b600082611fea57506000610f0d565b82820282848281611ff757fe5b041461172c5760405162461bcd60e51b81526004018080602001828103825260218152602001806126da6021913960400191505060405180910390fd5b600061172c838361228a565b600061172c836001600160a01b0384166122ee565b6000610f0d826123b4565b600080600061206f85856123b8565b604080516bffffffffffffffffffffffff19606094851b811660208084019190915293851b81166034830152825160288184030181526048830184528051908501206001600160f81b031960688401529a90941b9093166069840152607d8301989098527fec653b9460cd4213aaca0045af2f3739206d79ad65987cb23546d7d9c23c6a64609d808401919091528851808403909101815260bd909201909752805196019590952095945050505050565b6040805160248082018490528251808303909101815260449091019091526020810180516001600160e01b031663f5b1bba960e01b1790526121619061248f565b50565b600061172c836001600160a01b0384166124b0565b600061172c836001600160a01b0384166124c8565b6000818484111561221d5760405162461bcd60e51b81526004018080602001828103825283818151815260200191508051906020019080838360005b838110156121e25781810151838201526020016121ca565b50505050905090810190601f16801561220f5780820380516001836020036101000a031916815260200191505b509250505060405180910390fd5b505050900390565b600081836122745760405162461bcd60e51b81526020600482018181528351602484015283519092839260449091019190850190808383600083156121e25781810151838201526020016121ca565b50600083858161228057fe5b0495945050505050565b815460009082106122cc5760405162461bcd60e51b815260040180806020018281038252602281526020018061256c6022913960400191505060405180910390fd5b8260000182815481106122db57fe5b9060005260206000200154905092915050565b600081815260018301602052604081205480156123aa578354600019808301919081019060009087908390811061232157fe5b906000526020600020015490508087600001848154811061233e57fe5b60009182526020808320909101929092558281526001898101909252604090209084019055865487908061236e57fe5b60019003818190600052602060002001600090559055866001016000878152602001908152602001600020600090556001945050505050610f0d565b6000915050610f0d565b5490565b600080826001600160a01b0316846001600160a01b0316141561240c5760405162461bcd60e51b81526004018080602001828103825260238152602001806126b76023913960400191505060405180910390fd5b826001600160a01b0316846001600160a01b03161061242c57828461242f565b83835b90925090506001600160a01b038216610a18576040805162461bcd60e51b815260206004820152601c60248201527f50616e63616b654c6962726172793a205a45524f5f4144445245535300000000604482015290519081900360640190fd5b80516a636f6e736f6c652e6c6f67602083016000808483855afa5050505050565b60009081526001919091016020526040902054151590565b60006124d483836124b0565b61250a57508154600181810184556000848152602080822090930184905584548482528286019093526040902091909155610f0d565b506000610f0d565b6040518060c0016040528060006001600160a01b0316815260200160008152602001600081526020016000815260200160008152602001600081525090565b60405180604001604052806000815260200160008152509056fe456e756d657261626c655365743a20696e646578206f7574206f6620626f756e6473537761704d696e696e673a206e657720726f7574657220697320746865207a65726f20616464726573734f776e61626c653a206e6577206f776e657220697320746865207a65726f2061646472657373537761704d696e696e673a206d757374206c6974746c65207468616e207468652063757272656e7420626c6f636b206e756d626572537761704d696e696e673a20746f6b656e20697320746865207a65726f2061646472657373537761704d696e696e673a2074616b65722073776170206f757470757420697320746865207a65726f2061646472657373537761704d696e696e673a206e6577206f7261636c6520697320746865207a65726f2061646472657373537761704d696e696e673a2063616c6c6572206973206e6f742074686520726f7574657250616e63616b654c6962726172793a204944454e544943414c5f414444524553534553536166654d6174683a206d756c7469706c69636174696f6e206f766572666c6f774f776e61626c653a2063616c6c6572206973206e6f7420746865206f776e6572537761704d696e696e673a2074616b65722073776170206163636f756e7420697320746865207a65726f2061646472657373537761704d696e696e673a2074616b6572207377617020696e70757420697320746865207a65726f2061646472657373a264697066735822122039aaa7aa904e727a2ab43dd61dbe33218e021055af65929ae4cb4c354043de0464736f6c63430007040033",
  "devdoc": {
    "kind": "dev",
    "methods": {
      "owner()": {
        "details": "Returns the address of the current owner."
      },
      "renounceOwnership()": {
        "details": "Leaves the contract without owner. It will not be possible to call `onlyOwner` functions anymore. Can only be called by the current owner. NOTE: Renouncing ownership will leave the contract without an owner, thereby removing any functionality that is only available to the owner."
      },
      "transferOwnership(address)": {
        "details": "Transfers ownership of the contract to a new account (`newOwner`). Can only be called by the current owner."
      }
    },
    "version": 1
  },
  "userdoc": {
    "kind": "user",
    "methods": {},
    "version": 1
  },
  "storageLayout": {
    "storage": [
      {
        "astId": 7,
        "contract": "contracts/farm/SwapMining.sol:SwapMining",
        "label": "_owner",
        "offset": 0,
        "slot": "0",
        "type": "t_address"
      },
      {
        "astId": 5957,
        "contract": "contracts/farm/SwapMining.sol:SwapMining",
        "label": "_whitelist",
        "offset": 0,
        "slot": "1",
        "type": "t_struct(AddressSet)1344_storage"
      },
      {
        "astId": 5959,
        "contract": "contracts/farm/SwapMining.sol:SwapMining",
        "label": "babyPerBlock",
        "offset": 0,
        "slot": "3",
        "type": "t_uint256"
      },
      {
        "astId": 5961,
        "contract": "contracts/farm/SwapMining.sol:SwapMining",
        "label": "startBlock",
        "offset": 0,
        "slot": "4",
        "type": "t_uint256"
      },
      {
        "astId": 5964,
        "contract": "contracts/farm/SwapMining.sol:SwapMining",
        "label": "halvingPeriod",
        "offset": 0,
        "slot": "5",
        "type": "t_uint256"
      },
      {
        "astId": 5967,
        "contract": "contracts/farm/SwapMining.sol:SwapMining",
        "label": "totalAllocPoint",
        "offset": 0,
        "slot": "6",
        "type": "t_uint256"
      },
      {
        "astId": 5969,
        "contract": "contracts/farm/SwapMining.sol:SwapMining",
        "label": "oracle",
        "offset": 0,
        "slot": "7",
        "type": "t_contract(IOracle)5947"
      },
      {
        "astId": 5971,
        "contract": "contracts/farm/SwapMining.sol:SwapMining",
        "label": "router",
        "offset": 0,
        "slot": "8",
        "type": "t_address"
      },
      {
        "astId": 5973,
        "contract": "contracts/farm/SwapMining.sol:SwapMining",
        "label": "factory",
        "offset": 0,
        "slot": "9",
        "type": "t_contract(IBabyFactory)8285"
      },
      {
        "astId": 5975,
        "contract": "contracts/farm/SwapMining.sol:SwapMining",
        "label": "babyToken",
        "offset": 0,
        "slot": "10",
        "type": "t_contract(BabyToken)17422"
      },
      {
        "astId": 5977,
        "contract": "contracts/farm/SwapMining.sol:SwapMining",
        "label": "targetToken",
        "offset": 0,
        "slot": "11",
        "type": "t_address"
      },
      {
        "astId": 5981,
        "contract": "contracts/farm/SwapMining.sol:SwapMining",
        "label": "pairOfPid",
        "offset": 0,
        "slot": "12",
        "type": "t_mapping(t_address,t_uint256)"
      },
      {
        "astId": 6097,
        "contract": "contracts/farm/SwapMining.sol:SwapMining",
        "label": "poolInfo",
        "offset": 0,
        "slot": "13",
        "type": "t_array(t_struct(PoolInfo)6094_storage)dyn_storage"
      },
      {
        "astId": 6103,
        "contract": "contracts/farm/SwapMining.sol:SwapMining",
        "label": "userInfo",
        "offset": 0,
        "slot": "14",
        "type": "t_mapping(t_uint256,t_mapping(t_address,t_struct(UserInfo)6081_storage))"
      }
    ],
    "types": {
      "t_address": {
        "encoding": "inplace",
        "label": "address",
        "numberOfBytes": "20"
      },
      "t_array(t_bytes32)dyn_storage": {
        "base": "t_bytes32",
        "encoding": "dynamic_array",
        "label": "bytes32[]",
        "numberOfBytes": "32"
      },
      "t_array(t_struct(PoolInfo)6094_storage)dyn_storage": {
        "base": "t_struct(PoolInfo)6094_storage",
        "encoding": "dynamic_array",
        "label": "struct SwapMining.PoolInfo[]",
        "numberOfBytes": "32"
      },
      "t_bytes32": {
        "encoding": "inplace",
        "label": "bytes32",
        "numberOfBytes": "32"
      },
      "t_contract(BabyToken)17422": {
        "encoding": "inplace",
        "label": "contract BabyToken",
        "numberOfBytes": "20"
      },
      "t_contract(IBabyFactory)8285": {
        "encoding": "inplace",
        "label": "contract IBabyFactory",
        "numberOfBytes": "20"
      },
      "t_contract(IOracle)5947": {
        "encoding": "inplace",
        "label": "contract IOracle",
        "numberOfBytes": "20"
      },
      "t_mapping(t_address,t_struct(UserInfo)6081_storage)": {
        "encoding": "mapping",
        "key": "t_address",
        "label": "mapping(address => struct SwapMining.UserInfo)",
        "numberOfBytes": "32",
        "value": "t_struct(UserInfo)6081_storage"
      },
      "t_mapping(t_address,t_uint256)": {
        "encoding": "mapping",
        "key": "t_address",
        "label": "mapping(address => uint256)",
        "numberOfBytes": "32",
        "value": "t_uint256"
      },
      "t_mapping(t_bytes32,t_uint256)": {
        "encoding": "mapping",
        "key": "t_bytes32",
        "label": "mapping(bytes32 => uint256)",
        "numberOfBytes": "32",
        "value": "t_uint256"
      },
      "t_mapping(t_uint256,t_mapping(t_address,t_struct(UserInfo)6081_storage))": {
        "encoding": "mapping",
        "key": "t_uint256",
        "label": "mapping(uint256 => mapping(address => struct SwapMining.UserInfo))",
        "numberOfBytes": "32",
        "value": "t_mapping(t_address,t_struct(UserInfo)6081_storage)"
      },
      "t_struct(AddressSet)1344_storage": {
        "encoding": "inplace",
        "label": "struct EnumerableSet.AddressSet",
        "members": [
          {
            "astId": 1343,
            "contract": "contracts/farm/SwapMining.sol:SwapMining",
            "label": "_inner",
            "offset": 0,
            "slot": "0",
            "type": "t_struct(Set)1079_storage"
          }
        ],
        "numberOfBytes": "64"
      },
      "t_struct(PoolInfo)6094_storage": {
        "encoding": "inplace",
        "label": "struct SwapMining.PoolInfo",
        "members": [
          {
            "astId": 6083,
            "contract": "contracts/farm/SwapMining.sol:SwapMining",
            "label": "pair",
            "offset": 0,
            "slot": "0",
            "type": "t_address"
          },
          {
            "astId": 6085,
            "contract": "contracts/farm/SwapMining.sol:SwapMining",
            "label": "quantity",
            "offset": 0,
            "slot": "1",
            "type": "t_uint256"
          },
          {
            "astId": 6087,
            "contract": "contracts/farm/SwapMining.sol:SwapMining",
            "label": "totalQuantity",
            "offset": 0,
            "slot": "2",
            "type": "t_uint256"
          },
          {
            "astId": 6089,
            "contract": "contracts/farm/SwapMining.sol:SwapMining",
            "label": "allocPoint",
            "offset": 0,
            "slot": "3",
            "type": "t_uint256"
          },
          {
            "astId": 6091,
            "contract": "contracts/farm/SwapMining.sol:SwapMining",
            "label": "allocMdxAmount",
            "offset": 0,
            "slot": "4",
            "type": "t_uint256"
          },
          {
            "astId": 6093,
            "contract": "contracts/farm/SwapMining.sol:SwapMining",
            "label": "lastRewardBlock",
            "offset": 0,
            "slot": "5",
            "type": "t_uint256"
          }
        ],
        "numberOfBytes": "192"
      },
      "t_struct(Set)1079_storage": {
        "encoding": "inplace",
        "label": "struct EnumerableSet.Set",
        "members": [
          {
            "astId": 1074,
            "contract": "contracts/farm/SwapMining.sol:SwapMining",
            "label": "_values",
            "offset": 0,
            "slot": "0",
            "type": "t_array(t_bytes32)dyn_storage"
          },
          {
            "astId": 1078,
            "contract": "contracts/farm/SwapMining.sol:SwapMining",
            "label": "_indexes",
            "offset": 0,
            "slot": "1",
            "type": "t_mapping(t_bytes32,t_uint256)"
          }
        ],
        "numberOfBytes": "64"
      },
      "t_struct(UserInfo)6081_storage": {
        "encoding": "inplace",
        "label": "struct SwapMining.UserInfo",
        "members": [
          {
            "astId": 6078,
            "contract": "contracts/farm/SwapMining.sol:SwapMining",
            "label": "quantity",
            "offset": 0,
            "slot": "0",
            "type": "t_uint256"
          },
          {
            "astId": 6080,
            "contract": "contracts/farm/SwapMining.sol:SwapMining",
            "label": "blockNumber",
            "offset": 0,
            "slot": "1",
            "type": "t_uint256"
          }
        ],
        "numberOfBytes": "64"
      },
      "t_uint256": {
        "encoding": "inplace",
        "label": "uint256",
        "numberOfBytes": "32"
      }
    }
  }
}