{
  "address": "0x3ED8546D2f5Cdc4ce913E7aC9F65a58232f1A649",
  "abi": [
    {
      "inputs": [
        {
          "internalType": "address",
          "name": "_token",
          "type": "address"
        },
        {
          "internalType": "address",
          "name": "_receiver",
          "type": "address"
        },
        {
          "internalType": "uint256",
          "name": "_intervalSeconds",
          "type": "uint256"
        },
        {
          "internalType": "uint256",
          "name": "_releaseAmount",
          "type": "uint256"
        }
      ],
      "stateMutability": "nonpayable",
      "type": "constructor"
    },
    {
      "inputs": [],
      "name": "SECONDS_PER_BLOCK",
      "outputs": [
        {
          "internalType": "uint256",
          "name": "",
          "type": "uint256"
        }
      ],
      "stateMutability": "view",
      "type": "function"
    },
    {
      "inputs": [],
      "name": "claim",
      "outputs": [],
      "stateMutability": "nonpayable",
      "type": "function"
    },
    {
      "inputs": [],
      "name": "interval",
      "outputs": [
        {
          "internalType": "uint256",
          "name": "",
          "type": "uint256"
        }
      ],
      "stateMutability": "view",
      "type": "function"
    },
    {
      "inputs": [],
      "name": "lastReleaseAt",
      "outputs": [
        {
          "internalType": "uint256",
          "name": "",
          "type": "uint256"
        }
      ],
      "stateMutability": "view",
      "type": "function"
    },
    {
      "inputs": [],
      "name": "lockInfo",
      "outputs": [
        {
          "internalType": "uint256",
          "name": "amount",
          "type": "uint256"
        },
        {
          "internalType": "uint256",
          "name": "timestamp",
          "type": "uint256"
        }
      ],
      "stateMutability": "view",
      "type": "function"
    },
    {
      "inputs": [],
      "name": "receiver",
      "outputs": [
        {
          "internalType": "address",
          "name": "",
          "type": "address"
        }
      ],
      "stateMutability": "view",
      "type": "function"
    },
    {
      "inputs": [],
      "name": "releaseAmount",
      "outputs": [
        {
          "internalType": "uint256",
          "name": "",
          "type": "uint256"
        }
      ],
      "stateMutability": "view",
      "type": "function"
    },
    {
      "inputs": [],
      "name": "token",
      "outputs": [
        {
          "internalType": "contract IBEP20",
          "name": "",
          "type": "address"
        }
      ],
      "stateMutability": "view",
      "type": "function"
    },
    {
      "inputs": [],
      "name": "totalReleasedAmount",
      "outputs": [
        {
          "internalType": "uint256",
          "name": "",
          "type": "uint256"
        }
      ],
      "stateMutability": "view",
      "type": "function"
    }
  ],
  "transactionHash": "0x8a21a989ca15ab7060c1b12d5e2086de29d68902638346b817a1938e1a4acd4b",
  "args": [
    "0xF610Dd85444DCC945558CdA5f96f3BCd08D4B865",
    "0x5C7b53292f4444674A674667887E781e4C4649d7",
    2592000,
    "5000000000000000000000000"
  ],
  "solcInputHash": "f88cb34825f4720e33b7e4839508bfd7",
  "bytecode": "0x6101006040523480156200001257600080fd5b5060405162000e6d38038062000e6d833981810160405260808110156200003857600080fd5b50805160208201516040830151606090930151919290916001600160a01b0384166200009b576040805162461bcd60e51b815260206004820152600d60248201526c34b63632b3b0b6103a37b5b2b760991b604482015290519081900360640190fd5b6001600160601b0319606085811b821660805284901b1660a052436000556003821162000102576040805162461bcd60e51b815260206004820152601060248201526f1a5b1b1959d85b081a5b9d195c9d985b60821b604482015290519081900360640190fd5b6200015160036200013d600162000129600387620001b460201b620002f91790919060201c565b6200021660201b6200035c1790919060201c565b6200026060201b6200039e1790919060201c565b60c05280620001a7576040805162461bcd60e51b815260206004820152601560248201527f696c6c6567616c2072656c65617365416d6f756e740000000000000000000000604482015290519081900360640190fd5b60e05250620003ae915050565b6000828201838110156200020f576040805162461bcd60e51b815260206004820152601b60248201527f536166654d6174683a206164646974696f6e206f766572666c6f770000000000604482015290519081900360640190fd5b9392505050565b60006200020f83836040518060400160405280601e81526020017f536166654d6174683a207375627472616374696f6e206f766572666c6f770000815250620002aa60201b60201c565b60006200020f83836040518060400160405280601a81526020017f536166654d6174683a206469766973696f6e206279207a65726f0000000000008152506200034560201b60201c565b600081848411156200033d5760405162461bcd60e51b81526004018080602001828103825283818151815260200191508051906020019080838360005b8381101562000301578181015183820152602001620002e7565b50505050905090810190601f1680156200032f5780820380516001836020036101000a031916815260200191505b509250505060405180910390fd5b505050900390565b60008183620003975760405162461bcd60e51b815260206004820181815283516024840152835190928392604490910191908501908083836000831562000301578181015183820152602001620002e7565b506000838581620003a457fe5b0495945050505050565b60805160601c60a05160601c60c05160e051610a56620004176000398061021c528061045552508061015f52806101f8528061027852806103ec52806104285250806101c652806102b35250806101a552806102d7528061047f528061053c5250610a566000f3fe608060405234801561001057600080fd5b50600436106100935760003560e01c8063c062dc5f11610066578063c062dc5f146100cc578063c1d74258146100d4578063db762bc9146100dc578063f7260d3e146100fd578063fc0c546a1461012157610093565b806345eab180146100985780634e71d92d146100b257806383273cd1146100bc578063947a36fb146100c4575b600080fd5b6100a0610129565b60408051918252519081900360200190f35b6100ba61012f565b005b6100a06101f0565b6100a06101f6565b6100a061021a565b6100a061023e565b6100e4610243565b6040805192835260208301919091528051918290030190f35b6101056102b1565b604080516001600160a01b039092168252519081900360200190f35b6101056102d5565b60005481565b60008061013a6103e0565b91509150816000148061014b575080155b156101575750506101ee565b61018d6101847f0000000000000000000000000000000000000000000000000000000000000000836105bb565b600054906102f9565b60005560015461019d90836102f9565b6001556101eb7f00000000000000000000000000000000000000000000000000000000000000007f000000000000000000000000000000000000000000000000000000000000000084610614565b50505b565b60015481565b7f000000000000000000000000000000000000000000000000000000000000000081565b7f000000000000000000000000000000000000000000000000000000000000000081565b600381565b60008061024e6103e0565b509150816102ad576102aa6102a3600361029d6102766000544361035c90919063ffffffff16565b7f00000000000000000000000000000000000000000000000000000000000000009061035c565b906105bb565b42906102f9565b90505b9091565b7f000000000000000000000000000000000000000000000000000000000000000081565b7f000000000000000000000000000000000000000000000000000000000000000081565b600082820183811015610353576040805162461bcd60e51b815260206004820152601b60248201527f536166654d6174683a206164646974696f6e206f766572666c6f770000000000604482015290519081900360640190fd5b90505b92915050565b600061035383836040518060400160405280601e81526020017f536166654d6174683a207375627472616374696f6e206f766572666c6f77000081525061066b565b600061035383836040518060400160405280601a81526020017f536166654d6174683a206469766973696f6e206279207a65726f000000000000815250610702565b600080548190439081037f0000000000000000000000000000000000000000000000000000000000000000811015610420576000809350935050506102ad565b600061044c827f000000000000000000000000000000000000000000000000000000000000000061039e565b9050600061047a7f0000000000000000000000000000000000000000000000000000000000000000836105bb565b9050807f00000000000000000000000000000000000000000000000000000000000000006001600160a01b03166370a08231306040518263ffffffff1660e01b815260040180826001600160a01b0316815260200191505060206040518083038186803b1580156104ea57600080fd5b505afa1580156104fe573d6000803e3d6000fd5b505050506040513d602081101561051457600080fd5b505110156105b157604080516370a0823160e01b815230600482015290516001600160a01b037f000000000000000000000000000000000000000000000000000000000000000016916370a08231916024808301926020929190829003018186803b15801561058257600080fd5b505afa158015610596573d6000803e3d6000fd5b505050506040513d60208110156105ac57600080fd5b505190505b9450925050509091565b6000826105ca57506000610356565b828202828482816105d757fe5b04146103535760405162461bcd60e51b8152600401808060200182810382526021815260200180610a006021913960400191505060405180910390fd5b604080516001600160a01b038416602482015260448082018490528251808303909101815260649091019091526020810180516001600160e01b031663a9059cbb60e01b179052610666908490610767565b505050565b600081848411156106fa5760405162461bcd60e51b81526004018080602001828103825283818151815260200191508051906020019080838360005b838110156106bf5781810151838201526020016106a7565b50505050905090810190601f1680156106ec5780820380516001836020036101000a031916815260200191505b509250505060405180910390fd5b505050900390565b600081836107515760405162461bcd60e51b81526020600482018181528351602484015283519092839260449091019190850190808383600083156106bf5781810151838201526020016106a7565b50600083858161075d57fe5b0495945050505050565b60606107bc826040518060400160405280602081526020017f5361666542455032303a206c6f772d6c6576656c2063616c6c206661696c6564815250856001600160a01b03166108189092919063ffffffff16565b805190915015610666578080602001905160208110156107db57600080fd5b50516106665760405162461bcd60e51b815260040180806020018281038252602a8152602001806109d6602a913960400191505060405180910390fd5b6060610827848460008561082f565b949350505050565b606061083a8561099c565b61088b576040805162461bcd60e51b815260206004820152601d60248201527f416464726573733a2063616c6c20746f206e6f6e2d636f6e7472616374000000604482015290519081900360640190fd5b60006060866001600160a01b031685876040518082805190602001908083835b602083106108ca5780518252601f1990920191602091820191016108ab565b6001836020036101000a03801982511681845116808217855250505050505090500191505060006040518083038185875af1925050503d806000811461092c576040519150601f19603f3d011682016040523d82523d6000602084013e610931565b606091505b509150915081156109455791506108279050565b8051156109555780518082602001fd5b60405162461bcd60e51b81526020600482018181528651602484015286518793919283926044019190850190808383600083156106bf5781810151838201526020016106a7565b6000813f7fc5d2460186f7233c927e7db2dcc703c0e500b653ca82273b7bfad8045d85a47081811480159061082757505015159291505056fe5361666542455032303a204245503230206f7065726174696f6e20646964206e6f742073756363656564536166654d6174683a206d756c7469706c69636174696f6e206f766572666c6f77a264697066735822122028d187c85213ec3115ac8bb7cb6ae5f7a6fc3a02aa125d2050545899030af8b264736f6c63430007040033",
  "devdoc": {
    "kind": "dev",
    "methods": {},
    "version": 1
  },
  "userdoc": {
    "kind": "user",
    "methods": {
      "SECONDS_PER_BLOCK()": {
        "notice": "every block cast 3 seconds"
      },
      "interval()": {
        "notice": "how many block must be passed before next release"
      },
      "lastReleaseAt()": {
        "notice": "the blockNum of last release, the init value would be the timestamp the contract created"
      },
      "lockInfo()": {
        "notice": "return the amount we can claim now, and the next timestamp we can claim next time"
      },
      "receiver()": {
        "notice": "who will receive this token"
      },
      "releaseAmount()": {
        "notice": "the amount of one release time"
      },
      "token()": {
        "notice": "the token to lock"
      },
      "totalReleasedAmount()": {
        "notice": "the total amount till now"
      }
    },
    "version": 1
  },
  "storageLayout": {
    "storage": [
      {
        "astId": 17657,
        "contract": "contracts/token/TokenLocker.sol:TokenLocker",
        "label": "lastReleaseAt",
        "offset": 0,
        "slot": "0",
        "type": "t_uint256"
      },
      {
        "astId": 17666,
        "contract": "contracts/token/TokenLocker.sol:TokenLocker",
        "label": "totalReleasedAmount",
        "offset": 0,
        "slot": "1",
        "type": "t_uint256"
      }
    ],
    "types": {
      "t_uint256": {
        "encoding": "inplace",
        "label": "uint256",
        "numberOfBytes": "32"
      }
    }
  }
}