{
  "address": "0x48c3fB5d1c8820bF867eFE1d8217C41eA208baf1",
  "abi": [
    {
      "inputs": [
        {
          "internalType": "address",
          "name": "bottle_",
          "type": "address"
        },
        {
          "internalType": "address",
          "name": "vault_",
          "type": "address"
        },
        {
          "internalType": "contract IBabyRouter",
          "name": "router_",
          "type": "address"
        },
        {
          "internalType": "contract IBabyFactory",
          "name": "factory_",
          "type": "address"
        },
        {
          "internalType": "address",
          "name": "WBNB_",
          "type": "address"
        },
        {
          "internalType": "address",
          "name": "BABY_",
          "type": "address"
        },
        {
          "internalType": "address",
          "name": "USDT_",
          "type": "address"
        },
        {
          "internalType": "address",
          "name": "receiver_",
          "type": "address"
        }
      ],
      "stateMutability": "nonpayable",
      "type": "constructor"
    },
    {
      "anonymous": false,
      "inputs": [
        {
          "indexed": true,
          "internalType": "address",
          "name": "previousOwner",
          "type": "address"
        },
        {
          "indexed": true,
          "internalType": "address",
          "name": "newOwner",
          "type": "address"
        }
      ],
      "name": "OwnershipTransferred",
      "type": "event"
    },
    {
      "inputs": [],
      "name": "BABY",
      "outputs": [
        {
          "internalType": "address",
          "name": "",
          "type": "address"
        }
      ],
      "stateMutability": "view",
      "type": "function"
    },
    {
      "inputs": [],
      "name": "USDT",
      "outputs": [
        {
          "internalType": "address",
          "name": "",
          "type": "address"
        }
      ],
      "stateMutability": "view",
      "type": "function"
    },
    {
      "inputs": [],
      "name": "WBNB",
      "outputs": [
        {
          "internalType": "address",
          "name": "",
          "type": "address"
        }
      ],
      "stateMutability": "view",
      "type": "function"
    },
    {
      "inputs": [],
      "name": "bottle",
      "outputs": [
        {
          "internalType": "address",
          "name": "",
          "type": "address"
        }
      ],
      "stateMutability": "view",
      "type": "function"
    },
    {
      "inputs": [],
      "name": "destroyAll",
      "outputs": [],
      "stateMutability": "nonpayable",
      "type": "function"
    },
    {
      "inputs": [
        {
          "internalType": "address[]",
          "name": "pairs",
          "type": "address[]"
        },
        {
          "internalType": "uint256",
          "name": "minAmount",
          "type": "uint256"
        }
      ],
      "name": "doHardwork",
      "outputs": [],
      "stateMutability": "nonpayable",
      "type": "function"
    },
    {
      "inputs": [],
      "name": "factory",
      "outputs": [
        {
          "internalType": "contract IBabyFactory",
          "name": "",
          "type": "address"
        }
      ],
      "stateMutability": "view",
      "type": "function"
    },
    {
      "inputs": [],
      "name": "hole",
      "outputs": [
        {
          "internalType": "address",
          "name": "",
          "type": "address"
        }
      ],
      "stateMutability": "view",
      "type": "function"
    },
    {
      "inputs": [],
      "name": "owner",
      "outputs": [
        {
          "internalType": "address",
          "name": "",
          "type": "address"
        }
      ],
      "stateMutability": "view",
      "type": "function"
    },
    {
      "inputs": [],
      "name": "receiver",
      "outputs": [
        {
          "internalType": "address",
          "name": "",
          "type": "address"
        }
      ],
      "stateMutability": "view",
      "type": "function"
    },
    {
      "inputs": [],
      "name": "renounceOwnership",
      "outputs": [],
      "stateMutability": "nonpayable",
      "type": "function"
    },
    {
      "inputs": [],
      "name": "router",
      "outputs": [
        {
          "internalType": "contract IBabyRouter",
          "name": "",
          "type": "address"
        }
      ],
      "stateMutability": "view",
      "type": "function"
    },
    {
      "inputs": [
        {
          "internalType": "address",
          "name": "token",
          "type": "address"
        },
        {
          "internalType": "uint256",
          "name": "amount",
          "type": "uint256"
        }
      ],
      "name": "transferOut",
      "outputs": [],
      "stateMutability": "nonpayable",
      "type": "function"
    },
    {
      "inputs": [
        {
          "internalType": "address",
          "name": "newOwner",
          "type": "address"
        }
      ],
      "name": "transferOwnership",
      "outputs": [],
      "stateMutability": "nonpayable",
      "type": "function"
    },
    {
      "inputs": [],
      "name": "vault",
      "outputs": [
        {
          "internalType": "address",
          "name": "",
          "type": "address"
        }
      ],
      "stateMutability": "view",
      "type": "function"
    }
  ],
  "transactionHash": "0x0493bbbea20e0f7c1fa430efbeb54db446f142b6663e4fa7d9fb208aa2a154a3",
  "args": [
    "0xB913D7e4D26f06F05035c49113A26C1FD383766C",
    "0x053322176C6E2B5cAeb92F5C943546DB53a2E2Fa",
    "0x325E343f1dE602396E256B67eFd1F61C3A6B38Bd",
    "0x86407bEa2078ea5f5EB5A52B2caA963bC1F889Da",
    "0xbb4CdB9CBd36B01bD1cBaEBF2De08d9173bc095c",
    "0x53E562b9B7E5E94b81f10e96Ee70Ad06df3D2657",
    "0x55d398326f99059fF775485246999027B3197955",
    "0xC0a56aeE755Bd397235367008f7c2c4599768395"
  ],
  "solcInputHash": "e606a5398a2ed8092c55d3ddbb1601c2",
  "bytecode": "0x61018060405234801561001157600080fd5b50604051611a12380380611a12833981810160405261010081101561003557600080fd5b508051602082015160408301516060840151608085015160a086015160c087015160e090970151959694959394929391929091600061007261010d565b600080546001600160a01b0319166001600160a01b0383169081178255604051929350917f8be0079c531659141344cd1fd0a4f28419497f9722a3daafe3b4186f6b6457e0908290a3506001600160601b0319606098891b811660805296881b871660a05294871b861660c05292861b851660e05290851b841661010052841b831661012052831b82166101405290911b1661016052610111565b3390565b60805160601c60a05160601c60c05160601c60e05160601c6101005160601c6101205160601c6101405160601c6101605160601c61181e6101f46000398061088752806112255250806102b25280610350528061039b5280610437528061051a52806109355280610a985280610b395280610c855280610eb65280610fc75250806103e95280610697528061071252806112915250806108e75250806109115250806104e652806105da5280610e045280610f0352806110a45280611177528061124952508061126d528061137e5250806108b452806112d9525061181e6000f3fe608060405234801561001057600080fd5b50600436106100f55760003560e01c8063c45a015511610097578063f7260d3e11610066578063f7260d3e1461021a578063f887ea4014610222578063fbfa77cf1461022a578063fe22dd8514610232576100f5565b8063c45a015514610174578063c54e44eb1461017c578063f2fde38b14610184578063f2fe1557146101aa576100f5565b8063826d9c0f116100d3578063826d9c0f146101385780638da5cb5b1461015c5780638dd95002146101645780639e3ce1cf1461016c576100f5565b806315729016146100fa578063715018a61461010457806376890c581461010c575b600080fd5b61010261023a565b005b61010261073e565b6101026004803603604081101561012257600080fd5b506001600160a01b0381351690602001356107fc565b6101406108b2565b604080516001600160a01b039092168252519081900360200190f35b6101406108d6565b6101406108e5565b610140610909565b61014061090f565b610140610933565b6101026004803603602081101561019a57600080fd5b50356001600160a01b0316610957565b610102600480360360408110156101c057600080fd5b8101906020810181356401000000008111156101db57600080fd5b8201836020820111156101ed57600080fd5b8035906020019184602083028401116401000000008311171561020f57600080fd5b919350915035610a6b565b610140611223565b610140611247565b61014061126b565b61014061128f565b6102426112b3565b6001600160a01b03166102536108d6565b6001600160a01b0316146102ae576040805162461bcd60e51b815260206004820181905260248201527f4f776e61626c653a2063616c6c6572206973206e6f7420746865206f776e6572604482015290519081900360640190fd5b60007f00000000000000000000000000000000000000000000000000000000000000006001600160a01b03166370a08231306040518263ffffffff1660e01b815260040180826001600160a01b0316815260200191505060206040518083038186803b15801561031d57600080fd5b505afa158015610331573d6000803e3d6000fd5b505050506040513d602081101561034757600080fd5b505190506103757f0000000000000000000000000000000000000000000000000000000000000000826112b7565b6040805160028082526060808301845293945090916020830190803683370190505090507f0000000000000000000000000000000000000000000000000000000000000000816000815181106103c757fe5b60200260200101906001600160a01b031690816001600160a01b0316815250507f00000000000000000000000000000000000000000000000000000000000000008160018151811061041557fe5b60200260200101906001600160a01b031690816001600160a01b0316815250507f00000000000000000000000000000000000000000000000000000000000000006001600160a01b03166370a08231306040518263ffffffff1660e01b815260040180826001600160a01b0316815260200191505060206040518083038186803b1580156104a257600080fd5b505afa1580156104b6573d6000803e3d6000fd5b505050506040513d60208110156104cc57600080fd5b50516040805163095ea7b360e01b81526001600160a01b037f0000000000000000000000000000000000000000000000000000000000000000811660048301526024820184905291519294507f00000000000000000000000000000000000000000000000000000000000000009091169163095ea7b3916044808201926020929091908290030181600087803b15801561056557600080fd5b505af1158015610579573d6000803e3d6000fd5b505050506040513d602081101561058f57600080fd5b5050604051635c11d79560e01b8152600481018381526000602483018190523060648401819052426084850181905260a060448601908152865160a487015286516001600160a01b037f00000000000000000000000000000000000000000000000000000000000000001696635c11d795968a96958a95909490939192909160c490910190602087810191028083838b5b83811015610638578181015183820152602001610620565b505050509050019650505050505050600060405180830381600087803b15801561066157600080fd5b505af1158015610675573d6000803e3d6000fd5b5050604080516370a0823160e01b815230600482015290516001600160a01b037f00000000000000000000000000000000000000000000000000000000000000001693506370a0823192506024808301926020929190829003018186803b1580156106df57600080fd5b505afa1580156106f3573d6000803e3d6000fd5b505050506040513d602081101561070957600080fd5b5051915061073a7f000000000000000000000000000000000000000000000000000000000000000061dead84611305565b5050565b6107466112b3565b6001600160a01b03166107576108d6565b6001600160a01b0316146107b2576040805162461bcd60e51b815260206004820181905260248201527f4f776e61626c653a2063616c6c6572206973206e6f7420746865206f776e6572604482015290519081900360640190fd5b600080546040516001600160a01b03909116907f8be0079c531659141344cd1fd0a4f28419497f9722a3daafe3b4186f6b6457e0908390a3600080546001600160a01b0319169055565b604080516370a0823160e01b8152306004820152905183916000916001600160a01b038416916370a08231916024808301926020929190829003018186803b15801561084757600080fd5b505afa15801561085b573d6000803e3d6000fd5b505050506040513d602081101561087157600080fd5b5051905082811015610881578092505b6108ac827f000000000000000000000000000000000000000000000000000000000000000085611305565b50505050565b7f000000000000000000000000000000000000000000000000000000000000000081565b6000546001600160a01b031690565b7f000000000000000000000000000000000000000000000000000000000000000081565b61dead81565b7f000000000000000000000000000000000000000000000000000000000000000081565b7f000000000000000000000000000000000000000000000000000000000000000081565b61095f6112b3565b6001600160a01b03166109706108d6565b6001600160a01b0316146109cb576040805162461bcd60e51b815260206004820181905260248201527f4f776e61626c653a2063616c6c6572206973206e6f7420746865206f776e6572604482015290519081900360640190fd5b6001600160a01b038116610a105760405162461bcd60e51b81526004018080602001828103825260268152602001806117c36026913960400191505060405180910390fd5b600080546040516001600160a01b03808516939216917f8be0079c531659141344cd1fd0a4f28419497f9722a3daafe3b4186f6b6457e091a3600080546001600160a01b0319166001600160a01b0392909216919091179055565b60005b828110156108ac576000848483818110610a8457fe5b905060200201356001600160a01b031690507f00000000000000000000000000000000000000000000000000000000000000006001600160a01b0316816001600160a01b0316630dfe16816040518163ffffffff1660e01b815260040160206040518083038186803b158015610af957600080fd5b505afa158015610b0d573d6000803e3d6000fd5b505050506040513d6020811015610b2357600080fd5b50516001600160a01b031614801590610bd257507f00000000000000000000000000000000000000000000000000000000000000006001600160a01b0316816001600160a01b031663d21220a76040518163ffffffff1660e01b815260040160206040518083038186803b158015610b9a57600080fd5b505afa158015610bae573d6000803e3d6000fd5b505050506040513d6020811015610bc457600080fd5b50516001600160a01b031614155b15610bdd575061121b565b6000816001600160a01b03166370a08231306040518263ffffffff1660e01b815260040180826001600160a01b0316815260200191505060206040518083038186803b158015610c2c57600080fd5b505afa158015610c40573d6000803e3d6000fd5b505050506040513d6020811015610c5657600080fd5b5051905080610c6657505061121b565b83811015610c7557505061121b565b610c7f828261135c565b905060007f00000000000000000000000000000000000000000000000000000000000000006001600160a01b0316836001600160a01b0316630dfe16816040518163ffffffff1660e01b815260040160206040518083038186803b158015610ce657600080fd5b505afa158015610cfa573d6000803e3d6000fd5b505050506040513d6020811015610d1057600080fd5b50516001600160a01b03161415610d8b57826001600160a01b031663d21220a76040518163ffffffff1660e01b815260040160206040518083038186803b158015610d5a57600080fd5b505afa158015610d6e573d6000803e3d6000fd5b505050506040513d6020811015610d8457600080fd5b5051610df1565b826001600160a01b0316630dfe16816040518163ffffffff1660e01b815260040160206040518083038186803b158015610dc457600080fd5b505afa158015610dd8573d6000803e3d6000fd5b505050506040513d6020811015610dee57600080fd5b50515b9050826001600160a01b031663095ea7b37f0000000000000000000000000000000000000000000000000000000000000000846040518363ffffffff1660e01b815260040180836001600160a01b0316815260200182815260200192505050602060405180830381600087803b158015610e6a57600080fd5b505af1158015610e7e573d6000803e3d6000fd5b505050506040513d6020811015610e9457600080fd5b505060408051635d5155ef60e11b81526001600160a01b0383811660048301527f00000000000000000000000000000000000000000000000000000000000000008116602483015260448201859052600060648301819052608483018190523060a48401524260c484015283517f00000000000000000000000000000000000000000000000000000000000000009092169363baa2abde9360e4808201949293918390030190829087803b158015610f4b57600080fd5b505af1158015610f5f573d6000803e3d6000fd5b505050506040513d6040811015610f7557600080fd5b505060408051600280825260608083018452926020830190803683370190505090508181600081518110610fa557fe5b60200260200101906001600160a01b031690816001600160a01b0316815250507f000000000000000000000000000000000000000000000000000000000000000081600181518110610ff357fe5b60200260200101906001600160a01b031690816001600160a01b031681525050816001600160a01b03166370a08231306040518263ffffffff1660e01b815260040180826001600160a01b0316815260200191505060206040518083038186803b15801561106057600080fd5b505afa158015611074573d6000803e3d6000fd5b505050506040513d602081101561108a57600080fd5b50516040805163095ea7b360e01b81526001600160a01b037f0000000000000000000000000000000000000000000000000000000000000000811660048301526024820184905291519295509084169163095ea7b3916044808201926020929091908290030181600087803b15801561110257600080fd5b505af1158015611116573d6000803e3d6000fd5b505050506040513d602081101561112c57600080fd5b5050604051635c11d79560e01b8152600481018481526000602483018190523060648401819052426084850181905260a060448601908152865160a487015286516001600160a01b037f00000000000000000000000000000000000000000000000000000000000000001696635c11d795968b96958a95909490939192909160c490910190602087810191028083838b5b838110156111d55781810151838201526020016111bd565b505050509050019650505050505050600060405180830381600087803b1580156111fe57600080fd5b505af1158015611212573d6000803e3d6000fd5b50505050505050505b600101610a6e565b7f000000000000000000000000000000000000000000000000000000000000000081565b7f000000000000000000000000000000000000000000000000000000000000000081565b7f000000000000000000000000000000000000000000000000000000000000000081565b7f000000000000000000000000000000000000000000000000000000000000000081565b3390565b6000806112c58360026113a3565b90506112d183826113ec565b91506112fe847f000000000000000000000000000000000000000000000000000000000000000083611305565b5092915050565b604080516001600160a01b038416602482015260448082018490528251808303909101815260649091019091526020810180516001600160e01b031663a9059cbb60e01b17905261135790849061142e565b505050565b60008061136a8360036113a3565b905061137683826113ec565b91506112fe847f000000000000000000000000000000000000000000000000000000000000000083611305565b60006113e583836040518060400160405280601a81526020017f536166654d6174683a206469766973696f6e206279207a65726f0000000000008152506114df565b9392505050565b60006113e583836040518060400160405280601e81526020017f536166654d6174683a207375627472616374696f6e206f766572666c6f770000815250611581565b6060611483826040518060400160405280602081526020017f5361666542455032303a206c6f772d6c6576656c2063616c6c206661696c6564815250856001600160a01b03166115db9092919063ffffffff16565b805190915015611357578080602001905160208110156114a257600080fd5b50516113575760405162461bcd60e51b815260040180806020018281038252602a815260200180611799602a913960400191505060405180910390fd5b6000818361156b5760405162461bcd60e51b81526004018080602001828103825283818151815260200191508051906020019080838360005b83811015611530578181015183820152602001611518565b50505050905090810190601f16801561155d5780820380516001836020036101000a031916815260200191505b509250505060405180910390fd5b50600083858161157757fe5b0495945050505050565b600081848411156115d35760405162461bcd60e51b8152602060048201818152835160248401528351909283926044909101919085019080838360008315611530578181015183820152602001611518565b505050900390565b60606115ea84846000856115f2565b949350505050565b60606115fd8561175f565b61164e576040805162461bcd60e51b815260206004820152601d60248201527f416464726573733a2063616c6c20746f206e6f6e2d636f6e7472616374000000604482015290519081900360640190fd5b60006060866001600160a01b031685876040518082805190602001908083835b6020831061168d5780518252601f19909201916020918201910161166e565b6001836020036101000a03801982511681845116808217855250505050505090500191505060006040518083038185875af1925050503d80600081146116ef576040519150601f19603f3d011682016040523d82523d6000602084013e6116f4565b606091505b509150915081156117085791506115ea9050565b8051156117185780518082602001fd5b60405162461bcd60e51b8152602060048201818152865160248401528651879391928392604401919085019080838360008315611530578181015183820152602001611518565b6000813f7fc5d2460186f7233c927e7db2dcc703c0e500b653ca82273b7bfad8045d85a4708181148015906115ea57505015159291505056fe5361666542455032303a204245503230206f7065726174696f6e20646964206e6f7420737563636565644f776e61626c653a206e6577206f776e657220697320746865207a65726f2061646472657373a264697066735822122063d33959a027c3b30233ef994251e513a991c5aeae200cfc798eaaa57465417464736f6c63430007040033",
  "devdoc": {
    "kind": "dev",
    "methods": {
      "owner()": {
        "details": "Returns the address of the current owner."
      },
      "renounceOwnership()": {
        "details": "Leaves the contract without owner. It will not be possible to call `onlyOwner` functions anymore. Can only be called by the current owner. NOTE: Renouncing ownership will leave the contract without an owner, thereby removing any functionality that is only available to the owner."
      },
      "transferOwnership(address)": {
        "details": "Transfers ownership of the contract to a new account (`newOwner`). Can only be called by the current owner."
      }
    },
    "version": 1
  },
  "userdoc": {
    "kind": "user",
    "methods": {},
    "version": 1
  },
  "storageLayout": {
    "storage": [
      {
        "astId": 7,
        "contract": "contracts/swap/BabySwapFee.sol:BabySwapFee",
        "label": "_owner",
        "offset": 0,
        "slot": "0",
        "type": "t_address"
      }
    ],
    "types": {
      "t_address": {
        "encoding": "inplace",
        "label": "address",
        "numberOfBytes": "20"
      }
    }
  }
}