{
  "address": "0xdfAa0e08e357dB0153927C7EaBB492d1F60aC730",
  "abi": [
    {
      "inputs": [
        {
          "internalType": "contract BabyToken",
          "name": "_cake",
          "type": "address"
        },
        {
          "internalType": "contract SyrupBar",
          "name": "_syrup",
          "type": "address"
        },
        {
          "internalType": "uint256",
          "name": "_cakePerBlock",
          "type": "uint256"
        },
        {
          "internalType": "uint256",
          "name": "_startBlock",
          "type": "uint256"
        }
      ],
      "stateMutability": "nonpayable",
      "type": "constructor"
    },
    {
      "anonymous": false,
      "inputs": [
        {
          "indexed": true,
          "internalType": "address",
          "name": "user",
          "type": "address"
        },
        {
          "indexed": true,
          "internalType": "uint256",
          "name": "pid",
          "type": "uint256"
        },
        {
          "indexed": false,
          "internalType": "uint256",
          "name": "amount",
          "type": "uint256"
        }
      ],
      "name": "Deposit",
      "type": "event"
    },
    {
      "anonymous": false,
      "inputs": [
        {
          "indexed": true,
          "internalType": "address",
          "name": "user",
          "type": "address"
        },
        {
          "indexed": true,
          "internalType": "uint256",
          "name": "pid",
          "type": "uint256"
        },
        {
          "indexed": false,
          "internalType": "uint256",
          "name": "amount",
          "type": "uint256"
        }
      ],
      "name": "EmergencyWithdraw",
      "type": "event"
    },
    {
      "anonymous": false,
      "inputs": [
        {
          "indexed": true,
          "internalType": "address",
          "name": "previousOwner",
          "type": "address"
        },
        {
          "indexed": true,
          "internalType": "address",
          "name": "newOwner",
          "type": "address"
        }
      ],
      "name": "OwnershipTransferred",
      "type": "event"
    },
    {
      "anonymous": false,
      "inputs": [
        {
          "indexed": true,
          "internalType": "address",
          "name": "user",
          "type": "address"
        },
        {
          "indexed": true,
          "internalType": "uint256",
          "name": "pid",
          "type": "uint256"
        },
        {
          "indexed": false,
          "internalType": "uint256",
          "name": "amount",
          "type": "uint256"
        }
      ],
      "name": "Withdraw",
      "type": "event"
    },
    {
      "inputs": [],
      "name": "BONUS_MULTIPLIER",
      "outputs": [
        {
          "internalType": "uint256",
          "name": "",
          "type": "uint256"
        }
      ],
      "stateMutability": "view",
      "type": "function"
    },
    {
      "inputs": [
        {
          "internalType": "uint256",
          "name": "_allocPoint",
          "type": "uint256"
        },
        {
          "internalType": "contract IBEP20",
          "name": "_lpToken",
          "type": "address"
        },
        {
          "internalType": "bool",
          "name": "_withUpdate",
          "type": "bool"
        }
      ],
      "name": "add",
      "outputs": [],
      "stateMutability": "nonpayable",
      "type": "function"
    },
    {
      "inputs": [],
      "name": "cake",
      "outputs": [
        {
          "internalType": "contract BabyToken",
          "name": "",
          "type": "address"
        }
      ],
      "stateMutability": "view",
      "type": "function"
    },
    {
      "inputs": [],
      "name": "cakePerBlock",
      "outputs": [
        {
          "internalType": "uint256",
          "name": "",
          "type": "uint256"
        }
      ],
      "stateMutability": "view",
      "type": "function"
    },
    {
      "inputs": [
        {
          "internalType": "uint256",
          "name": "_pid",
          "type": "uint256"
        },
        {
          "internalType": "uint256",
          "name": "_amount",
          "type": "uint256"
        }
      ],
      "name": "deposit",
      "outputs": [],
      "stateMutability": "nonpayable",
      "type": "function"
    },
    {
      "inputs": [
        {
          "internalType": "uint256",
          "name": "_pid",
          "type": "uint256"
        }
      ],
      "name": "emergencyWithdraw",
      "outputs": [],
      "stateMutability": "nonpayable",
      "type": "function"
    },
    {
      "inputs": [
        {
          "internalType": "uint256",
          "name": "_amount",
          "type": "uint256"
        }
      ],
      "name": "enterStaking",
      "outputs": [],
      "stateMutability": "nonpayable",
      "type": "function"
    },
    {
      "inputs": [
        {
          "internalType": "uint256",
          "name": "_from",
          "type": "uint256"
        },
        {
          "internalType": "uint256",
          "name": "_to",
          "type": "uint256"
        }
      ],
      "name": "getMultiplier",
      "outputs": [
        {
          "internalType": "uint256",
          "name": "",
          "type": "uint256"
        }
      ],
      "stateMutability": "view",
      "type": "function"
    },
    {
      "inputs": [
        {
          "internalType": "uint256",
          "name": "_amount",
          "type": "uint256"
        }
      ],
      "name": "leaveStaking",
      "outputs": [],
      "stateMutability": "nonpayable",
      "type": "function"
    },
    {
      "inputs": [],
      "name": "massUpdatePools",
      "outputs": [],
      "stateMutability": "nonpayable",
      "type": "function"
    },
    {
      "inputs": [
        {
          "internalType": "uint256",
          "name": "_pid",
          "type": "uint256"
        }
      ],
      "name": "migrate",
      "outputs": [],
      "stateMutability": "nonpayable",
      "type": "function"
    },
    {
      "inputs": [],
      "name": "migrator",
      "outputs": [
        {
          "internalType": "contract IMigratorChef",
          "name": "",
          "type": "address"
        }
      ],
      "stateMutability": "view",
      "type": "function"
    },
    {
      "inputs": [],
      "name": "owner",
      "outputs": [
        {
          "internalType": "address",
          "name": "",
          "type": "address"
        }
      ],
      "stateMutability": "view",
      "type": "function"
    },
    {
      "inputs": [
        {
          "internalType": "uint256",
          "name": "_pid",
          "type": "uint256"
        },
        {
          "internalType": "address",
          "name": "_user",
          "type": "address"
        }
      ],
      "name": "pendingCake",
      "outputs": [
        {
          "internalType": "uint256",
          "name": "",
          "type": "uint256"
        }
      ],
      "stateMutability": "view",
      "type": "function"
    },
    {
      "inputs": [
        {
          "internalType": "uint256",
          "name": "",
          "type": "uint256"
        }
      ],
      "name": "poolInfo",
      "outputs": [
        {
          "internalType": "contract IBEP20",
          "name": "lpToken",
          "type": "address"
        },
        {
          "internalType": "uint256",
          "name": "allocPoint",
          "type": "uint256"
        },
        {
          "internalType": "uint256",
          "name": "lastRewardBlock",
          "type": "uint256"
        },
        {
          "internalType": "uint256",
          "name": "accCakePerShare",
          "type": "uint256"
        }
      ],
      "stateMutability": "view",
      "type": "function"
    },
    {
      "inputs": [],
      "name": "poolLength",
      "outputs": [
        {
          "internalType": "uint256",
          "name": "",
          "type": "uint256"
        }
      ],
      "stateMutability": "view",
      "type": "function"
    },
    {
      "inputs": [],
      "name": "renounceOwnership",
      "outputs": [],
      "stateMutability": "nonpayable",
      "type": "function"
    },
    {
      "inputs": [
        {
          "internalType": "uint256",
          "name": "_pid",
          "type": "uint256"
        },
        {
          "internalType": "uint256",
          "name": "_allocPoint",
          "type": "uint256"
        },
        {
          "internalType": "bool",
          "name": "_withUpdate",
          "type": "bool"
        }
      ],
      "name": "set",
      "outputs": [],
      "stateMutability": "nonpayable",
      "type": "function"
    },
    {
      "inputs": [
        {
          "internalType": "contract IMigratorChef",
          "name": "_migrator",
          "type": "address"
        }
      ],
      "name": "setMigrator",
      "outputs": [],
      "stateMutability": "nonpayable",
      "type": "function"
    },
    {
      "inputs": [],
      "name": "startBlock",
      "outputs": [
        {
          "internalType": "uint256",
          "name": "",
          "type": "uint256"
        }
      ],
      "stateMutability": "view",
      "type": "function"
    },
    {
      "inputs": [],
      "name": "syrup",
      "outputs": [
        {
          "internalType": "contract SyrupBar",
          "name": "",
          "type": "address"
        }
      ],
      "stateMutability": "view",
      "type": "function"
    },
    {
      "inputs": [],
      "name": "totalAllocPoint",
      "outputs": [
        {
          "internalType": "uint256",
          "name": "",
          "type": "uint256"
        }
      ],
      "stateMutability": "view",
      "type": "function"
    },
    {
      "inputs": [
        {
          "internalType": "address",
          "name": "newOwner_",
          "type": "address"
        }
      ],
      "name": "transferBabyTokenOwnerShip",
      "outputs": [],
      "stateMutability": "nonpayable",
      "type": "function"
    },
    {
      "inputs": [
        {
          "internalType": "address",
          "name": "newOwner",
          "type": "address"
        }
      ],
      "name": "transferOwnership",
      "outputs": [],
      "stateMutability": "nonpayable",
      "type": "function"
    },
    {
      "inputs": [
        {
          "internalType": "address",
          "name": "newOwner_",
          "type": "address"
        }
      ],
      "name": "transferSyrupOwnerShip",
      "outputs": [],
      "stateMutability": "nonpayable",
      "type": "function"
    },
    {
      "inputs": [
        {
          "internalType": "uint256",
          "name": "multiplierNumber",
          "type": "uint256"
        }
      ],
      "name": "updateMultiplier",
      "outputs": [],
      "stateMutability": "nonpayable",
      "type": "function"
    },
    {
      "inputs": [
        {
          "internalType": "uint256",
          "name": "_pid",
          "type": "uint256"
        }
      ],
      "name": "updatePool",
      "outputs": [],
      "stateMutability": "nonpayable",
      "type": "function"
    },
    {
      "inputs": [
        {
          "internalType": "uint256",
          "name": "",
          "type": "uint256"
        },
        {
          "internalType": "address",
          "name": "",
          "type": "address"
        }
      ],
      "name": "userInfo",
      "outputs": [
        {
          "internalType": "uint256",
          "name": "amount",
          "type": "uint256"
        },
        {
          "internalType": "uint256",
          "name": "rewardDebt",
          "type": "uint256"
        }
      ],
      "stateMutability": "view",
      "type": "function"
    },
    {
      "inputs": [
        {
          "internalType": "uint256",
          "name": "_pid",
          "type": "uint256"
        },
        {
          "internalType": "uint256",
          "name": "_amount",
          "type": "uint256"
        }
      ],
      "name": "withdraw",
      "outputs": [],
      "stateMutability": "nonpayable",
      "type": "function"
    }
  ],
  "transactionHash": "0xb7b31098adad97a9ba5154d5cce3234984c258f399cb0a385df823081996364b",
  "args": [
    "0x53E562b9B7E5E94b81f10e96Ee70Ad06df3D2657",
    "0x930c4047d26467E4DEC0fD199fb44A92298DA9bE",
    "12000000000000000000",
    7947563
  ],
  "solcInputHash": "80767bdac3816769ad14a9e01fb31064",
  "bytecode": "0x60806040526001600455600060085534801561001a57600080fd5b506040516124bb3803806124bb8339818101604052608081101561003d57600080fd5b5080516020820151604083015160609093015191929091600061005e6101c8565b600080546001600160a01b0319166001600160a01b0383169081178255604051929350917f8be0079c531659141344cd1fd0a4f28419497f9722a3daafe3b4186f6b6457e0908290a350600180546001600160a01b03199081166001600160a01b039687169081178355600280548316968816969096179095556003939093556009829055604080516080810182529485526103e86020860181815291860193845260006060870181815260068054958601815590915295517ff652222313e28459528d920b65115c16c04f3efc82aaedc97be59f3f377c0d3f6004909402938401805490961697169690961790935591517ff652222313e28459528d920b65115c16c04f3efc82aaedc97be59f3f377c0d40830155517ff652222313e28459528d920b65115c16c04f3efc82aaedc97be59f3f377c0d4182015590517ff652222313e28459528d920b65115c16c04f3efc82aaedc97be59f3f377c0d42909101556008556101cc565b3390565b6122e0806101db6000396000f3fe608060405234801561001057600080fd5b50600436106101cf5760003560e01c80635312ea8e116101045780638aa28550116100a2578063dce1748411610071578063dce17484146104b1578063dfa2c1d3146104b9578063e2bbb158146104df578063f2fde38b14610502576101cf565b80638aa28550146104395780638da5cb5b146104415780638dbb1e3a1461044957806393f1a40b1461046c576101cf565b806364482f79116100de57806364482f79146103da578063715018a6146104055780637cd07e471461040d57806386a952c414610431576101cf565b80635312ea8e146103985780635ffe6146146103b5578063630b5ba1146103d2576101cf565b80631eaaa04511610171578063441a3e701161014b578063441a3e7014610333578063454b06081461035657806348cd4cb11461037357806351eb05a61461037b576101cf565b80631eaaa045146102bc57806323cf3118146102f057806341441d3b14610316576101cf565b80631058d281116101ad5780631058d2811461021e5780631175a1dd1461023b5780631526fe271461026757806317caf6f1146102b4576101cf565b806304682a6b146101d45780630755e0b6146101fc578063081e3eda14610216575b600080fd5b6101fa600480360360208110156101ea57600080fd5b50356001600160a01b0316610528565b005b610204610640565b60408051918252519081900360200190f35b610204610646565b6101fa6004803603602081101561023457600080fd5b503561064c565b6102046004803603604081101561025157600080fd5b50803590602001356001600160a01b0316610830565b6102846004803603602081101561027d57600080fd5b503561099a565b604080516001600160a01b0390951685526020850193909352838301919091526060830152519081900360800190f35b6102046109de565b6101fa600480360360608110156102d257600080fd5b508035906001600160a01b03602082013516906040013515156109e4565b6101fa6004803603602081101561030657600080fd5b50356001600160a01b0316610b74565b6101fa6004803603602081101561032c57600080fd5b5035610bf8565b6101fa6004803603604081101561034957600080fd5b5080359060200135610d8c565b6101fa6004803603602081101561036c57600080fd5b5035610f31565b61020461118d565b6101fa6004803603602081101561039157600080fd5b5035611193565b6101fa600480360360208110156103ae57600080fd5b5035611336565b6101fa600480360360208110156103cb57600080fd5b5035611443565b6101fa6114aa565b6101fa600480360360608110156103f057600080fd5b508035906020810135906040013515156114cd565b6101fa6115b4565b610415611660565b604080516001600160a01b039092168252519081900360200190f35b61041561166f565b61020461167e565b610415611684565b6102046004803603604081101561045f57600080fd5b5080359060200135611693565b6104986004803603604081101561048257600080fd5b50803590602001356001600160a01b03166116ae565b6040805192835260208301919091528051918290030190f35b6104156116d2565b6101fa600480360360208110156104cf57600080fd5b50356001600160a01b03166116e1565b6101fa600480360360408110156104f557600080fd5b50803590602001356117de565b6101fa6004803603602081101561051857600080fd5b50356001600160a01b0316611942565b610530611a44565b6001600160a01b0316610541611684565b6001600160a01b03161461058a576040805162461bcd60e51b8152602060048201819052602482015260008051602061228b833981519152604482015290519081900360640190fd5b6001600160a01b0381166105d7576040805162461bcd60e51b815260206004820152600f60248201526e696c6c6567616c206164647265737360881b604482015290519081900360640190fd5b6002546040805163f2fde38b60e01b81526001600160a01b0384811660048301529151919092169163f2fde38b91602480830192600092919082900301818387803b15801561062557600080fd5b505af1158015610639573d6000803e3d6000fd5b5050505050565b60035481565b60065490565b6000600660008154811061065c57fe5b600091825260208083203384527f6d5257204ebe7d88fd91ae87941cb2dd9d8062b64ae5a2bd2d28ec40b9fbf6df90915260409092208054600490920290920192508311156106e7576040805162461bcd60e51b81526020600482015260126024820152711dda5d1a191c985dce881b9bdd0819dbdbd960721b604482015290519081900360640190fd5b6106f16000611193565b600061072b826001015461072564e8d4a5100061071f87600301548760000154611a4890919063ffffffff16565b90611aa1565b90611ae3565b9050801561073d5761073d3382611b25565b831561076757815461074f9085611ae3565b82558254610767906001600160a01b03163386611b96565b600383015482546107829164e8d4a510009161071f91611a48565b600183015560025460408051632770a7eb60e21b81523360048201526024810187905290516001600160a01b0390921691639dc29fac9160448082019260009290919082900301818387803b1580156107da57600080fd5b505af11580156107ee573d6000803e3d6000fd5b5050604080518781529051600093503392507ff279e6a1f5e320cca91135676d9cb6e44ca8a08c0b88342bcdb1144f6511b5689181900360200190a350505050565b6000806006848154811061084057fe5b600091825260208083208784526007825260408085206001600160a01b03898116875290845281862060049586029093016003810154815484516370a0823160e01b81523098810198909852935191985093969395939492909116926370a08231926024808301939192829003018186803b1580156108be57600080fd5b505afa1580156108d2573d6000803e3d6000fd5b505050506040513d60208110156108e857600080fd5b50516002850154909150431180156108ff57508015155b15610965576000610914856002015443611693565b9050600061094160085461071f886001015461093b60035487611a4890919063ffffffff16565b90611a48565b90506109606109598461071f8464e8d4a51000611a48565b8590611bed565b935050505b61098d836001015461072564e8d4a5100061071f868860000154611a4890919063ffffffff16565b9450505050505b92915050565b600681815481106109aa57600080fd5b600091825260209091206004909102018054600182015460028301546003909301546001600160a01b039092169350919084565b60085481565b6109ec611a44565b6001600160a01b03166109fd611684565b6001600160a01b031614610a46576040805162461bcd60e51b8152602060048201819052602482015260008051602061228b833981519152604482015290519081900360640190fd5b8015610a5457610a546114aa565b60006009544311610a6757600954610a69565b435b600854909150610a799085611bed565b600855604080516080810182526001600160a01b0385811682526020820187815292820184815260006060840181815260068054600181018255925293517ff652222313e28459528d920b65115c16c04f3efc82aaedc97be59f3f377c0d3f600490920291820180546001600160a01b031916919094161790925592517ff652222313e28459528d920b65115c16c04f3efc82aaedc97be59f3f377c0d4082015591517ff652222313e28459528d920b65115c16c04f3efc82aaedc97be59f3f377c0d41830155517ff652222313e28459528d920b65115c16c04f3efc82aaedc97be59f3f377c0d4290910155610b6e611c47565b50505050565b610b7c611a44565b6001600160a01b0316610b8d611684565b6001600160a01b031614610bd6576040805162461bcd60e51b8152602060048201819052602482015260008051602061228b833981519152604482015290519081900360640190fd5b600580546001600160a01b0319166001600160a01b0392909216919091179055565b60006006600081548110610c0857fe5b600091825260208083203384527f6d5257204ebe7d88fd91ae87941cb2dd9d8062b64ae5a2bd2d28ec40b9fbf6df90915260408320600490920201925090610c4f90611193565b805415610c98576000610c84826001015461072564e8d4a5100061071f87600301548760000154611a4890919063ffffffff16565b90508015610c9657610c963382611b25565b505b8215610cc4578154610cb5906001600160a01b0316333086611d0c565b8054610cc19084611bed565b81555b60038201548154610cdf9164e8d4a510009161071f91611a48565b6001820155600254604080516340c10f1960e01b81523360048201526024810186905290516001600160a01b03909216916340c10f199160448082019260009290919082900301818387803b158015610d3757600080fd5b505af1158015610d4b573d6000803e3d6000fd5b5050604080518681529051600093503392507f90890809c654f11d6e72a28fa60149770a0d11ec6c92319d6ceb2bb0a4ea1a159181900360200190a3505050565b81610dde576040805162461bcd60e51b815260206004820152601a60248201527f77697468647261772043414b4520627920756e7374616b696e67000000000000604482015290519081900360640190fd5b600060068381548110610ded57fe5b600091825260208083208684526007825260408085203386529092529220805460049092029092019250831115610e60576040805162461bcd60e51b81526020600482015260126024820152711dda5d1a191c985dce881b9bdd0819dbdbd960721b604482015290519081900360640190fd5b610e6984611193565b6000610e97826001015461072564e8d4a5100061071f87600301548760000154611a4890919063ffffffff16565b90508015610ea957610ea93382611b25565b8315610ed3578154610ebb9085611ae3565b82558254610ed3906001600160a01b03163386611b96565b60038301548254610eee9164e8d4a510009161071f91611a48565b6001830155604080518581529051869133917ff279e6a1f5e320cca91135676d9cb6e44ca8a08c0b88342bcdb1144f6511b5689181900360200190a35050505050565b6005546001600160a01b0316610f85576040805162461bcd60e51b815260206004820152601460248201527336b4b3b930ba329d1037379036b4b3b930ba37b960611b604482015290519081900360640190fd5b600060068281548110610f9457fe5b600091825260208083206004928302018054604080516370a0823160e01b81523095810195909552519195506001600160a01b0316939284926370a0823192602480840193829003018186803b158015610fed57600080fd5b505afa158015611001573d6000803e3d6000fd5b505050506040513d602081101561101757600080fd5b5051600554909150611036906001600160a01b03848116911683611d66565b6005546040805163ce5494bb60e01b81526001600160a01b0385811660048301529151600093929092169163ce5494bb9160248082019260209290919082900301818787803b15801561108857600080fd5b505af115801561109c573d6000803e3d6000fd5b505050506040513d60208110156110b257600080fd5b5051604080516370a0823160e01b815230600482015290519192506001600160a01b038316916370a0823191602480820192602092909190829003018186803b1580156110fe57600080fd5b505afa158015611112573d6000803e3d6000fd5b505050506040513d602081101561112857600080fd5b5051821461116c576040805162461bcd60e51b815260206004820152600c60248201526b1b5a59dc985d194e8818985960a21b604482015290519081900360640190fd5b83546001600160a01b0319166001600160a01b039190911617909255505050565b60095481565b6000600682815481106111a257fe5b90600052602060002090600402019050806002015443116111c35750611333565b8054604080516370a0823160e01b815230600482015290516000926001600160a01b0316916370a08231916024808301926020929190829003018186803b15801561120d57600080fd5b505afa158015611221573d6000803e3d6000fd5b505050506040513d602081101561123757600080fd5b505190508061124d575043600290910155611333565b600061125d836002015443611693565b9050600061128460085461071f866001015461093b60035487611a4890919063ffffffff16565b6001546002546040805163da1919b360e01b81526001600160a01b03928316600482015260248101859052905193945091169163da1919b39160448082019260009290919082900301818387803b1580156112de57600080fd5b505af11580156112f2573d6000803e3d6000fd5b505050506113206113158461071f64e8d4a5100085611a4890919063ffffffff16565b600386015490611bed565b6003850155505043600290920191909155505b50565b60006006828154811061134557fe5b600091825260208083208584526007825260408085203380875293528420805485825560018201959095556004909302018054909450919291611395916001600160a01b03919091169083611b96565b836114065760025460408051632770a7eb60e21b81523360048201526024810184905290516001600160a01b0390921691639dc29fac9160448082019260009290919082900301818387803b1580156113ed57600080fd5b505af1158015611401573d6000803e3d6000fd5b505050505b604080518281529051859133917fbb757047c2b5f3974fe26b7c10f732e7bce710b0952a71082702781e62ae05959181900360200190a350505050565b61144b611a44565b6001600160a01b031661145c611684565b6001600160a01b0316146114a5576040805162461bcd60e51b8152602060048201819052602482015260008051602061228b833981519152604482015290519081900360640190fd5b600455565b60065460005b818110156114c9576114c181611193565b6001016114b0565b5050565b6114d5611a44565b6001600160a01b03166114e6611684565b6001600160a01b03161461152f576040805162461bcd60e51b8152602060048201819052602482015260008051602061228b833981519152604482015290519081900360640190fd5b801561153d5761153d6114aa565b60006006848154811061154c57fe5b9060005260206000209060040201600101549050826006858154811061156e57fe5b906000526020600020906004020160010181905550828114610b6e576115a9836115a383600854611ae390919063ffffffff16565b90611bed565b600855610b6e611c47565b6115bc611a44565b6001600160a01b03166115cd611684565b6001600160a01b031614611616576040805162461bcd60e51b8152602060048201819052602482015260008051602061228b833981519152604482015290519081900360640190fd5b600080546040516001600160a01b03909116907f8be0079c531659141344cd1fd0a4f28419497f9722a3daafe3b4186f6b6457e0908390a3600080546001600160a01b0319169055565b6005546001600160a01b031681565b6002546001600160a01b031681565b60045481565b6000546001600160a01b031690565b6004546000906116a79061093b8486611ae3565b9392505050565b60076020908152600092835260408084209091529082529020805460019091015482565b6001546001600160a01b031681565b6116e9611a44565b6001600160a01b03166116fa611684565b6001600160a01b031614611743576040805162461bcd60e51b8152602060048201819052602482015260008051602061228b833981519152604482015290519081900360640190fd5b6001600160a01b038116611790576040805162461bcd60e51b815260206004820152600f60248201526e696c6c6567616c206164647265737360881b604482015290519081900360640190fd5b6001546040805163f2fde38b60e01b81526001600160a01b0384811660048301529151919092169163f2fde38b91602480830192600092919082900301818387803b15801561062557600080fd5b81611830576040805162461bcd60e51b815260206004820152601760248201527f6465706f7369742043414b45206279207374616b696e67000000000000000000604482015290519081900360640190fd5b60006006838154811061183f57fe5b6000918252602080832086845260078252604080852033865290925292206004909102909101915061187084611193565b8054156118b95760006118a5826001015461072564e8d4a5100061071f87600301548760000154611a4890919063ffffffff16565b905080156118b7576118b73382611b25565b505b82156118e55781546118d6906001600160a01b0316333086611d0c565b80546118e29084611bed565b81555b600382015481546119009164e8d4a510009161071f91611a48565b6001820155604080518481529051859133917f90890809c654f11d6e72a28fa60149770a0d11ec6c92319d6ceb2bb0a4ea1a159181900360200190a350505050565b61194a611a44565b6001600160a01b031661195b611684565b6001600160a01b0316146119a4576040805162461bcd60e51b8152602060048201819052602482015260008051602061228b833981519152604482015290519081900360640190fd5b6001600160a01b0381166119e95760405162461bcd60e51b815260040180806020018281038252602681526020018061220e6026913960400191505060405180910390fd5b600080546040516001600160a01b03808516939216917f8be0079c531659141344cd1fd0a4f28419497f9722a3daafe3b4186f6b6457e091a3600080546001600160a01b0319166001600160a01b0392909216919091179055565b3390565b600082611a5757506000610994565b82820282848281611a6457fe5b04146116a75760405162461bcd60e51b81526004018080602001828103825260218152602001806122346021913960400191505060405180910390fd5b60006116a783836040518060400160405280601a81526020017f536166654d6174683a206469766973696f6e206279207a65726f000000000000815250611e79565b60006116a783836040518060400160405280601e81526020017f536166654d6174683a207375627472616374696f6e206f766572666c6f770000815250611f1b565b600254604080516328b9b77360e21b81526001600160a01b038581166004830152602482018590529151919092169163a2e6ddcc91604480830192600092919082900301818387803b158015611b7a57600080fd5b505af1158015611b8e573d6000803e3d6000fd5b505050505050565b604080516001600160a01b038416602482015260448082018490528251808303909101815260649091019091526020810180516001600160e01b031663a9059cbb60e01b179052611be8908490611f75565b505050565b6000828201838110156116a7576040805162461bcd60e51b815260206004820152601b60248201527f536166654d6174683a206164646974696f6e206f766572666c6f770000000000604482015290519081900360640190fd5b600654600060015b82811015611c9257611c8860068281548110611c6757fe5b90600052602060002090600402016001015483611bed90919063ffffffff16565b9150600101611c4f565b5080156114c957611ca4816002611aa1565b9050611cde816115a36006600081548110611cbb57fe5b906000526020600020906004020160010154600854611ae390919063ffffffff16565b600881905550806006600081548110611cf357fe5b9060005260206000209060040201600101819055505050565b604080516001600160a01b0380861660248301528416604482015260648082018490528251808303909101815260849091019091526020810180516001600160e01b03166323b872dd60e01b179052610b6e908590611f75565b801580611dec575060408051636eb1769f60e11b81523060048201526001600160a01b03848116602483015291519185169163dd62ed3e91604480820192602092909190829003018186803b158015611dbe57600080fd5b505afa158015611dd2573d6000803e3d6000fd5b505050506040513d6020811015611de857600080fd5b5051155b611e275760405162461bcd60e51b81526004018080602001828103825260368152602001806122556036913960400191505060405180910390fd5b604080516001600160a01b038416602482015260448082018490528251808303909101815260649091019091526020810180516001600160e01b031663095ea7b360e01b179052611be8908490611f75565b60008183611f055760405162461bcd60e51b81526004018080602001828103825283818151815260200191508051906020019080838360005b83811015611eca578181015183820152602001611eb2565b50505050905090810190601f168015611ef75780820380516001836020036101000a031916815260200191505b509250505060405180910390fd5b506000838581611f1157fe5b0495945050505050565b60008184841115611f6d5760405162461bcd60e51b8152602060048201818152835160248401528351909283926044909101919085019080838360008315611eca578181015183820152602001611eb2565b505050900390565b6060611fca826040518060400160405280602081526020017f5361666542455032303a206c6f772d6c6576656c2063616c6c206661696c6564815250856001600160a01b03166120269092919063ffffffff16565b805190915015611be857808060200190516020811015611fe957600080fd5b5051611be85760405162461bcd60e51b815260040180806020018281038252602a8152602001806121e4602a913960400191505060405180910390fd5b6060612035848460008561203d565b949350505050565b6060612048856121aa565b612099576040805162461bcd60e51b815260206004820152601d60248201527f416464726573733a2063616c6c20746f206e6f6e2d636f6e7472616374000000604482015290519081900360640190fd5b60006060866001600160a01b031685876040518082805190602001908083835b602083106120d85780518252601f1990920191602091820191016120b9565b6001836020036101000a03801982511681845116808217855250505050505090500191505060006040518083038185875af1925050503d806000811461213a576040519150601f19603f3d011682016040523d82523d6000602084013e61213f565b606091505b509150915081156121535791506120359050565b8051156121635780518082602001fd5b60405162461bcd60e51b8152602060048201818152865160248401528651879391928392604401919085019080838360008315611eca578181015183820152602001611eb2565b6000813f7fc5d2460186f7233c927e7db2dcc703c0e500b653ca82273b7bfad8045d85a47081811480159061203557505015159291505056fe5361666542455032303a204245503230206f7065726174696f6e20646964206e6f7420737563636565644f776e61626c653a206e6577206f776e657220697320746865207a65726f2061646472657373536166654d6174683a206d756c7469706c69636174696f6e206f766572666c6f775361666542455032303a20617070726f76652066726f6d206e6f6e2d7a65726f20746f206e6f6e2d7a65726f20616c6c6f77616e63654f776e61626c653a2063616c6c6572206973206e6f7420746865206f776e6572a26469706673582212204f2ba255687894f3993e51598d2e9b84f91805d767e590a25913fb70053ca47064736f6c63430007040033",
  "devdoc": {
    "kind": "dev",
    "methods": {
      "owner()": {
        "details": "Returns the address of the current owner."
      },
      "renounceOwnership()": {
        "details": "Leaves the contract without owner. It will not be possible to call `onlyOwner` functions anymore. Can only be called by the current owner. NOTE: Renouncing ownership will leave the contract without an owner, thereby removing any functionality that is only available to the owner."
      },
      "transferOwnership(address)": {
        "details": "Transfers ownership of the contract to a new account (`newOwner`). Can only be called by the current owner."
      }
    },
    "version": 1
  },
  "userdoc": {
    "kind": "user",
    "methods": {},
    "version": 1
  },
  "storageLayout": {
    "storage": [
      {
        "astId": 7,
        "contract": "contracts/farm/MasterChef.sol:MasterChef",
        "label": "_owner",
        "offset": 0,
        "slot": "0",
        "type": "t_address"
      },
      {
        "astId": 3636,
        "contract": "contracts/farm/MasterChef.sol:MasterChef",
        "label": "cake",
        "offset": 0,
        "slot": "1",
        "type": "t_contract(BabyToken)17478"
      },
      {
        "astId": 3638,
        "contract": "contracts/farm/MasterChef.sol:MasterChef",
        "label": "syrup",
        "offset": 0,
        "slot": "2",
        "type": "t_contract(SyrupBar)8036"
      },
      {
        "astId": 3640,
        "contract": "contracts/farm/MasterChef.sol:MasterChef",
        "label": "cakePerBlock",
        "offset": 0,
        "slot": "3",
        "type": "t_uint256"
      },
      {
        "astId": 3643,
        "contract": "contracts/farm/MasterChef.sol:MasterChef",
        "label": "BONUS_MULTIPLIER",
        "offset": 0,
        "slot": "4",
        "type": "t_uint256"
      },
      {
        "astId": 3645,
        "contract": "contracts/farm/MasterChef.sol:MasterChef",
        "label": "migrator",
        "offset": 0,
        "slot": "5",
        "type": "t_contract(IMigratorChef)3612"
      },
      {
        "astId": 3648,
        "contract": "contracts/farm/MasterChef.sol:MasterChef",
        "label": "poolInfo",
        "offset": 0,
        "slot": "6",
        "type": "t_array(t_struct(PoolInfo)3634_storage)dyn_storage"
      },
      {
        "astId": 3654,
        "contract": "contracts/farm/MasterChef.sol:MasterChef",
        "label": "userInfo",
        "offset": 0,
        "slot": "7",
        "type": "t_mapping(t_uint256,t_mapping(t_address,t_struct(UserInfo)3625_storage))"
      },
      {
        "astId": 3657,
        "contract": "contracts/farm/MasterChef.sol:MasterChef",
        "label": "totalAllocPoint",
        "offset": 0,
        "slot": "8",
        "type": "t_uint256"
      },
      {
        "astId": 3659,
        "contract": "contracts/farm/MasterChef.sol:MasterChef",
        "label": "startBlock",
        "offset": 0,
        "slot": "9",
        "type": "t_uint256"
      }
    ],
    "types": {
      "t_address": {
        "encoding": "inplace",
        "label": "address",
        "numberOfBytes": "20"
      },
      "t_array(t_struct(PoolInfo)3634_storage)dyn_storage": {
        "base": "t_struct(PoolInfo)3634_storage",
        "encoding": "dynamic_array",
        "label": "struct MasterChef.PoolInfo[]",
        "numberOfBytes": "32"
      },
      "t_contract(BabyToken)17478": {
        "encoding": "inplace",
        "label": "contract BabyToken",
        "numberOfBytes": "20"
      },
      "t_contract(IBEP20)8137": {
        "encoding": "inplace",
        "label": "contract IBEP20",
        "numberOfBytes": "20"
      },
      "t_contract(IMigratorChef)3612": {
        "encoding": "inplace",
        "label": "contract IMigratorChef",
        "numberOfBytes": "20"
      },
      "t_contract(SyrupBar)8036": {
        "encoding": "inplace",
        "label": "contract SyrupBar",
        "numberOfBytes": "20"
      },
      "t_mapping(t_address,t_struct(UserInfo)3625_storage)": {
        "encoding": "mapping",
        "key": "t_address",
        "label": "mapping(address => struct MasterChef.UserInfo)",
        "numberOfBytes": "32",
        "value": "t_struct(UserInfo)3625_storage"
      },
      "t_mapping(t_uint256,t_mapping(t_address,t_struct(UserInfo)3625_storage))": {
        "encoding": "mapping",
        "key": "t_uint256",
        "label": "mapping(uint256 => mapping(address => struct MasterChef.UserInfo))",
        "numberOfBytes": "32",
        "value": "t_mapping(t_address,t_struct(UserInfo)3625_storage)"
      },
      "t_struct(PoolInfo)3634_storage": {
        "encoding": "inplace",
        "label": "struct MasterChef.PoolInfo",
        "members": [
          {
            "astId": 3627,
            "contract": "contracts/farm/MasterChef.sol:MasterChef",
            "label": "lpToken",
            "offset": 0,
            "slot": "0",
            "type": "t_contract(IBEP20)8137"
          },
          {
            "astId": 3629,
            "contract": "contracts/farm/MasterChef.sol:MasterChef",
            "label": "allocPoint",
            "offset": 0,
            "slot": "1",
            "type": "t_uint256"
          },
          {
            "astId": 3631,
            "contract": "contracts/farm/MasterChef.sol:MasterChef",
            "label": "lastRewardBlock",
            "offset": 0,
            "slot": "2",
            "type": "t_uint256"
          },
          {
            "astId": 3633,
            "contract": "contracts/farm/MasterChef.sol:MasterChef",
            "label": "accCakePerShare",
            "offset": 0,
            "slot": "3",
            "type": "t_uint256"
          }
        ],
        "numberOfBytes": "128"
      },
      "t_struct(UserInfo)3625_storage": {
        "encoding": "inplace",
        "label": "struct MasterChef.UserInfo",
        "members": [
          {
            "astId": 3622,
            "contract": "contracts/farm/MasterChef.sol:MasterChef",
            "label": "amount",
            "offset": 0,
            "slot": "0",
            "type": "t_uint256"
          },
          {
            "astId": 3624,
            "contract": "contracts/farm/MasterChef.sol:MasterChef",
            "label": "rewardDebt",
            "offset": 0,
            "slot": "1",
            "type": "t_uint256"
          }
        ],
        "numberOfBytes": "64"
      },
      "t_uint256": {
        "encoding": "inplace",
        "label": "uint256",
        "numberOfBytes": "32"
      }
    }
  }
}