{
  "address": "0xb81D4780780e5B66ba80a17e8c496Dd1616FA468",
  "abi": [
    {
      "inputs": [
        {
          "internalType": "address",
          "name": "factory_",
          "type": "address"
        }
      ],
      "stateMutability": "nonpayable",
      "type": "constructor"
    },
    {
      "inputs": [],
      "name": "CYCLE",
      "outputs": [
        {
          "internalType": "uint256",
          "name": "",
          "type": "uint256"
        }
      ],
      "stateMutability": "view",
      "type": "function"
    },
    {
      "inputs": [
        {
          "internalType": "address",
          "name": "tokenIn",
          "type": "address"
        },
        {
          "internalType": "uint256",
          "name": "amountIn",
          "type": "uint256"
        },
        {
          "internalType": "address",
          "name": "tokenOut",
          "type": "address"
        }
      ],
      "name": "consult",
      "outputs": [
        {
          "internalType": "uint256",
          "name": "amountOut",
          "type": "uint256"
        }
      ],
      "stateMutability": "view",
      "type": "function"
    },
    {
      "inputs": [],
      "name": "factory",
      "outputs": [
        {
          "internalType": "address",
          "name": "",
          "type": "address"
        }
      ],
      "stateMutability": "view",
      "type": "function"
    },
    {
      "inputs": [
        {
          "internalType": "address",
          "name": "",
          "type": "address"
        }
      ],
      "name": "pairObservations",
      "outputs": [
        {
          "internalType": "uint256",
          "name": "timestamp",
          "type": "uint256"
        },
        {
          "internalType": "uint256",
          "name": "price0Cumulative",
          "type": "uint256"
        },
        {
          "internalType": "uint256",
          "name": "price1Cumulative",
          "type": "uint256"
        }
      ],
      "stateMutability": "view",
      "type": "function"
    },
    {
      "inputs": [
        {
          "internalType": "address",
          "name": "tokenA",
          "type": "address"
        },
        {
          "internalType": "address",
          "name": "tokenB",
          "type": "address"
        }
      ],
      "name": "update",
      "outputs": [],
      "stateMutability": "nonpayable",
      "type": "function"
    }
  ],
  "transactionHash": "0x1efba4f47134d7999cc4859175afc77d9aa3722231fd778fc85145f50401a14a",
  "args": [
    "0x86407bEa2078ea5f5EB5A52B2caA963bC1F889Da"
  ],
  "solcInputHash": "869db619d66e54e93f19e26b9a45d5d7",
  "bytecode": "0x60a060405234801561001057600080fd5b50604051610a2a380380610a2a8339818101604052602081101561003357600080fd5b5051606081901b6001600160601b0319166080526001600160a01b03166109b46100766000398061016a52806102a752806102f6528061038052506109b46000f3fe608060405234801561001057600080fd5b50600436106100575760003560e01c8063402e1abf1461005c5780638c86f1e4146100a05780639e8d48d0146100e8578063c45a0155146100f0578063c640752d14610114575b600080fd5b6100826004803603602081101561007257600080fd5b50356001600160a01b0316610144565b60408051938452602084019290925282820152519081900360600190f35b6100d6600480360360608110156100b657600080fd5b506001600160a01b03813581169160208101359160409091013516610165565b60408051918252519081900360200190f35b6100d661029f565b6100f86102a5565b604080516001600160a01b039092168252519081900360200190f35b6101426004803603604081101561012a57600080fd5b506001600160a01b03813581169160200135166102c9565b005b60006020819052908152604090208054600182015460029092015490919083565b6000807f00000000000000000000000000000000000000000000000000000000000000006001600160a01b03166368942ce486856040518363ffffffff1660e01b815260040180836001600160a01b03168152602001826001600160a01b031681526020019250505060206040518083038186803b1580156101e657600080fd5b505afa1580156101fa573d6000803e3d6000fd5b505050506040513d602081101561021057600080fd5b50516001600160a01b03811660009081526020819052604081208054929350914203908061023d856104c9565b5091509150600061024e8a89610698565b509050896001600160a01b0316816001600160a01b031614156102885761027b856001015484868c610776565b9650505050505050610298565b61027b856002015483868c610776565b9392505050565b61070881565b7f000000000000000000000000000000000000000000000000000000000000000081565b6040805163e6a4390560e01b81526001600160a01b038481166004830152838116602483015291516000927f0000000000000000000000000000000000000000000000000000000000000000169163e6a43905916044808301926020929190829003018186803b15801561033c57600080fd5b505afa158015610350573d6000803e3d6000fd5b505050506040513d602081101561036657600080fd5b50516001600160a01b0316141561037c576104c5565b60007f00000000000000000000000000000000000000000000000000000000000000006001600160a01b03166368942ce484846040518363ffffffff1660e01b815260040180836001600160a01b03168152602001826001600160a01b031681526020019250505060206040518083038186803b1580156103fc57600080fd5b505afa158015610410573d6000803e3d6000fd5b505050506040513d602081101561042657600080fd5b50516001600160a01b0381166000908152602081905260409020805491925090420361070881101561049f576040805162461bcd60e51b815260206004820152601e60248201527f4d4445584f7261636c653a20504552494f445f4e4f545f454c41505345440000604482015290519081900360640190fd5b6000806104ab856104c9565b504286556001860191909155600290940193909355505050505b5050565b60008060006104d66107d4565b9050836001600160a01b0316635909c0d56040518163ffffffff1660e01b815260040160206040518083038186803b15801561051157600080fd5b505afa158015610525573d6000803e3d6000fd5b505050506040513d602081101561053b57600080fd5b505160408051635a3d549360e01b815290519194506001600160a01b03861691635a3d549391600480820192602092909190829003018186803b15801561058157600080fd5b505afa158015610595573d6000803e3d6000fd5b505050506040513d60208110156105ab57600080fd5b505160408051630240bc6b60e21b81529051919350600091829182916001600160a01b03891691630902f1ac916004808301926060929190829003018186803b1580156105f757600080fd5b505afa15801561060b573d6000803e3d6000fd5b505050506040513d606081101561062157600080fd5b5080516020820151604090920151909450909250905063ffffffff8082169085161461068e5780840363ffffffff811661065b84866107de565b516001600160e01b031602969096019563ffffffff811661067c85856107de565b516001600160e01b0316029590950194505b5050509193909250565b600080826001600160a01b0316846001600160a01b031614156106ec5760405162461bcd60e51b81526004018080602001828103825260238152602001806109396023913960400191505060405180910390fd5b826001600160a01b0316846001600160a01b03161061070c57828461070f565b83835b90925090506001600160a01b03821661076f576040805162461bcd60e51b815260206004820152601c60248201527f50616e63616b654c6962726172793a205a45524f5f4144445245535300000000604482015290519081900360640190fd5b9250929050565b6000610780610913565b6040518060200160405280858888038161079657fe5b046001600160e01b0316905290506107b66107b1828561088e565b61090c565b71ffffffffffffffffffffffffffffffffffff169695505050505050565b63ffffffff421690565b6107e6610913565b6000826001600160701b031611610844576040805162461bcd60e51b815260206004820152601760248201527f4669786564506f696e743a204449565f42595f5a45524f000000000000000000604482015290519081900360640190fd5b6040805160208101909152806001600160701b0384166dffffffffffffffffffffffffffff60701b607087901b168161087957fe5b046001600160e01b0316815250905092915050565b610896610925565b60008215806108bc57505082516001600160e01b0316828102908382816108b957fe5b04145b6108f75760405162461bcd60e51b815260040180806020018281038252602381526020018061095c6023913960400191505060405180910390fd5b60408051602081019091529081529392505050565b5160701c90565b60408051602081019091526000815290565b604051806020016040528060008152509056fe50616e63616b654c6962726172793a204944454e544943414c5f4144445245535345534669786564506f696e743a204d554c5449504c49434154494f4e5f4f564552464c4f57a2646970667358221220f6846e593aafc0cfed5826e8ff6c9ed6ab73cec694c997593b7833ed33923d2c64736f6c63430007040033",
  "devdoc": {
    "kind": "dev",
    "methods": {},
    "version": 1
  },
  "userdoc": {
    "kind": "user",
    "methods": {},
    "version": 1
  },
  "storageLayout": {
    "storage": [
      {
        "astId": 5134,
        "contract": "contracts/farm/Oracle.sol:Oracle",
        "label": "pairObservations",
        "offset": 0,
        "slot": "0",
        "type": "t_mapping(t_address,t_struct(Observation)5125_storage)"
      }
    ],
    "types": {
      "t_address": {
        "encoding": "inplace",
        "label": "address",
        "numberOfBytes": "20"
      },
      "t_mapping(t_address,t_struct(Observation)5125_storage)": {
        "encoding": "mapping",
        "key": "t_address",
        "label": "mapping(address => struct Oracle.Observation)",
        "numberOfBytes": "32",
        "value": "t_struct(Observation)5125_storage"
      },
      "t_struct(Observation)5125_storage": {
        "encoding": "inplace",
        "label": "struct Oracle.Observation",
        "members": [
          {
            "astId": 5120,
            "contract": "contracts/farm/Oracle.sol:Oracle",
            "label": "timestamp",
            "offset": 0,
            "slot": "0",
            "type": "t_uint256"
          },
          {
            "astId": 5122,
            "contract": "contracts/farm/Oracle.sol:Oracle",
            "label": "price0Cumulative",
            "offset": 0,
            "slot": "1",
            "type": "t_uint256"
          },
          {
            "astId": 5124,
            "contract": "contracts/farm/Oracle.sol:Oracle",
            "label": "price1Cumulative",
            "offset": 0,
            "slot": "2",
            "type": "t_uint256"
          }
        ],
        "numberOfBytes": "96"
      },
      "t_uint256": {
        "encoding": "inplace",
        "label": "uint256",
        "numberOfBytes": "32"
      }
    }
  }
}