{
  "address": "0x9871A9C79A4DF5669f3ebBB7cbc09627dDAfd5b6",
  "abi": [
    {
      "inputs": [],
      "stateMutability": "nonpayable",
      "type": "constructor"
    },
    {
      "anonymous": false,
      "inputs": [
        {
          "indexed": true,
          "internalType": "address",
          "name": "smartChef",
          "type": "address"
        }
      ],
      "name": "NewSmartChefContract",
      "type": "event"
    },
    {
      "anonymous": false,
      "inputs": [
        {
          "indexed": true,
          "internalType": "address",
          "name": "previousOwner",
          "type": "address"
        },
        {
          "indexed": true,
          "internalType": "address",
          "name": "newOwner",
          "type": "address"
        }
      ],
      "name": "OwnershipTransferred",
      "type": "event"
    },
    {
      "inputs": [
        {
          "internalType": "contract IBEP20",
          "name": "_stakedToken",
          "type": "address"
        },
        {
          "internalType": "contract IBEP20",
          "name": "_rewardToken",
          "type": "address"
        },
        {
          "internalType": "uint256",
          "name": "_rewardPerBlock",
          "type": "uint256"
        },
        {
          "internalType": "uint256",
          "name": "_startBlock",
          "type": "uint256"
        },
        {
          "internalType": "uint256",
          "name": "_bonusEndBlock",
          "type": "uint256"
        },
        {
          "internalType": "uint256",
          "name": "_poolLimitPerUser",
          "type": "uint256"
        },
        {
          "internalType": "address",
          "name": "_admin",
          "type": "address"
        }
      ],
      "name": "deployPool",
      "outputs": [],
      "stateMutability": "nonpayable",
      "type": "function"
    },
    {
      "inputs": [],
      "name": "owner",
      "outputs": [
        {
          "internalType": "address",
          "name": "",
          "type": "address"
        }
      ],
      "stateMutability": "view",
      "type": "function"
    },
    {
      "inputs": [],
      "name": "renounceOwnership",
      "outputs": [],
      "stateMutability": "nonpayable",
      "type": "function"
    },
    {
      "inputs": [
        {
          "internalType": "address",
          "name": "newOwner",
          "type": "address"
        }
      ],
      "name": "transferOwnership",
      "outputs": [],
      "stateMutability": "nonpayable",
      "type": "function"
    }
  ],
  "transactionHash": "0xaf393171a8ffc2f956a2d8addf3bc5125be1c6813d302d921357a880b2e6a0fd",
  "args": [],
  "solcInputHash": "38522ad75651826d4f353ebc50efdd6e",
  "bytecode": "0x608060405234801561001057600080fd5b50600061001b61006a565b600080546001600160a01b0319166001600160a01b0383169081178255604051929350917f8be0079c531659141344cd1fd0a4f28419497f9722a3daafe3b4186f6b6457e0908290a35061006e565b3390565b61229a8061007d6000396000f3fe608060405234801561001057600080fd5b506004361061004c5760003560e01c8063715018a6146100515780638da5cb5b1461005b578063cc8402f51461007f578063f2fde38b146100cf575b600080fd5b6100596100f5565b005b6100636101b3565b604080516001600160a01b039092168252519081900360200190f35b610059600480360360e081101561009557600080fd5b506001600160a01b038135811691602081013582169160408201359160608101359160808201359160a08101359160c090910135166101c2565b610059600480360360208110156100e557600080fd5b50356001600160a01b03166104da565b6100fd6105ee565b6001600160a01b031661010e6101b3565b6001600160a01b031614610169576040805162461bcd60e51b815260206004820181905260248201527f4f776e61626c653a2063616c6c6572206973206e6f7420746865206f776e6572604482015290519081900360640190fd5b600080546040516001600160a01b03909116907f8be0079c531659141344cd1fd0a4f28419497f9722a3daafe3b4186f6b6457e0908390a3600080546001600160a01b0319169055565b6000546001600160a01b031690565b6101ca6105ee565b6001600160a01b03166101db6101b3565b6001600160a01b031614610236576040805162461bcd60e51b815260206004820181905260248201527f4f776e61626c653a2063616c6c6572206973206e6f7420746865206f776e6572604482015290519081900360640190fd5b6000876001600160a01b03166318160ddd6040518163ffffffff1660e01b815260040160206040518083038186803b15801561027157600080fd5b505afa158015610285573d6000803e3d6000fd5b505050506040513d602081101561029b57600080fd5b505110156102a857600080fd5b6000866001600160a01b03166318160ddd6040518163ffffffff1660e01b815260040160206040518083038186803b1580156102e357600080fd5b505afa1580156102f7573d6000803e3d6000fd5b505050506040513d602081101561030d57600080fd5b5051101561031a57600080fd5b856001600160a01b0316876001600160a01b03161415610381576040805162461bcd60e51b815260206004820152601b60248201527f546f6b656e73206d75737420626520626520646966666572656e740000000000604482015290519081900360640190fd5b606060405180602001610393906105f2565b6020820181038252601f19601f820116604052509050600088888760405160200180846001600160a01b031660601b8152601401836001600160a01b031660601b815260140182815260200193505050506040516020818303038152906040528051906020012090506000818351602085016000f5604080516320e9410760e21b81526001600160a01b038d811660048301528c81166024830152604482018c9052606482018b9052608482018a905260a4820189905287811660c48301529151929350908316916383a5041c9160e48082019260009290919082900301818387803b15801561048257600080fd5b505af1158015610496573d6000803e3d6000fd5b50506040516001600160a01b03841692507fe0d103a92c6ff6c4aceb49d436f4028e0deb4884fdbcb9f32b03045eabb44a6c9150600090a250505050505050505050565b6104e26105ee565b6001600160a01b03166104f36101b3565b6001600160a01b03161461054e576040805162461bcd60e51b815260206004820181905260248201527f4f776e61626c653a2063616c6c6572206973206e6f7420746865206f776e6572604482015290519081900360640190fd5b6001600160a01b0381166105935760405162461bcd60e51b815260040180806020018281038252602681526020018061223f6026913960400191505060405180910390fd5b600080546040516001600160a01b03808516939216917f8be0079c531659141344cd1fd0a4f28419497f9722a3daafe3b4186f6b6457e091a3600080546001600160a01b0319166001600160a01b0392909216919091179055565b3390565b611c3f806106008339019056fe608060405234801561001057600080fd5b50600061001b610080565b600080546001600160a01b0319166001600160a01b0383169081178255604051929350917f8be0079c531659141344cd1fd0a4f28419497f9722a3daafe3b4186f6b6457e0908290a35060018055600280546001600160a01b03191633179055610084565b3390565b611bac806100936000396000f3fe608060405234801561001057600080fd5b50600436106101a95760003560e01c80638da5cb5b116100f9578063bd61719111610097578063db2e21bc11610071578063db2e21bc146103d9578063f2fde38b146103e1578063f40f0f5214610407578063f7c618c11461042d576101a9565b8063bd617191146103c1578063cc7a262e146103c9578063ccd34cd5146103d1576101a9565b80639513997f116100d35780639513997f14610354578063a0b4090514610377578063a9f8d1811461039c578063b6b55f25146103a4576101a9565b80638da5cb5b146103205780638f6629151461034457806392e8990e1461034c576101a9565b80633f138d4b11610166578063715018a611610140578063715018a6146102b857806380dc0672146102c057806383a5041c146102c85780638ae39cac14610318576101a9565b80633f138d4b1461027c57806348cd4cb1146102a857806366fe9f8a146102b0576101a9565b806301f8a976146101ae5780631959a002146101cd5780631aed65531461020c5780632e1a7d4d146102265780633279beab14610243578063392e53cd14610260575b600080fd5b6101cb600480360360208110156101c457600080fd5b5035610435565b005b6101f3600480360360208110156101e357600080fd5b50356001600160a01b031661051b565b6040805192835260208301919091528051918290030190f35b610214610534565b60408051918252519081900360200190f35b6101cb6004803603602081101561023c57600080fd5b503561053a565b6101cb6004803603602081101561025957600080fd5b50356106de565b61026861075a565b604080519115158252519081900360200190f35b6101cb6004803603604081101561029257600080fd5b506001600160a01b03813516906020013561076a565b6102146108e0565b6102146108e6565b6101cb6108ec565b6101cb610998565b6101cb600480360360e08110156102de57600080fd5b506001600160a01b038135811691602081013582169160408201359160608101359160808201359160a08101359160c09091013516610a00565b610214610c01565b610328610c07565b604080516001600160a01b039092168252519081900360200190f35b610214610c16565b610268610c1c565b6101cb6004803603604081101561036a57600080fd5b5080359060200135610c2c565b6101cb6004803603604081101561038d57600080fd5b50803515159060200135610da1565b610214610f0b565b6101cb600480360360208110156103ba57600080fd5b5035610f11565b6103286110d2565b6103286110e1565b6102146110f0565b6101cb6110f6565b6101cb600480360360208110156103f757600080fd5b50356001600160a01b03166111cc565b6102146004803603602081101561041d57600080fd5b50356001600160a01b03166112ce565b610328611425565b61043d611434565b6001600160a01b031661044e610c07565b6001600160a01b031614610497576040805162461bcd60e51b81526020600482018190526024820152600080516020611b57833981519152604482015290519081900360640190fd5b60055443106104e0576040805162461bcd60e51b815260206004820152601060248201526f141bdbdb081a185cc81cdd185c9d195960821b604482015290519081900360640190fd5b60088190556040805182815290517f0c4d677eef92893ac7ec52faf8140fc6c851ab4736302b4f3a89dfb20696a0df9181900360200190a150565b600c602052600090815260409020805460019091015482565b60045481565b60026001541415610592576040805162461bcd60e51b815260206004820152601f60248201527f5265656e7472616e637947756172643a207265656e7472616e742063616c6c00604482015290519081900360640190fd5b6002600155336000908152600c6020526040902080548211156105fc576040805162461bcd60e51b815260206004820152601b60248201527f416d6f756e7420746f20776974686472617720746f6f20686967680000000000604482015290519081900360640190fd5b610604611438565b6000610639826001015461063360095461062d600354876000015461152090919063ffffffff16565b90611582565b906115e9565b9050821561066657815461064d90846115e9565b8255600b54610666906001600160a01b03163385611646565b801561068357600a54610683906001600160a01b03163383611646565b600954600354835461069a929161062d9190611520565b600183015560408051848152905133917f884edad9ce6fa2440d8a54cc123490eb96d2768479d49ff9c7366125a9424364919081900360200190a250506001805550565b6106e6611434565b6001600160a01b03166106f7610c07565b6001600160a01b031614610740576040805162461bcd60e51b81526020600482018190526024820152600080516020611b57833981519152604482015290519081900360640190fd5b600a54610757906001600160a01b03163383611646565b50565b600254600160a81b900460ff1681565b610772611434565b6001600160a01b0316610783610c07565b6001600160a01b0316146107cc576040805162461bcd60e51b81526020600482018190526024820152600080516020611b57833981519152604482015290519081900360640190fd5b600b546001600160a01b0383811691161415610828576040805162461bcd60e51b815260206004820152601660248201527521b0b73737ba1031329039ba30b5b2b2103a37b5b2b760511b604482015290519081900360640190fd5b600a546001600160a01b0383811691161415610884576040805162461bcd60e51b815260206004820152601660248201527521b0b73737ba103132903932bbb0b932103a37b5b2b760511b604482015290519081900360640190fd5b6108986001600160a01b0383163383611646565b604080516001600160a01b03841681526020810183905281517f74545154aac348a3eac92596bd1971957ca94795f4e954ec5f613b55fab78129929181900390910190a15050565b60055481565b60075481565b6108f4611434565b6001600160a01b0316610905610c07565b6001600160a01b03161461094e576040805162461bcd60e51b81526020600482018190526024820152600080516020611b57833981519152604482015290519081900360640190fd5b600080546040516001600160a01b03909116907f8be0079c531659141344cd1fd0a4f28419497f9722a3daafe3b4186f6b6457e0908390a3600080546001600160a01b0319169055565b6109a0611434565b6001600160a01b03166109b1610c07565b6001600160a01b0316146109fa576040805162461bcd60e51b81526020600482018190526024820152600080516020611b57833981519152604482015290519081900360640190fd5b43600455565b600254600160a81b900460ff1615610a55576040805162461bcd60e51b8152602060048201526013602482015272105b1c9958591e481a5b9a5d1a585b1a5e9959606a1b604482015290519081900360640190fd5b6002546001600160a01b03163314610aa2576040805162461bcd60e51b815260206004820152600b60248201526a4e6f7420666163746f727960a81b604482015290519081900360640190fd5b6002805460ff60a81b1916600160a81b179055600b80546001600160a01b03808a166001600160a01b031992831617909255600a8054928916929091169190911790556008859055600584905560048390558115610b13576002805460ff60a01b1916600160a01b17905560078290555b600a546040805163313ce56760e01b815290516000926001600160a01b03169163313ce567916004808301926020929190829003018186803b158015610b5857600080fd5b505afa158015610b6c573d6000803e3d6000fd5b505050506040513d6020811015610b8257600080fd5b505160ff169050601e8110610bd7576040805162461bcd60e51b815260206004820152601660248201527504d75737420626520696e666572696f7220746f2033360541b604482015290519081900360640190fd5b610be2601e826115e9565b600a0a600955600554600655610bf7826111cc565b5050505050505050565b60085481565b6000546001600160a01b031690565b60035481565b600254600160a01b900460ff1681565b610c34611434565b6001600160a01b0316610c45610c07565b6001600160a01b031614610c8e576040805162461bcd60e51b81526020600482018190526024820152600080516020611b57833981519152604482015290519081900360640190fd5b6005544310610cd7576040805162461bcd60e51b815260206004820152601060248201526f141bdbdb081a185cc81cdd185c9d195960821b604482015290519081900360640190fd5b808210610d155760405162461bcd60e51b815260040180806020018281038252602e815260200180611ab2602e913960400191505060405180910390fd5b814310610d535760405162461bcd60e51b8152600401808060200182810382526030815260200180611b066030913960400191505060405180910390fd5b600582905560048190556006829055604080518381526020810183905281517f7cd0ab87d19036f3dfadadb232c78aa4879dda3f0c994a9d637532410ee2ce06929181900390910190a15050565b610da9611434565b6001600160a01b0316610dba610c07565b6001600160a01b031614610e03576040805162461bcd60e51b81526020600482018190526024820152600080516020611b57833981519152604482015290519081900360640190fd5b600254600160a01b900460ff16610e4f576040805162461bcd60e51b815260206004820152600b60248201526a135d5cdd081899481cd95d60aa1b604482015290519081900360640190fd5b8115610eb5576007548111610eab576040805162461bcd60e51b815260206004820152601860248201527f4e6577206c696d6974206d757374206265206869676865720000000000000000604482015290519081900360640190fd5b6007819055610ed2565b6002805460ff60a01b1916600160a01b8415150217905560006007555b60075460408051918252517f241f67ee5f41b7a5cabf911367329be7215900f602ebfc47f89dce2a6bcd847c9181900360200190a15050565b60065481565b60026001541415610f69576040805162461bcd60e51b815260206004820152601f60248201527f5265656e7472616e637947756172643a207265656e7472616e742063616c6c00604482015290519081900360640190fd5b60026001819055336000908152600c602052604090209054600160a01b900460ff1615610ff3576007548154610fa090849061169d565b1115610ff3576040805162461bcd60e51b815260206004820152601760248201527f5573657220616d6f756e742061626f7665206c696d6974000000000000000000604482015290519081900360640190fd5b610ffb611438565b80541561104c57600061102b826001015461063360095461062d600354876000015461152090919063ffffffff16565b9050801561104a57600a5461104a906001600160a01b03163383611646565b505b811561107857805461105e908361169d565b8155600b54611078906001600160a01b03163330856116f7565b600954600354825461108f929161062d9190611520565b600182015560408051838152905133917fe1fffcc4923d04b559f4d29a8bfc6cda04eb5b0d3c460751c2402c5c5cc9109c919081900360200190a2505060018055565b6002546001600160a01b031681565b600b546001600160a01b031681565b60095481565b6002600154141561114e576040805162461bcd60e51b815260206004820152601f60248201527f5265656e7472616e637947756172643a207265656e7472616e742063616c6c00604482015290519081900360640190fd5b60026001908155336000908152600c6020526040812080548282559281019190915590801561118e57600b5461118e906001600160a01b03163383611646565b60408051828152905133917f5fafa99d0643513820be26656b45130b01e1c03062e1266bf36f88cbd3bd9695919081900360200190a2505060018055565b6111d4611434565b6001600160a01b03166111e5610c07565b6001600160a01b03161461122e576040805162461bcd60e51b81526020600482018190526024820152600080516020611b57833981519152604482015290519081900360640190fd5b6001600160a01b0381166112735760405162461bcd60e51b8152600401808060200182810382526026815260200180611a8c6026913960400191505060405180910390fd5b600080546040516001600160a01b03808516939216917f8be0079c531659141344cd1fd0a4f28419497f9722a3daafe3b4186f6b6457e091a3600080546001600160a01b0319166001600160a01b0392909216919091179055565b6001600160a01b038082166000908152600c60209081526040808320600b5482516370a0823160e01b8152306004820152925194959194869491909216926370a082319260248083019392829003018186803b15801561132d57600080fd5b505afa158015611341573d6000803e3d6000fd5b505050506040513d602081101561135757600080fd5b50516006549091504311801561136c57508015155b156113f457600061137f60065443611757565b905060006113986008548361152090919063ffffffff16565b905060006113c16113b88561062d6009548661152090919063ffffffff16565b6003549061169d565b90506113e8856001015461063360095461062d858a6000015461152090919063ffffffff16565b95505050505050611420565b61141b826001015461063360095461062d600354876000015461152090919063ffffffff16565b925050505b919050565b600a546001600160a01b031681565b3390565b60065443116114465761151e565b600b54604080516370a0823160e01b815230600482015290516000926001600160a01b0316916370a08231916024808301926020929190829003018186803b15801561149157600080fd5b505afa1580156114a5573d6000803e3d6000fd5b505050506040513d60208110156114bb57600080fd5b50519050806114ce57504360065561151e565b60006114dc60065443611757565b905060006114f56008548361152090919063ffffffff16565b90506115136113b88461062d6009548561152090919063ffffffff16565b600355505043600655505b565b60008261152f5750600061157c565b8282028284828161153c57fe5b04146115795760405162461bcd60e51b8152600401808060200182810382526021815260200180611b366021913960400191505060405180910390fd5b90505b92915050565b60008082116115d8576040805162461bcd60e51b815260206004820152601a60248201527f536166654d6174683a206469766973696f6e206279207a65726f000000000000604482015290519081900360640190fd5b8183816115e157fe5b049392505050565b600082821115611640576040805162461bcd60e51b815260206004820152601e60248201527f536166654d6174683a207375627472616374696f6e206f766572666c6f770000604482015290519081900360640190fd5b50900390565b604080516001600160a01b038416602482015260448082018490528251808303909101815260649091019091526020810180516001600160e01b031663a9059cbb60e01b179052611698908490611791565b505050565b600082820183811015611579576040805162461bcd60e51b815260206004820152601b60248201527f536166654d6174683a206164646974696f6e206f766572666c6f770000000000604482015290519081900360640190fd5b604080516001600160a01b0380861660248301528416604482015260648082018490528251808303909101815260849091019091526020810180516001600160e01b03166323b872dd60e01b179052611751908590611791565b50505050565b600060045482116117735761176c82846115e9565b905061157c565b60045483106117845750600061157c565b60045461176c90846115e9565b60606117e6826040518060400160405280602081526020017f5361666542455032303a206c6f772d6c6576656c2063616c6c206661696c6564815250856001600160a01b03166118429092919063ffffffff16565b8051909150156116985780806020019051602081101561180557600080fd5b50516116985760405162461bcd60e51b815260040180806020018281038252602a815260200180611a62602a913960400191505060405180910390fd5b6060611851848460008561185b565b90505b9392505050565b60608247101561189c5760405162461bcd60e51b8152600401808060200182810382526026815260200180611ae06026913960400191505060405180910390fd5b6118a5856119b7565b6118f6576040805162461bcd60e51b815260206004820152601d60248201527f416464726573733a2063616c6c20746f206e6f6e2d636f6e7472616374000000604482015290519081900360640190fd5b60006060866001600160a01b031685876040518082805190602001908083835b602083106119355780518252601f199092019160209182019101611916565b6001836020036101000a03801982511681845116808217855250505050505090500191505060006040518083038185875af1925050503d8060008114611997576040519150601f19603f3d011682016040523d82523d6000602084013e61199c565b606091505b50915091506119ac8282866119bd565b979650505050505050565b3b151590565b606083156119cc575081611854565b8251156119dc5782518084602001fd5b8160405162461bcd60e51b81526004018080602001828103825283818151815260200191508051906020019080838360005b83811015611a26578181015183820152602001611a0e565b50505050905090810190601f168015611a535780820380516001836020036101000a031916815260200191505b509250505060405180910390fdfe5361666542455032303a204245503230206f7065726174696f6e20646964206e6f7420737563636565644f776e61626c653a206e6577206f776e657220697320746865207a65726f20616464726573734e6577207374617274426c6f636b206d757374206265206c6f776572207468616e206e657720656e64426c6f636b416464726573733a20696e73756666696369656e742062616c616e636520666f722063616c6c4e6577207374617274426c6f636b206d75737420626520686967686572207468616e2063757272656e7420626c6f636b536166654d6174683a206d756c7469706c69636174696f6e206f766572666c6f774f776e61626c653a2063616c6c6572206973206e6f7420746865206f776e6572a26469706673582212202d65f93fcebdf8fa7c363f7b289057322854b6b0dbfa475a3161d8744c43fdbe64736f6c634300070400334f776e61626c653a206e6577206f776e657220697320746865207a65726f2061646472657373a2646970667358221220d06bf64d3f7eec45d892b3e57f537f2b4b4807c88b3009c835002828d6ba08ac64736f6c63430007040033",
  "devdoc": {
    "kind": "dev",
    "methods": {
      "owner()": {
        "details": "Returns the address of the current owner."
      },
      "renounceOwnership()": {
        "details": "Leaves the contract without owner. It will not be possible to call `onlyOwner` functions anymore. Can only be called by the current owner. NOTE: Renouncing ownership will leave the contract without an owner, thereby removing any functionality that is only available to the owner."
      },
      "transferOwnership(address)": {
        "details": "Transfers ownership of the contract to a new account (`newOwner`). Can only be called by the current owner."
      }
    },
    "version": 1
  },
  "userdoc": {
    "kind": "user",
    "methods": {},
    "version": 1
  },
  "storageLayout": {
    "storage": [
      {
        "astId": 27,
        "contract": "contracts/farm/PoolFactory.sol:SmartChefFactory",
        "label": "_owner",
        "offset": 0,
        "slot": "0",
        "type": "t_address"
      }
    ],
    "types": {
      "t_address": {
        "encoding": "inplace",
        "label": "address",
        "numberOfBytes": "20"
      }
    }
  }
}