{
  "address": "0x5c9f1A9CeD41cCC5DcecDa5AFC317b72f1e49636",
  "abi": [
    {
      "inputs": [
        {
          "internalType": "contract BabyToken",
          "name": "_babyToken",
          "type": "address"
        },
        {
          "internalType": "contract IBabyFactory",
          "name": "_factory",
          "type": "address"
        },
        {
          "internalType": "contract IOracle",
          "name": "_oracle",
          "type": "address"
        },
        {
          "internalType": "address",
          "name": "_router",
          "type": "address"
        },
        {
          "internalType": "address",
          "name": "_targetToken",
          "type": "address"
        },
        {
          "internalType": "uint256",
          "name": "_babyPerBlock",
          "type": "uint256"
        },
        {
          "internalType": "uint256",
          "name": "_startBlock",
          "type": "uint256"
        }
      ],
      "stateMutability": "nonpayable",
      "type": "constructor"
    },
    {
      "anonymous": false,
      "inputs": [
        {
          "indexed": true,
          "internalType": "address",
          "name": "previousOwner",
          "type": "address"
        },
        {
          "indexed": true,
          "internalType": "address",
          "name": "newOwner",
          "type": "address"
        }
      ],
      "name": "OwnershipTransferred",
      "type": "event"
    },
    {
      "inputs": [
        {
          "internalType": "uint256",
          "name": "_allocPoint",
          "type": "uint256"
        },
        {
          "internalType": "address",
          "name": "_pair",
          "type": "address"
        },
        {
          "internalType": "bool",
          "name": "_withUpdate",
          "type": "bool"
        }
      ],
      "name": "addPair",
      "outputs": [],
      "stateMutability": "nonpayable",
      "type": "function"
    },
    {
      "inputs": [
        {
          "internalType": "address",
          "name": "_addToken",
          "type": "address"
        }
      ],
      "name": "addWhitelist",
      "outputs": [
        {
          "internalType": "bool",
          "name": "",
          "type": "bool"
        }
      ],
      "stateMutability": "nonpayable",
      "type": "function"
    },
    {
      "inputs": [],
      "name": "babyPerBlock",
      "outputs": [
        {
          "internalType": "uint256",
          "name": "",
          "type": "uint256"
        }
      ],
      "stateMutability": "view",
      "type": "function"
    },
    {
      "inputs": [],
      "name": "babyToken",
      "outputs": [
        {
          "internalType": "contract BabyToken",
          "name": "",
          "type": "address"
        }
      ],
      "stateMutability": "view",
      "type": "function"
    },
    {
      "inputs": [
        {
          "internalType": "address",
          "name": "_delToken",
          "type": "address"
        }
      ],
      "name": "delWhitelist",
      "outputs": [
        {
          "internalType": "bool",
          "name": "",
          "type": "bool"
        }
      ],
      "stateMutability": "nonpayable",
      "type": "function"
    },
    {
      "inputs": [],
      "name": "factory",
      "outputs": [
        {
          "internalType": "contract IBabyFactory",
          "name": "",
          "type": "address"
        }
      ],
      "stateMutability": "view",
      "type": "function"
    },
    {
      "inputs": [
        {
          "internalType": "uint256",
          "name": "_lastRewardBlock",
          "type": "uint256"
        }
      ],
      "name": "getBabyReward",
      "outputs": [
        {
          "internalType": "uint256",
          "name": "",
          "type": "uint256"
        }
      ],
      "stateMutability": "view",
      "type": "function"
    },
    {
      "inputs": [
        {
          "internalType": "uint256",
          "name": "_pid",
          "type": "uint256"
        }
      ],
      "name": "getPoolInfo",
      "outputs": [
        {
          "internalType": "address",
          "name": "",
          "type": "address"
        },
        {
          "internalType": "address",
          "name": "",
          "type": "address"
        },
        {
          "internalType": "uint256",
          "name": "",
          "type": "uint256"
        },
        {
          "internalType": "uint256",
          "name": "",
          "type": "uint256"
        },
        {
          "internalType": "uint256",
          "name": "",
          "type": "uint256"
        },
        {
          "internalType": "uint256",
          "name": "",
          "type": "uint256"
        }
      ],
      "stateMutability": "view",
      "type": "function"
    },
    {
      "inputs": [
        {
          "internalType": "address",
          "name": "outputToken",
          "type": "address"
        },
        {
          "internalType": "uint256",
          "name": "outputAmount",
          "type": "uint256"
        },
        {
          "internalType": "address",
          "name": "anchorToken",
          "type": "address"
        }
      ],
      "name": "getQuantity",
      "outputs": [
        {
          "internalType": "uint256",
          "name": "",
          "type": "uint256"
        }
      ],
      "stateMutability": "view",
      "type": "function"
    },
    {
      "inputs": [
        {
          "internalType": "uint256",
          "name": "_pid",
          "type": "uint256"
        },
        {
          "internalType": "address",
          "name": "_user",
          "type": "address"
        }
      ],
      "name": "getUserReward",
      "outputs": [
        {
          "internalType": "uint256",
          "name": "",
          "type": "uint256"
        },
        {
          "internalType": "uint256",
          "name": "",
          "type": "uint256"
        }
      ],
      "stateMutability": "view",
      "type": "function"
    },
    {
      "inputs": [
        {
          "internalType": "uint256",
          "name": "_index",
          "type": "uint256"
        }
      ],
      "name": "getWhitelist",
      "outputs": [
        {
          "internalType": "address",
          "name": "",
          "type": "address"
        }
      ],
      "stateMutability": "view",
      "type": "function"
    },
    {
      "inputs": [],
      "name": "getWhitelistLength",
      "outputs": [
        {
          "internalType": "uint256",
          "name": "",
          "type": "uint256"
        }
      ],
      "stateMutability": "view",
      "type": "function"
    },
    {
      "inputs": [],
      "name": "halvingPeriod",
      "outputs": [
        {
          "internalType": "uint256",
          "name": "",
          "type": "uint256"
        }
      ],
      "stateMutability": "view",
      "type": "function"
    },
    {
      "inputs": [
        {
          "internalType": "address",
          "name": "_token",
          "type": "address"
        }
      ],
      "name": "isWhitelist",
      "outputs": [
        {
          "internalType": "bool",
          "name": "",
          "type": "bool"
        }
      ],
      "stateMutability": "view",
      "type": "function"
    },
    {
      "inputs": [],
      "name": "massMintPools",
      "outputs": [],
      "stateMutability": "nonpayable",
      "type": "function"
    },
    {
      "inputs": [
        {
          "internalType": "uint256",
          "name": "_pid",
          "type": "uint256"
        }
      ],
      "name": "mint",
      "outputs": [
        {
          "internalType": "bool",
          "name": "",
          "type": "bool"
        }
      ],
      "stateMutability": "nonpayable",
      "type": "function"
    },
    {
      "inputs": [],
      "name": "oracle",
      "outputs": [
        {
          "internalType": "contract IOracle",
          "name": "",
          "type": "address"
        }
      ],
      "stateMutability": "view",
      "type": "function"
    },
    {
      "inputs": [],
      "name": "owner",
      "outputs": [
        {
          "internalType": "address",
          "name": "",
          "type": "address"
        }
      ],
      "stateMutability": "view",
      "type": "function"
    },
    {
      "inputs": [
        {
          "internalType": "address",
          "name": "_to",
          "type": "address"
        },
        {
          "internalType": "uint256",
          "name": "_amount",
          "type": "uint256"
        }
      ],
      "name": "ownerWithdraw",
      "outputs": [],
      "stateMutability": "nonpayable",
      "type": "function"
    },
    {
      "inputs": [
        {
          "internalType": "address",
          "name": "",
          "type": "address"
        }
      ],
      "name": "pairOfPid",
      "outputs": [
        {
          "internalType": "uint256",
          "name": "",
          "type": "uint256"
        }
      ],
      "stateMutability": "view",
      "type": "function"
    },
    {
      "inputs": [
        {
          "internalType": "uint256",
          "name": "blockNumber",
          "type": "uint256"
        }
      ],
      "name": "phase",
      "outputs": [
        {
          "internalType": "uint256",
          "name": "",
          "type": "uint256"
        }
      ],
      "stateMutability": "view",
      "type": "function"
    },
    {
      "inputs": [],
      "name": "phase",
      "outputs": [
        {
          "internalType": "uint256",
          "name": "",
          "type": "uint256"
        }
      ],
      "stateMutability": "view",
      "type": "function"
    },
    {
      "inputs": [
        {
          "internalType": "uint256",
          "name": "",
          "type": "uint256"
        }
      ],
      "name": "poolInfo",
      "outputs": [
        {
          "internalType": "address",
          "name": "pair",
          "type": "address"
        },
        {
          "internalType": "uint256",
          "name": "quantity",
          "type": "uint256"
        },
        {
          "internalType": "uint256",
          "name": "totalQuantity",
          "type": "uint256"
        },
        {
          "internalType": "uint256",
          "name": "allocPoint",
          "type": "uint256"
        },
        {
          "internalType": "uint256",
          "name": "allocMdxAmount",
          "type": "uint256"
        },
        {
          "internalType": "uint256",
          "name": "lastRewardBlock",
          "type": "uint256"
        }
      ],
      "stateMutability": "view",
      "type": "function"
    },
    {
      "inputs": [],
      "name": "poolLength",
      "outputs": [
        {
          "internalType": "uint256",
          "name": "",
          "type": "uint256"
        }
      ],
      "stateMutability": "view",
      "type": "function"
    },
    {
      "inputs": [],
      "name": "renounceOwnership",
      "outputs": [],
      "stateMutability": "nonpayable",
      "type": "function"
    },
    {
      "inputs": [],
      "name": "reward",
      "outputs": [
        {
          "internalType": "uint256",
          "name": "",
          "type": "uint256"
        }
      ],
      "stateMutability": "view",
      "type": "function"
    },
    {
      "inputs": [
        {
          "internalType": "uint256",
          "name": "blockNumber",
          "type": "uint256"
        }
      ],
      "name": "reward",
      "outputs": [
        {
          "internalType": "uint256",
          "name": "",
          "type": "uint256"
        }
      ],
      "stateMutability": "view",
      "type": "function"
    },
    {
      "inputs": [],
      "name": "router",
      "outputs": [
        {
          "internalType": "address",
          "name": "",
          "type": "address"
        }
      ],
      "stateMutability": "view",
      "type": "function"
    },
    {
      "inputs": [
        {
          "internalType": "uint256",
          "name": "_newPerBlock",
          "type": "uint256"
        }
      ],
      "name": "setBabyPerBlock",
      "outputs": [],
      "stateMutability": "nonpayable",
      "type": "function"
    },
    {
      "inputs": [
        {
          "internalType": "uint256",
          "name": "_block",
          "type": "uint256"
        }
      ],
      "name": "setHalvingPeriod",
      "outputs": [],
      "stateMutability": "nonpayable",
      "type": "function"
    },
    {
      "inputs": [
        {
          "internalType": "contract IOracle",
          "name": "_oracle",
          "type": "address"
        }
      ],
      "name": "setOracle",
      "outputs": [],
      "stateMutability": "nonpayable",
      "type": "function"
    },
    {
      "inputs": [
        {
          "internalType": "uint256",
          "name": "_pid",
          "type": "uint256"
        },
        {
          "internalType": "uint256",
          "name": "_allocPoint",
          "type": "uint256"
        },
        {
          "internalType": "bool",
          "name": "_withUpdate",
          "type": "bool"
        }
      ],
      "name": "setPair",
      "outputs": [],
      "stateMutability": "nonpayable",
      "type": "function"
    },
    {
      "inputs": [
        {
          "internalType": "address",
          "name": "newRouter",
          "type": "address"
        }
      ],
      "name": "setRouter",
      "outputs": [],
      "stateMutability": "nonpayable",
      "type": "function"
    },
    {
      "inputs": [],
      "name": "startBlock",
      "outputs": [
        {
          "internalType": "uint256",
          "name": "",
          "type": "uint256"
        }
      ],
      "stateMutability": "view",
      "type": "function"
    },
    {
      "inputs": [
        {
          "internalType": "address",
          "name": "account",
          "type": "address"
        },
        {
          "internalType": "address",
          "name": "input",
          "type": "address"
        },
        {
          "internalType": "address",
          "name": "output",
          "type": "address"
        },
        {
          "internalType": "uint256",
          "name": "amount",
          "type": "uint256"
        }
      ],
      "name": "swap",
      "outputs": [
        {
          "internalType": "bool",
          "name": "",
          "type": "bool"
        }
      ],
      "stateMutability": "nonpayable",
      "type": "function"
    },
    {
      "inputs": [],
      "name": "takerWithdraw",
      "outputs": [],
      "stateMutability": "nonpayable",
      "type": "function"
    },
    {
      "inputs": [],
      "name": "targetToken",
      "outputs": [
        {
          "internalType": "address",
          "name": "",
          "type": "address"
        }
      ],
      "stateMutability": "view",
      "type": "function"
    },
    {
      "inputs": [],
      "name": "totalAllocPoint",
      "outputs": [
        {
          "internalType": "uint256",
          "name": "",
          "type": "uint256"
        }
      ],
      "stateMutability": "view",
      "type": "function"
    },
    {
      "inputs": [
        {
          "internalType": "address",
          "name": "newOwner",
          "type": "address"
        }
      ],
      "name": "transferOwnership",
      "outputs": [],
      "stateMutability": "nonpayable",
      "type": "function"
    },
    {
      "inputs": [
        {
          "internalType": "uint256",
          "name": "",
          "type": "uint256"
        },
        {
          "internalType": "address",
          "name": "",
          "type": "address"
        }
      ],
      "name": "userInfo",
      "outputs": [
        {
          "internalType": "uint256",
          "name": "quantity",
          "type": "uint256"
        },
        {
          "internalType": "uint256",
          "name": "blockNumber",
          "type": "uint256"
        }
      ],
      "stateMutability": "view",
      "type": "function"
    }
  ],
  "transactionHash": "0x019d97fc87bc5e33456e1dacecb2beb302fa7263dc4d552a3d28983fef74664d",
  "args": [
    "0x53E562b9B7E5E94b81f10e96Ee70Ad06df3D2657",
    "0x86407bEa2078ea5f5EB5A52B2caA963bC1F889Da",
    "0xb81D4780780e5B66ba80a17e8c496Dd1616FA468",
    "0x325E343f1dE602396E256B67eFd1F61C3A6B38Bd",
    "0x55d398326f99059fF775485246999027B3197955",
    "8000000000000000000",
    7947563
  ],
  "solcInputHash": "7dae3eab632f597e6531f9789d5394bc",
  "bytecode": "0x60806040526250334060055560006006553480156200001d57600080fd5b5060405162002bfe38038062002bfe833981810160405260e08110156200004357600080fd5b508051602082015160408301516060840151608085015160a086015160c090960151949593949293919290919060006200007c62000289565b600080546001600160a01b0319166001600160a01b0383169081178255604051929350917f8be0079c531659141344cd1fd0a4f28419497f9722a3daafe3b4186f6b6457e0908290a3506001600160a01b03871662000114576040805162461bcd60e51b815260206004820152600f60248201526e696c6c6567616c206164647265737360881b604482015290519081900360640190fd5b600a80546001600160a01b0319166001600160a01b038981169190911790915586166200017a576040805162461bcd60e51b815260206004820152600f60248201526e696c6c6567616c206164647265737360881b604482015290519081900360640190fd5b600980546001600160a01b0319166001600160a01b03888116919091179091558516620001e0576040805162461bcd60e51b815260206004820152600f60248201526e696c6c6567616c206164647265737360881b604482015290519081900360640190fd5b600780546001600160a01b0319166001600160a01b0387811691909117909155841662000246576040805162461bcd60e51b815260206004820152600f60248201526e696c6c6567616c206164647265737360881b604482015290519081900360640190fd5b600880546001600160a01b039586166001600160a01b031991821617909155600b805494909516931692909217909255600391909155600455506200028d915050565b3390565b612961806200029d6000396000f3fe608060405234801561001057600080fd5b50600436106102485760003560e01c806396db752a1161013b578063b872dd0e116100b8578063f2fde38b1161007c578063f2fde38b1461066d578063f80f5dd514610693578063f887ea40146106b9578063f8a0baaa146106c1578063f9d181f9146106de57610248565b8063b872dd0e146105e5578063c0d78655146105ed578063c45a015514610613578063c683630d1461061b578063d9c88e141461064157610248565b8063a7ef67f6116100ff578063a7ef67f614610531578063a9678a1814610567578063a9fb763c146105a3578063b1c9fe6e146105c0578063b5ec5c99146105c857610248565b806396db752a146104ad57806397ecfaab146104ca5780639f4ece2e14610504578063a0712d681461050c578063a13202e91461052957610248565b806348cd4cb1116101c95780637adbf9731161018d5780637adbf973146104435780637dc0d1d0146104695780638113a6d8146104715780638da5cb5b1461047957806393f1a40b1461048157610248565b806348cd4cb1146104065780634f66a32c1461040e5780635a3e251f146104165780635ba79ba11461041e578063715018a61461043b57610248565b8063190cf6c911610210578063190cf6c91461030c5780632099920e14610339578063228cb7331461037e5780632f380b3514610386578063327107f7146103e257610248565b80630495de501461024d578063081e3eda14610285578063135f8aa71461028d5780631526fe27146102aa57806317caf6f114610304575b600080fd5b6102736004803603602081101561026357600080fd5b50356001600160a01b0316610712565b60408051918252519081900360200190f35b610273610724565b610273600480360360208110156102a357600080fd5b503561072a565b6102c7600480360360208110156102c057600080fd5b5035610785565b604080516001600160a01b0390971687526020870195909552858501939093526060850191909152608084015260a0830152519081900360c00190f35b6102736107d5565b6103376004803603606081101561032257600080fd5b508035906020810135906040013515156107db565b005b6103656004803603604081101561034f57600080fd5b50803590602001356001600160a01b03166108b6565b6040805192835260208301919091528051918290030190f35b610273610a56565b6103a36004803603602081101561039c57600080fd5b5035610a66565b604080516001600160a01b039788168152959096166020860152848601939093526060840191909152608083015260a082015290519081900360c00190f35b6103ea610c82565b604080516001600160a01b039092168252519081900360200190f35b610273610c91565b610273610c97565b610273610c9d565b6103376004803603602081101561043457600080fd5b5035610ca3565b610337610d12565b6103376004803603602081101561045957600080fd5b50356001600160a01b0316610dbe565b6103ea610e87565b6103ea610e96565b6103ea610ea5565b6103656004803603604081101561049757600080fd5b50803590602001356001600160a01b0316610eb4565b6103ea600480360360208110156104c357600080fd5b5035610ed8565b6104f0600480360360208110156104e057600080fd5b50356001600160a01b0316610f4a565b604080519115158252519081900360200190f35b610337610ffe565b6104f06004803603602081101561052257600080fd5b5035611022565b6102736110c2565b6102736004803603606081101561054757600080fd5b506001600160a01b038135811691602081013591604090910135166110ce565b6104f06004803603608081101561057d57600080fd5b506001600160a01b03813581169160208101358216916040820135169060600135611491565b610273600480360360208110156105b957600080fd5b503561173d565b61027361176a565b610337600480360360208110156105de57600080fd5b5035611775565b6103376117dc565b6103376004803603602081101561060357600080fd5b50356001600160a01b0316611946565b6103ea611a0f565b6104f06004803603602081101561063157600080fd5b50356001600160a01b0316611a1e565b6103376004803603604081101561065757600080fd5b506001600160a01b038135169060200135611a2b565b6103376004803603602081101561068357600080fd5b50356001600160a01b0316611a97565b6104f0600480360360208110156106a957600080fd5b50356001600160a01b0316611b99565b6103ea611c4d565b610273600480360360208110156106d757600080fd5b5035611c5c565b610337600480360360608110156106f457600080fd5b508035906001600160a01b0360208201351690604001351515611d34565b600c6020526000908152604090205481565b600d5490565b60006005546000141561073f57506000610780565b60045482111561077c5761077560055461076f600161076960045487611f9c90919063ffffffff16565b90611f9c565b90611fde565b9050610780565b5060005b919050565b600d818154811061079557600080fd5b60009182526020909120600690910201805460018201546002830154600384015460048501546005909501546001600160a01b0390941695509193909286565b60065481565b6107e3612020565b6001600160a01b03166107f4610ea5565b6001600160a01b03161461083d576040805162461bcd60e51b815260206004820181905260248201526000805160206128aa833981519152604482015290519081900360640190fd5b801561084b5761084b610ffe565b61088882610882600d868154811061085f57fe5b906000526020600020906006020160030154600654611f9c90919063ffffffff16565b90612024565b60068190555081600d848154811061089c57fe5b906000526020600020906006020160030181905550505050565b600d54600090819060001901841115610916576040805162461bcd60e51b815260206004820152601e60248201527f537761704d696e696e673a204e6f742066696e64207468697320706f6f6c0000604482015290519081900360640190fd5b60006109206126c1565b600d868154811061092d57fe5b60009182526020918290206040805160c081018252600690930290910180546001600160a01b03168352600181015493830193909352600283015490820152600382015460608201526004820154608082015260059091015460a08201529050610995612700565b506000868152600e602090815260408083206001600160a01b0389168452825291829020825180840190935280548084526001909101549183019190915215610a465760006109e78360a00151611c5c565b90506000610a0860065461076f86606001518561207e90919063ffffffff16565b9050610a41610a3a856020015161076f8660000151610a34868a6080015161202490919063ffffffff16565b9061207e565b8690612024565b945050505b51919350909150505b9250929050565b6000610a614361173d565b905090565b6000806000806000806001600d8054905003871115610acc576040805162461bcd60e51b815260206004820152601e60248201527f537761704d696e696e673a204e6f742066696e64207468697320706f6f6c0000604482015290519081900360640190fd5b610ad46126c1565b600d8881548110610ae157fe5b600091825260208083206040805160c081018252600690940290910180546001600160a01b031680855260018201548585015260028201548584015260038201546060860152600480830154608087015260059092015460a08601528251630dfe168160e01b8152925194965093630dfe16819383830193909290829003018186803b158015610b7057600080fd5b505afa158015610b84573d6000803e3d6000fd5b505050506040513d6020811015610b9a57600080fd5b505182516040805163d21220a760e01b815290519293506000926001600160a01b039092169163d21220a791600480820192602092909190829003018186803b158015610be657600080fd5b505afa158015610bfa573d6000803e3d6000fd5b505050506040513d6020811015610c1057600080fd5b5051608084015160a085015191925090600090610c2c90611c5c565b90506000610c4d60065461076f88606001518561207e90919063ffffffff16565b9050610c598382612024565b60408701516020880151606090980151969f959e50909c509a5094985092965090945050505050565b600b546001600160a01b031681565b60045481565b60035481565b60055481565b610cab612020565b6001600160a01b0316610cbc610ea5565b6001600160a01b031614610d05576040805162461bcd60e51b815260206004820181905260248201526000805160206128aa833981519152604482015290519081900360640190fd5b610d0d610ffe565b600355565b610d1a612020565b6001600160a01b0316610d2b610ea5565b6001600160a01b031614610d74576040805162461bcd60e51b815260206004820181905260248201526000805160206128aa833981519152604482015290519081900360640190fd5b600080546040516001600160a01b03909116907f8be0079c531659141344cd1fd0a4f28419497f9722a3daafe3b4186f6b6457e0908390a3600080546001600160a01b0319169055565b610dc6612020565b6001600160a01b0316610dd7610ea5565b6001600160a01b031614610e20576040805162461bcd60e51b815260206004820181905260248201526000805160206128aa833981519152604482015290519081900360640190fd5b6001600160a01b038116610e655760405162461bcd60e51b815260040180806020018281038252602a815260200180612818602a913960400191505060405180910390fd5b600780546001600160a01b0319166001600160a01b0392909216919091179055565b6007546001600160a01b031681565b600a546001600160a01b031681565b6000546001600160a01b031690565b600e6020908152600092835260408084209091529082529020805460019091015482565b60006001610ee46110c2565b03821115610f39576040805162461bcd60e51b815260206004820152601f60248201527f537761704d696e696e673a20696e646578206f7574206f6620626f756e647300604482015290519081900360640190fd5b610f446001836120d7565b92915050565b6000610f54612020565b6001600160a01b0316610f65610ea5565b6001600160a01b031614610fae576040805162461bcd60e51b815260206004820181905260248201526000805160206128aa833981519152604482015290519081900360640190fd5b6001600160a01b038216610ff35760405162461bcd60e51b81526004018080602001828103825260258152602001806127c26025913960400191505060405180910390fd5b610f446001836120e3565b600d5460005b8181101561101e5761101581611022565b50600101611004565b5050565b600080600d838154811061103257fe5b9060005260206000209060060201905080600501544311611057576000915050610780565b60006110668260050154611c5c565b90506000811161107b57600092505050610780565b600061109a60065461076f85600301548561207e90919063ffffffff16565b60048401549091506110ac9082612024565b6004840155505043600590910155506001919050565b6000610a6160016120f8565b6000806001600160a01b0385811690841614156110ec575082611489565b6009546040805163e6a4390560e01b81526001600160a01b038881166004830152868116602483015291516000939092169163e6a4390591604480820192602092909190829003018186803b15801561114457600080fd5b505afa158015611158573d6000803e3d6000fd5b505050506040513d602081101561116e57600080fd5b50516001600160a01b03161461120d5760075460408051632321bc7960e21b81526001600160a01b03888116600483015260248201889052868116604483015291519190921691638c86f1e4916064808301926020929190829003018186803b1580156111da57600080fd5b505afa1580156111ee573d6000803e3d6000fd5b505050506040513d602081101561120457600080fd5b50519050611489565b60006112176110c2565b905060005b8181101561148657600061122f82610ed8565b6009546040805163e6a4390560e01b81526001600160a01b038c8116600483015284811660248301529151939450600093919092169163e6a43905916044808301926020929190829003018186803b15801561128a57600080fd5b505afa15801561129e573d6000803e3d6000fd5b505050506040513d60208110156112b457600080fd5b50516001600160a01b03161480159061135857506009546040805163e6a4390560e01b81526001600160a01b038481166004830152898116602483015291516000939092169163e6a4390591604480820192602092909190829003018186803b15801561132057600080fd5b505afa158015611334573d6000803e3d6000fd5b505050506040513d602081101561134a57600080fd5b50516001600160a01b031614155b1561147d5760075460408051632321bc7960e21b81526001600160a01b038b81166004830152602482018b9052848116604483015291516000939290921691638c86f1e491606480820192602092909190829003018186803b1580156113bd57600080fd5b505afa1580156113d1573d6000803e3d6000fd5b505050506040513d60208110156113e757600080fd5b505160075460408051632321bc7960e21b81526001600160a01b038681166004830152602482018590528b811660448301529151939450911691638c86f1e491606480820192602092909190829003018186803b15801561144757600080fd5b505afa15801561145b573d6000803e3d6000fd5b505050506040513d602081101561147157600080fd5b50519450611486915050565b5060010161121c565b50505b949350505050565b6008546000906001600160a01b031633146114dd5760405162461bcd60e51b81526004018080602001828103825260248152602001806128426024913960400191505060405180910390fd5b6001600160a01b0385166115225760405162461bcd60e51b81526004018080602001828103825260328152602001806128ca6032913960400191505060405180910390fd5b6001600160a01b0384166115675760405162461bcd60e51b81526004018080602001828103825260308152602001806128fc6030913960400191505060405180910390fd5b6001600160a01b0383166115ac5760405162461bcd60e51b81526004018080602001828103825260318152602001806127e76031913960400191505060405180910390fd5b60006115b6610724565b116115c357506000611489565b6115cc84611a1e565b15806115de57506115dc83611a1e565b155b156115eb57506000611489565b600954600090611605906001600160a01b03168686612103565b6001600160a01b0381166000908152600c6020526040812054600d80549394509192811061162f57fe5b6000918252602090912060069091020180549091506001600160a01b03838116911614158061166057506003810154155b1561167057600092505050611489565b600b5460009061168c90879087906001600160a01b03166110ce565b9050600081116116a25760009350505050611489565b6001600160a01b0383166000908152600c60205260409020546116c490611022565b5060018201546116d49082612024565b600183015560028201546116e89082612024565b60028301556001600160a01b038084166000908152600c60209081526040808320548352600e8252808320938c1683529290522080546117289083612024565b81554360019182015598975050505050505050565b6000806117498361072a565b90506117638160020a600354611fde90919063ffffffff16565b9392505050565b6000610a614361072a565b61177d612020565b6001600160a01b031661178e610ea5565b6001600160a01b0316146117d7576040805162461bcd60e51b815260206004820181905260248201526000805160206128aa833981519152604482015290519081900360640190fd5b600555565b600d54600090815b818110156118a8576000600d82815481106117fb57fe5b60009182526020808320858452600e8252604080852033865290925292208054600690920290920192501561189e5761183383611022565b506000611859836001015461076f8460000154866004015461207e90919063ffffffff16565b8254600185015491925061186d9190611f9c565b600184015560048301546118819082611f9c565b60048401556000825543600183015561189a8682612024565b9550505b50506001016117e4565b50600082116118b8575050611944565b6118c1826121c3565b600a546040805163a9059cbb60e01b81523360048201526024810185905290516001600160a01b039092169163a9059cbb916044808201926020929091908290030181600087803b15801561191557600080fd5b505af1158015611929573d6000803e3d6000fd5b505050506040513d602081101561193f57600080fd5b505050505b565b61194e612020565b6001600160a01b031661195f610ea5565b6001600160a01b0316146119a8576040805162461bcd60e51b815260206004820181905260248201526000805160206128aa833981519152604482015290519081900360640190fd5b6001600160a01b0381166119ed5760405162461bcd60e51b815260040180806020018281038252602a81526020018061273d602a913960400191505060405180910390fd5b600880546001600160a01b0319166001600160a01b0392909216919091179055565b6009546001600160a01b031681565b6000610f44600183612207565b611a33612020565b6001600160a01b0316611a44610ea5565b6001600160a01b031614611a8d576040805162461bcd60e51b815260206004820181905260248201526000805160206128aa833981519152604482015290519081900360640190fd5b61101e828261221c565b611a9f612020565b6001600160a01b0316611ab0610ea5565b6001600160a01b031614611af9576040805162461bcd60e51b815260206004820181905260248201526000805160206128aa833981519152604482015290519081900360640190fd5b6001600160a01b038116611b3e5760405162461bcd60e51b81526004018080602001828103825260268152602001806127676026913960400191505060405180910390fd5b600080546040516001600160a01b03808516939216917f8be0079c531659141344cd1fd0a4f28419497f9722a3daafe3b4186f6b6457e091a3600080546001600160a01b0319166001600160a01b0392909216919091179055565b6000611ba3612020565b6001600160a01b0316611bb4610ea5565b6001600160a01b031614611bfd576040805162461bcd60e51b815260206004820181905260248201526000805160206128aa833981519152604482015290519081900360640190fd5b6001600160a01b038216611c425760405162461bcd60e51b81526004018080602001828103825260258152602001806127c26025913960400191505060405180910390fd5b610f44600183612328565b6008546001600160a01b031681565b600043821115611c9d5760405162461bcd60e51b815260040180806020018281038252603581526020018061278d6035913960400191505060405180910390fd5b600080611ca98461072a565b90506000611cb64361072a565b90505b80821015611d0b57600454600554600190930192600091611cdf9161088290869061207e565b9050611d01611cfa611cf08361173d565b610a34848a611f9c565b8590612024565b9095509250611cb9565b611d2b611d24611d1a4361173d565b610a344389611f9c565b8490612024565b95945050505050565b611d3c612020565b6001600160a01b0316611d4d610ea5565b6001600160a01b031614611d96576040805162461bcd60e51b815260206004820181905260248201526000805160206128aa833981519152604482015290519081900360640190fd5b6001600160a01b038216611df1576040805162461bcd60e51b815260206004820152601960248201527f5f7061697220697320746865207a65726f206164647265737300000000000000604482015290519081900360640190fd5b8015611dff57611dff610ffe565b60006004544311611e1257600454611e14565b435b600654909150611e249085612024565b60069081556040805160c0810182526001600160a01b038681168252600060208301818152938301818152606084018a81526080850183815260a08601898152600d8054600180820183559190965296517fd7b6990105719101dabeb77144f2a3385c8033acd3af97e9423a695e81ad1eb59590990294850180546001600160a01b031916999096169890981790945594517fd7b6990105719101dabeb77144f2a3385c8033acd3af97e9423a695e81ad1eb6830155517fd7b6990105719101dabeb77144f2a3385c8033acd3af97e9423a695e81ad1eb782015592517fd7b6990105719101dabeb77144f2a3385c8033acd3af97e9423a695e81ad1eb8840155517fd7b6990105719101dabeb77144f2a3385c8033acd3af97e9423a695e81ad1eb983015591517fd7b6990105719101dabeb77144f2a3385c8033acd3af97e9423a695e81ad1eba90910155611f79610724565b6001600160a01b039094166000908152600c602052604090209303909255505050565b600061176383836040518060400160405280601e81526020017f536166654d6174683a207375627472616374696f6e206f766572666c6f77000081525061233d565b600061176383836040518060400160405280601a81526020017f536166654d6174683a206469766973696f6e206279207a65726f0000000000008152506123d4565b3390565b600082820183811015611763576040805162461bcd60e51b815260206004820152601b60248201527f536166654d6174683a206164646974696f6e206f766572666c6f770000000000604482015290519081900360640190fd5b60008261208d57506000610f44565b8282028284828161209a57fe5b04146117635760405162461bcd60e51b81526004018080602001828103825260218152602001806128896021913960400191505060405180910390fd5b60006117638383612439565b6000611763836001600160a01b03841661249d565b6000610f4482612563565b60008060006121128585612567565b604080516bffffffffffffffffffffffff19606094851b811660208084019190915293851b81166034830152825160288184030181526048830184528051908501206001600160f81b031960688401529a90941b9093166069840152607d8301989098527f48c8bec5512d397a5d512fbb7d83d515e7b6d91e9838730bd1aa1b16575da7f5609d808401919091528851808403909101815260bd909201909752805196019590952095945050505050565b6040805160248082018490528251808303909101815260449091019091526020810180516001600160e01b031663f5b1bba960e01b1790526122049061263e565b50565b6000611763836001600160a01b03841661265f565b600a54604080516370a0823160e01b815230600482015290516000926001600160a01b0316916370a08231916024808301926020929190829003018186803b15801561226757600080fd5b505afa15801561227b573d6000803e3d6000fd5b505050506040513d602081101561229157600080fd5b50519050808211156122a1578091505b600a546040805163a9059cbb60e01b81526001600160a01b038681166004830152602482018690529151919092169163a9059cbb9160448083019260209291908290030181600087803b1580156122f757600080fd5b505af115801561230b573d6000803e3d6000fd5b505050506040513d602081101561232157600080fd5b5050505050565b6000611763836001600160a01b038416612677565b600081848411156123cc5760405162461bcd60e51b81526004018080602001828103825283818151815260200191508051906020019080838360005b83811015612391578181015183820152602001612379565b50505050905090810190601f1680156123be5780820380516001836020036101000a031916815260200191505b509250505060405180910390fd5b505050900390565b600081836124235760405162461bcd60e51b8152602060048201818152835160248401528351909283926044909101919085019080838360008315612391578181015183820152602001612379565b50600083858161242f57fe5b0495945050505050565b8154600090821061247b5760405162461bcd60e51b815260040180806020018281038252602281526020018061271b6022913960400191505060405180910390fd5b82600001828154811061248a57fe5b9060005260206000200154905092915050565b6000818152600183016020526040812054801561255957835460001980830191908101906000908790839081106124d057fe5b90600052602060002001549050808760000184815481106124ed57fe5b60009182526020808320909101929092558281526001898101909252604090209084019055865487908061251d57fe5b60019003818190600052602060002001600090559055866001016000878152602001908152602001600020600090556001945050505050610f44565b6000915050610f44565b5490565b600080826001600160a01b0316846001600160a01b031614156125bb5760405162461bcd60e51b81526004018080602001828103825260238152602001806128666023913960400191505060405180910390fd5b826001600160a01b0316846001600160a01b0316106125db5782846125de565b83835b90925090506001600160a01b038216610a4f576040805162461bcd60e51b815260206004820152601c60248201527f50616e63616b654c6962726172793a205a45524f5f4144445245535300000000604482015290519081900360640190fd5b80516a636f6e736f6c652e6c6f67602083016000808483855afa5050505050565b60009081526001919091016020526040902054151590565b6000612683838361265f565b6126b957508154600181810184556000848152602080822090930184905584548482528286019093526040902091909155610f44565b506000610f44565b6040518060c0016040528060006001600160a01b0316815260200160008152602001600081526020016000815260200160008152602001600081525090565b60405180604001604052806000815260200160008152509056fe456e756d657261626c655365743a20696e646578206f7574206f6620626f756e6473537761704d696e696e673a206e657720726f7574657220697320746865207a65726f20616464726573734f776e61626c653a206e6577206f776e657220697320746865207a65726f2061646472657373537761704d696e696e673a206d757374206c6974746c65207468616e207468652063757272656e7420626c6f636b206e756d626572537761704d696e696e673a20746f6b656e20697320746865207a65726f2061646472657373537761704d696e696e673a2074616b65722073776170206f757470757420697320746865207a65726f2061646472657373537761704d696e696e673a206e6577206f7261636c6520697320746865207a65726f2061646472657373537761704d696e696e673a2063616c6c6572206973206e6f742074686520726f7574657250616e63616b654c6962726172793a204944454e544943414c5f414444524553534553536166654d6174683a206d756c7469706c69636174696f6e206f766572666c6f774f776e61626c653a2063616c6c6572206973206e6f7420746865206f776e6572537761704d696e696e673a2074616b65722073776170206163636f756e7420697320746865207a65726f2061646472657373537761704d696e696e673a2074616b6572207377617020696e70757420697320746865207a65726f2061646472657373a2646970667358221220dd7d1c740be69b9ba8d82093448c91f9e1568ba6a16048169c546b1ba1a6a0c964736f6c63430007040033",
  "devdoc": {
    "kind": "dev",
    "methods": {
      "owner()": {
        "details": "Returns the address of the current owner."
      },
      "renounceOwnership()": {
        "details": "Leaves the contract without owner. It will not be possible to call `onlyOwner` functions anymore. Can only be called by the current owner. NOTE: Renouncing ownership will leave the contract without an owner, thereby removing any functionality that is only available to the owner."
      },
      "transferOwnership(address)": {
        "details": "Transfers ownership of the contract to a new account (`newOwner`). Can only be called by the current owner."
      }
    },
    "version": 1
  },
  "userdoc": {
    "kind": "user",
    "methods": {},
    "version": 1
  },
  "storageLayout": {
    "storage": [
      {
        "astId": 7,
        "contract": "contracts/farm/SwapMining.sol:SwapMining",
        "label": "_owner",
        "offset": 0,
        "slot": "0",
        "type": "t_address"
      },
      {
        "astId": 5964,
        "contract": "contracts/farm/SwapMining.sol:SwapMining",
        "label": "_whitelist",
        "offset": 0,
        "slot": "1",
        "type": "t_struct(AddressSet)1344_storage"
      },
      {
        "astId": 5966,
        "contract": "contracts/farm/SwapMining.sol:SwapMining",
        "label": "babyPerBlock",
        "offset": 0,
        "slot": "3",
        "type": "t_uint256"
      },
      {
        "astId": 5968,
        "contract": "contracts/farm/SwapMining.sol:SwapMining",
        "label": "startBlock",
        "offset": 0,
        "slot": "4",
        "type": "t_uint256"
      },
      {
        "astId": 5971,
        "contract": "contracts/farm/SwapMining.sol:SwapMining",
        "label": "halvingPeriod",
        "offset": 0,
        "slot": "5",
        "type": "t_uint256"
      },
      {
        "astId": 5974,
        "contract": "contracts/farm/SwapMining.sol:SwapMining",
        "label": "totalAllocPoint",
        "offset": 0,
        "slot": "6",
        "type": "t_uint256"
      },
      {
        "astId": 5976,
        "contract": "contracts/farm/SwapMining.sol:SwapMining",
        "label": "oracle",
        "offset": 0,
        "slot": "7",
        "type": "t_contract(IOracle)5954"
      },
      {
        "astId": 5978,
        "contract": "contracts/farm/SwapMining.sol:SwapMining",
        "label": "router",
        "offset": 0,
        "slot": "8",
        "type": "t_address"
      },
      {
        "astId": 5980,
        "contract": "contracts/farm/SwapMining.sol:SwapMining",
        "label": "factory",
        "offset": 0,
        "slot": "9",
        "type": "t_contract(IBabyFactory)8341"
      },
      {
        "astId": 5982,
        "contract": "contracts/farm/SwapMining.sol:SwapMining",
        "label": "babyToken",
        "offset": 0,
        "slot": "10",
        "type": "t_contract(BabyToken)17478"
      },
      {
        "astId": 5984,
        "contract": "contracts/farm/SwapMining.sol:SwapMining",
        "label": "targetToken",
        "offset": 0,
        "slot": "11",
        "type": "t_address"
      },
      {
        "astId": 5988,
        "contract": "contracts/farm/SwapMining.sol:SwapMining",
        "label": "pairOfPid",
        "offset": 0,
        "slot": "12",
        "type": "t_mapping(t_address,t_uint256)"
      },
      {
        "astId": 6104,
        "contract": "contracts/farm/SwapMining.sol:SwapMining",
        "label": "poolInfo",
        "offset": 0,
        "slot": "13",
        "type": "t_array(t_struct(PoolInfo)6101_storage)dyn_storage"
      },
      {
        "astId": 6110,
        "contract": "contracts/farm/SwapMining.sol:SwapMining",
        "label": "userInfo",
        "offset": 0,
        "slot": "14",
        "type": "t_mapping(t_uint256,t_mapping(t_address,t_struct(UserInfo)6088_storage))"
      }
    ],
    "types": {
      "t_address": {
        "encoding": "inplace",
        "label": "address",
        "numberOfBytes": "20"
      },
      "t_array(t_bytes32)dyn_storage": {
        "base": "t_bytes32",
        "encoding": "dynamic_array",
        "label": "bytes32[]",
        "numberOfBytes": "32"
      },
      "t_array(t_struct(PoolInfo)6101_storage)dyn_storage": {
        "base": "t_struct(PoolInfo)6101_storage",
        "encoding": "dynamic_array",
        "label": "struct SwapMining.PoolInfo[]",
        "numberOfBytes": "32"
      },
      "t_bytes32": {
        "encoding": "inplace",
        "label": "bytes32",
        "numberOfBytes": "32"
      },
      "t_contract(BabyToken)17478": {
        "encoding": "inplace",
        "label": "contract BabyToken",
        "numberOfBytes": "20"
      },
      "t_contract(IBabyFactory)8341": {
        "encoding": "inplace",
        "label": "contract IBabyFactory",
        "numberOfBytes": "20"
      },
      "t_contract(IOracle)5954": {
        "encoding": "inplace",
        "label": "contract IOracle",
        "numberOfBytes": "20"
      },
      "t_mapping(t_address,t_struct(UserInfo)6088_storage)": {
        "encoding": "mapping",
        "key": "t_address",
        "label": "mapping(address => struct SwapMining.UserInfo)",
        "numberOfBytes": "32",
        "value": "t_struct(UserInfo)6088_storage"
      },
      "t_mapping(t_address,t_uint256)": {
        "encoding": "mapping",
        "key": "t_address",
        "label": "mapping(address => uint256)",
        "numberOfBytes": "32",
        "value": "t_uint256"
      },
      "t_mapping(t_bytes32,t_uint256)": {
        "encoding": "mapping",
        "key": "t_bytes32",
        "label": "mapping(bytes32 => uint256)",
        "numberOfBytes": "32",
        "value": "t_uint256"
      },
      "t_mapping(t_uint256,t_mapping(t_address,t_struct(UserInfo)6088_storage))": {
        "encoding": "mapping",
        "key": "t_uint256",
        "label": "mapping(uint256 => mapping(address => struct SwapMining.UserInfo))",
        "numberOfBytes": "32",
        "value": "t_mapping(t_address,t_struct(UserInfo)6088_storage)"
      },
      "t_struct(AddressSet)1344_storage": {
        "encoding": "inplace",
        "label": "struct EnumerableSet.AddressSet",
        "members": [
          {
            "astId": 1343,
            "contract": "contracts/farm/SwapMining.sol:SwapMining",
            "label": "_inner",
            "offset": 0,
            "slot": "0",
            "type": "t_struct(Set)1079_storage"
          }
        ],
        "numberOfBytes": "64"
      },
      "t_struct(PoolInfo)6101_storage": {
        "encoding": "inplace",
        "label": "struct SwapMining.PoolInfo",
        "members": [
          {
            "astId": 6090,
            "contract": "contracts/farm/SwapMining.sol:SwapMining",
            "label": "pair",
            "offset": 0,
            "slot": "0",
            "type": "t_address"
          },
          {
            "astId": 6092,
            "contract": "contracts/farm/SwapMining.sol:SwapMining",
            "label": "quantity",
            "offset": 0,
            "slot": "1",
            "type": "t_uint256"
          },
          {
            "astId": 6094,
            "contract": "contracts/farm/SwapMining.sol:SwapMining",
            "label": "totalQuantity",
            "offset": 0,
            "slot": "2",
            "type": "t_uint256"
          },
          {
            "astId": 6096,
            "contract": "contracts/farm/SwapMining.sol:SwapMining",
            "label": "allocPoint",
            "offset": 0,
            "slot": "3",
            "type": "t_uint256"
          },
          {
            "astId": 6098,
            "contract": "contracts/farm/SwapMining.sol:SwapMining",
            "label": "allocMdxAmount",
            "offset": 0,
            "slot": "4",
            "type": "t_uint256"
          },
          {
            "astId": 6100,
            "contract": "contracts/farm/SwapMining.sol:SwapMining",
            "label": "lastRewardBlock",
            "offset": 0,
            "slot": "5",
            "type": "t_uint256"
          }
        ],
        "numberOfBytes": "192"
      },
      "t_struct(Set)1079_storage": {
        "encoding": "inplace",
        "label": "struct EnumerableSet.Set",
        "members": [
          {
            "astId": 1074,
            "contract": "contracts/farm/SwapMining.sol:SwapMining",
            "label": "_values",
            "offset": 0,
            "slot": "0",
            "type": "t_array(t_bytes32)dyn_storage"
          },
          {
            "astId": 1078,
            "contract": "contracts/farm/SwapMining.sol:SwapMining",
            "label": "_indexes",
            "offset": 0,
            "slot": "1",
            "type": "t_mapping(t_bytes32,t_uint256)"
          }
        ],
        "numberOfBytes": "64"
      },
      "t_struct(UserInfo)6088_storage": {
        "encoding": "inplace",
        "label": "struct SwapMining.UserInfo",
        "members": [
          {
            "astId": 6085,
            "contract": "contracts/farm/SwapMining.sol:SwapMining",
            "label": "quantity",
            "offset": 0,
            "slot": "0",
            "type": "t_uint256"
          },
          {
            "astId": 6087,
            "contract": "contracts/farm/SwapMining.sol:SwapMining",
            "label": "blockNumber",
            "offset": 0,
            "slot": "1",
            "type": "t_uint256"
          }
        ],
        "numberOfBytes": "64"
      },
      "t_uint256": {
        "encoding": "inplace",
        "label": "uint256",
        "numberOfBytes": "32"
      }
    }
  }
}